{
  "_format": "hh-sol-artifact-1",
  "contractName": "OttoMarketplace",
  "sourceName": "contracts/OttoMarketplace.sol",
  "abi": [
    {
      "inputs": [
        {
          "internalType": "address",
          "name": "_ottoStorage",
          "type": "address"
        },
        {
          "internalType": "address",
          "name": "_ottoRoyalty",
          "type": "address"
        }
      ],
      "stateMutability": "nonpayable",
      "type": "constructor"
    },
    {
      "anonymous": false,
      "inputs": [
        {
          "indexed": true,
          "internalType": "address",
          "name": "account",
          "type": "address"
        },
        {
          "indexed": true,
          "internalType": "address",
          "name": "operator",
          "type": "address"
        },
        {
          "indexed": false,
          "internalType": "bool",
          "name": "approved",
          "type": "bool"
        }
      ],
      "name": "ApprovalForAll",
      "type": "event"
    },
    {
      "anonymous": false,
      "inputs": [
        {
          "indexed": true,
          "internalType": "bytes32",
          "name": "tokenSeller",
          "type": "bytes32"
        },
        {
          "indexed": false,
          "internalType": "uint256",
          "name": "tokenId",
          "type": "uint256"
        },
        {
          "indexed": false,
          "internalType": "address",
          "name": "seller",
          "type": "address"
        },
        {
          "indexed": false,
          "internalType": "address",
          "name": "owner",
          "type": "address"
        },
        {
          "indexed": false,
          "internalType": "uint256",
          "name": "price",
          "type": "uint256"
        },
        {
          "indexed": false,
          "internalType": "uint256",
          "name": "amount",
          "type": "uint256"
        },
        {
          "indexed": false,
          "internalType": "uint256",
          "name": "sold",
          "type": "uint256"
        }
      ],
      "name": "MarketItemCreated",
      "type": "event"
    },
    {
      "anonymous": false,
      "inputs": [
        {
          "indexed": true,
          "internalType": "address",
          "name": "previousOwner",
          "type": "address"
        },
        {
          "indexed": true,
          "internalType": "address",
          "name": "newOwner",
          "type": "address"
        }
      ],
      "name": "OwnershipTransferred",
      "type": "event"
    },
    {
      "anonymous": false,
      "inputs": [
        {
          "indexed": true,
          "internalType": "address",
          "name": "operator",
          "type": "address"
        },
        {
          "indexed": true,
          "internalType": "address",
          "name": "from",
          "type": "address"
        },
        {
          "indexed": true,
          "internalType": "address",
          "name": "to",
          "type": "address"
        },
        {
          "indexed": false,
          "internalType": "uint256[]",
          "name": "ids",
          "type": "uint256[]"
        },
        {
          "indexed": false,
          "internalType": "uint256[]",
          "name": "values",
          "type": "uint256[]"
        }
      ],
      "name": "TransferBatch",
      "type": "event"
    },
    {
      "anonymous": false,
      "inputs": [
        {
          "indexed": true,
          "internalType": "address",
          "name": "operator",
          "type": "address"
        },
        {
          "indexed": true,
          "internalType": "address",
          "name": "from",
          "type": "address"
        },
        {
          "indexed": true,
          "internalType": "address",
          "name": "to",
          "type": "address"
        },
        {
          "indexed": false,
          "internalType": "uint256",
          "name": "id",
          "type": "uint256"
        },
        {
          "indexed": false,
          "internalType": "uint256",
          "name": "value",
          "type": "uint256"
        }
      ],
      "name": "TransferSingle",
      "type": "event"
    },
    {
      "anonymous": false,
      "inputs": [
        {
          "indexed": false,
          "internalType": "string",
          "name": "value",
          "type": "string"
        },
        {
          "indexed": true,
          "internalType": "uint256",
          "name": "id",
          "type": "uint256"
        }
      ],
      "name": "URI",
      "type": "event"
    },
    {
      "inputs": [
        {
          "internalType": "address",
          "name": "account",
          "type": "address"
        },
        {
          "internalType": "uint256",
          "name": "id",
          "type": "uint256"
        }
      ],
      "name": "balanceOf",
      "outputs": [
        {
          "internalType": "uint256",
          "name": "",
          "type": "uint256"
        }
      ],
      "stateMutability": "view",
      "type": "function"
    },
    {
      "inputs": [
        {
          "internalType": "address[]",
          "name": "accounts",
          "type": "address[]"
        },
        {
          "internalType": "uint256[]",
          "name": "ids",
          "type": "uint256[]"
        }
      ],
      "name": "balanceOfBatch",
      "outputs": [
        {
          "internalType": "uint256[]",
          "name": "",
          "type": "uint256[]"
        }
      ],
      "stateMutability": "view",
      "type": "function"
    },
    {
      "inputs": [
        {
          "internalType": "bytes32",
          "name": "_tokenSeller",
          "type": "bytes32"
        },
        {
          "internalType": "uint256",
          "name": "_amount",
          "type": "uint256"
        }
      ],
      "name": "createMarketSale",
      "outputs": [],
      "stateMutability": "payable",
      "type": "function"
    },
    {
      "inputs": [
        {
          "internalType": "string",
          "name": "_tokenURI",
          "type": "string"
        },
        {
          "internalType": "uint256",
          "name": "_price",
          "type": "uint256"
        },
        {
          "internalType": "uint256",
          "name": "_amount",
          "type": "uint256"
        },
        {
          "internalType": "uint96",
          "name": "_royaltyFee",
          "type": "uint96"
        }
      ],
      "name": "createToken",
      "outputs": [
        {
          "internalType": "bytes32",
          "name": "",
          "type": "bytes32"
        }
      ],
      "stateMutability": "payable",
      "type": "function"
    },
    {
      "inputs": [],
      "name": "getAllItems",
      "outputs": [
        {
          "components": [
            {
              "internalType": "bytes32",
              "name": "tokenSeller",
              "type": "bytes32"
            },
            {
              "internalType": "uint256",
              "name": "tokenId",
              "type": "uint256"
            },
            {
              "internalType": "address payable",
              "name": "seller",
              "type": "address"
            },
            {
              "internalType": "address payable",
              "name": "owner",
              "type": "address"
            },
            {
              "internalType": "uint256",
              "name": "price",
              "type": "uint256"
            },
            {
              "internalType": "uint256",
              "name": "amount",
              "type": "uint256"
            },
            {
              "internalType": "uint256",
              "name": "sold",
              "type": "uint256"
            }
          ],
          "internalType": "struct IOttoMarketplace.MarketItem[]",
          "name": "_items",
          "type": "tuple[]"
        }
      ],
      "stateMutability": "view",
      "type": "function"
    },
    {
      "inputs": [],
      "name": "getItemsListed",
      "outputs": [
        {
          "components": [
            {
              "internalType": "bytes32",
              "name": "tokenSeller",
              "type": "bytes32"
            },
            {
              "internalType": "uint256",
              "name": "tokenId",
              "type": "uint256"
            },
            {
              "internalType": "address payable",
              "name": "seller",
              "type": "address"
            },
            {
              "internalType": "address payable",
              "name": "owner",
              "type": "address"
            },
            {
              "internalType": "uint256",
              "name": "price",
              "type": "uint256"
            },
            {
              "internalType": "uint256",
              "name": "amount",
              "type": "uint256"
            },
            {
              "internalType": "uint256",
              "name": "sold",
              "type": "uint256"
            }
          ],
          "internalType": "struct IOttoMarketplace.MarketItem[]",
          "name": "_items",
          "type": "tuple[]"
        }
      ],
      "stateMutability": "view",
      "type": "function"
    },
    {
      "inputs": [],
      "name": "getListingPrice",
      "outputs": [
        {
          "internalType": "uint256",
          "name": "",
          "type": "uint256"
        }
      ],
      "stateMutability": "view",
      "type": "function"
    },
    {
      "inputs": [],
      "name": "getMarketItems",
      "outputs": [
        {
          "components": [
            {
              "internalType": "bytes32",
              "name": "tokenSeller",
              "type": "bytes32"
            },
            {
              "internalType": "uint256",
              "name": "tokenId",
              "type": "uint256"
            },
            {
              "internalType": "address payable",
              "name": "seller",
              "type": "address"
            },
            {
              "internalType": "address payable",
              "name": "owner",
              "type": "address"
            },
            {
              "internalType": "uint256",
              "name": "price",
              "type": "uint256"
            },
            {
              "internalType": "uint256",
              "name": "amount",
              "type": "uint256"
            },
            {
              "internalType": "uint256",
              "name": "sold",
              "type": "uint256"
            }
          ],
          "internalType": "struct IOttoMarketplace.MarketItem[]",
          "name": "_items",
          "type": "tuple[]"
        }
      ],
      "stateMutability": "view",
      "type": "function"
    },
    {
      "inputs": [],
      "name": "getMyNFTs",
      "outputs": [
        {
          "components": [
            {
              "internalType": "bytes32",
              "name": "tokenSeller",
              "type": "bytes32"
            },
            {
              "internalType": "uint256",
              "name": "tokenId",
              "type": "uint256"
            },
            {
              "internalType": "address payable",
              "name": "seller",
              "type": "address"
            },
            {
              "internalType": "address payable",
              "name": "owner",
              "type": "address"
            },
            {
              "internalType": "uint256",
              "name": "price",
              "type": "uint256"
            },
            {
              "internalType": "uint256",
              "name": "amount",
              "type": "uint256"
            },
            {
              "internalType": "uint256",
              "name": "sold",
              "type": "uint256"
            }
          ],
          "internalType": "struct IOttoMarketplace.MarketItem[]",
          "name": "_items",
          "type": "tuple[]"
        }
      ],
      "stateMutability": "view",
      "type": "function"
    },
    {
      "inputs": [
        {
          "internalType": "address",
          "name": "_addr",
          "type": "address"
        },
        {
          "internalType": "uint256",
          "name": "_tokenId",
          "type": "uint256"
        },
        {
          "internalType": "string",
          "name": "_text",
          "type": "string"
        }
      ],
      "name": "hash",
      "outputs": [
        {
          "internalType": "bytes32",
          "name": "",
          "type": "bytes32"
        }
      ],
      "stateMutability": "pure",
      "type": "function"
    },
    {
      "inputs": [
        {
          "internalType": "address",
          "name": "account",
          "type": "address"
        },
        {
          "internalType": "address",
          "name": "operator",
          "type": "address"
        }
      ],
      "name": "isApprovedForAll",
      "outputs": [
        {
          "internalType": "bool",
          "name": "",
          "type": "bool"
        }
      ],
      "stateMutability": "view",
      "type": "function"
    },
    {
      "inputs": [
        {
          "internalType": "address",
          "name": "",
          "type": "address"
        },
        {
          "internalType": "address",
          "name": "",
          "type": "address"
        },
        {
          "internalType": "uint256[]",
          "name": "",
          "type": "uint256[]"
        },
        {
          "internalType": "uint256[]",
          "name": "",
          "type": "uint256[]"
        },
        {
          "internalType": "bytes",
          "name": "",
          "type": "bytes"
        }
      ],
      "name": "onERC1155BatchReceived",
      "outputs": [
        {
          "internalType": "bytes4",
          "name": "",
          "type": "bytes4"
        }
      ],
      "stateMutability": "pure",
      "type": "function"
    },
    {
      "inputs": [
        {
          "internalType": "address",
          "name": "",
          "type": "address"
        },
        {
          "internalType": "address",
          "name": "",
          "type": "address"
        },
        {
          "internalType": "uint256",
          "name": "",
          "type": "uint256"
        },
        {
          "internalType": "uint256",
          "name": "",
          "type": "uint256"
        },
        {
          "internalType": "bytes",
          "name": "",
          "type": "bytes"
        }
      ],
      "name": "onERC1155Received",
      "outputs": [
        {
          "internalType": "bytes4",
          "name": "",
          "type": "bytes4"
        }
      ],
      "stateMutability": "pure",
      "type": "function"
    },
    {
      "inputs": [],
      "name": "owner",
      "outputs": [
        {
          "internalType": "address",
          "name": "",
          "type": "address"
        }
      ],
      "stateMutability": "view",
      "type": "function"
    },
    {
      "inputs": [],
      "name": "renounceOwnership",
      "outputs": [],
      "stateMutability": "nonpayable",
      "type": "function"
    },
    {
      "inputs": [
        {
          "internalType": "bytes32",
          "name": "_tokenSeller",
          "type": "bytes32"
        },
        {
          "internalType": "string",
          "name": "_tokenURI",
          "type": "string"
        },
        {
          "internalType": "uint256",
          "name": "_price",
          "type": "uint256"
        }
      ],
      "name": "resellToken",
      "outputs": [],
      "stateMutability": "payable",
      "type": "function"
    },
    {
      "inputs": [
        {
          "internalType": "address",
          "name": "from",
          "type": "address"
        },
        {
          "internalType": "address",
          "name": "to",
          "type": "address"
        },
        {
          "internalType": "uint256[]",
          "name": "ids",
          "type": "uint256[]"
        },
        {
          "internalType": "uint256[]",
          "name": "amounts",
          "type": "uint256[]"
        },
        {
          "internalType": "bytes",
          "name": "data",
          "type": "bytes"
        }
      ],
      "name": "safeBatchTransferFrom",
      "outputs": [],
      "stateMutability": "nonpayable",
      "type": "function"
    },
    {
      "inputs": [
        {
          "internalType": "address",
          "name": "from",
          "type": "address"
        },
        {
          "internalType": "address",
          "name": "to",
          "type": "address"
        },
        {
          "internalType": "uint256",
          "name": "id",
          "type": "uint256"
        },
        {
          "internalType": "uint256",
          "name": "amount",
          "type": "uint256"
        },
        {
          "internalType": "bytes",
          "name": "data",
          "type": "bytes"
        }
      ],
      "name": "safeTransferFrom",
      "outputs": [],
      "stateMutability": "nonpayable",
      "type": "function"
    },
    {
      "inputs": [
        {
          "internalType": "address",
          "name": "operator",
          "type": "address"
        },
        {
          "internalType": "bool",
          "name": "approved",
          "type": "bool"
        }
      ],
      "name": "setApprovalForAll",
      "outputs": [],
      "stateMutability": "nonpayable",
      "type": "function"
    },
    {
      "inputs": [
        {
          "internalType": "bytes4",
          "name": "interfaceId",
          "type": "bytes4"
        }
      ],
      "name": "supportsInterface",
      "outputs": [
        {
          "internalType": "bool",
          "name": "",
          "type": "bool"
        }
      ],
      "stateMutability": "view",
      "type": "function"
    },
    {
      "inputs": [
        {
          "internalType": "bytes32",
          "name": "_tokenSeller",
          "type": "bytes32"
        }
      ],
      "name": "tokenURI",
      "outputs": [
        {
          "internalType": "string",
          "name": "",
          "type": "string"
        }
      ],
      "stateMutability": "view",
      "type": "function"
    },
    {
      "inputs": [
        {
          "internalType": "address",
          "name": "newOwner",
          "type": "address"
        }
      ],
      "name": "transferOwnership",
      "outputs": [],
      "stateMutability": "nonpayable",
      "type": "function"
    },
    {
      "inputs": [
        {
          "internalType": "uint256",
          "name": "",
          "type": "uint256"
        }
      ],
      "name": "uri",
      "outputs": [
        {
          "internalType": "string",
          "name": "",
          "type": "string"
        }
      ],
      "stateMutability": "view",
      "type": "function"
    }
  ],
  "bytecode": "0x60806040523480156200001157600080fd5b5060405162003e3438038062003e348339810160408190526200003491620001d5565b60408051808201909152601081526f4f74746f204d61726b6574706c61636560801b60208201526200006633620000a9565b6200007181620000f9565b506001600455600580546001600160a01b039384166001600160a01b0319918216179091556006805492909316911617905562000249565b600080546001600160a01b038381166001600160a01b0319831681178455604051919092169283917f8be0079c531659141344cd1fd0a4f28419497f9722a3daafe3b4186f6b6457e09190a35050565b80516200010e90600390602084019062000112565b5050565b82805462000120906200020c565b90600052602060002090601f0160209004810192826200014457600085556200018f565b82601f106200015f57805160ff19168380011785556200018f565b828001600101855582156200018f579182015b828111156200018f57825182559160200191906001019062000172565b506200019d929150620001a1565b5090565b5b808211156200019d5760008155600101620001a2565b80516001600160a01b0381168114620001d057600080fd5b919050565b60008060408385031215620001e8578182fd5b620001f383620001b8565b91506200020360208401620001b8565b90509250929050565b600181811c908216806200022157607f821691505b602082108114156200024357634e487b7160e01b600052602260045260246000fd5b50919050565b613bdb80620002596000396000f3fe60806040526004361061017f5760003560e01c8063715018a6116100d6578063c0e5347a1161007f578063f242432a11610059578063f242432a14610458578063f2fde38b14610478578063fbf4f1441461049857600080fd5b8063c0e5347a146103cf578063e985e9c5146103e2578063f23a6e611461042b57600080fd5b8063a22cb465116100b0578063a22cb46514610347578063afbb8d5114610367578063bc197c811461038757600080fd5b8063715018a6146102f75780637f5842311461030c5780638da5cb5b1461031f57600080fd5b806320879c19116101385780634ba1d6aa116101125780634ba1d6aa146102a05780634e1273f4146102b5578063629cb2e4146102e257600080fd5b806320879c191461023e57806329aa3a421461025e5780632eb2c2d61461028057600080fd5b80630e89341c116101695780630e89341c146101e757806312e85585146102145780631c36eabb1461022957600080fd5b8062fdd58e1461018457806301ffc9a7146101b7575b600080fd5b34801561019057600080fd5b506101a461019f366004613263565b6104ad565b6040519081526020015b60405180910390f35b3480156101c357600080fd5b506101d76101d236600461350f565b61055b565b60405190151581526020016101ae565b3480156101f357600080fd5b50610207610202366004613488565b610566565b6040516101ae9190613912565b34801561022057600080fd5b506101a46105fa565b61023c6102373660046134a0565b610695565b005b34801561024a57600080fd5b506101a46102593660046132bb565b610a20565b34801561026a57600080fd5b50610273610a57565b6040516101ae91906137b1565b34801561028c57600080fd5b5061023c61029b3660046130a7565b610af1565b3480156102ac57600080fd5b50610273610b8c565b3480156102c157600080fd5b506102d56102d0366004613312565b610bea565b6040516101ae919061384d565b3480156102ee57600080fd5b50610273610d60565b34801561030357600080fd5b5061023c610daa565b61023c61031a3660046134ee565b610dbe565b34801561032b57600080fd5b506000546040516001600160a01b0390911681526020016101ae565b34801561035357600080fd5b5061023c610362366004613232565b61166a565b34801561037357600080fd5b50610207610382366004613488565b611679565b34801561039357600080fd5b506103b66103a2366004612fec565b63bc197c8160e01b98975050505050505050565b6040516001600160e01b031990911681526020016101ae565b6101a46103dd3660046135bb565b6116fa565b3480156103ee57600080fd5b506101d76103fd366004612fb4565b6001600160a01b03918216600090815260026020908152604080832093909416825291909152205460ff1690565b34801561043757600080fd5b506103b6610446366004613151565b63f23a6e6160e01b9695505050505050565b34801561046457600080fd5b5061023c6104733660046131cb565b611929565b34801561048457600080fd5b5061023c610493366004612f7c565b6119c4565b3480156104a457600080fd5b50610273611a54565b60006001600160a01b0383166105305760405162461bcd60e51b815260206004820152602a60248201527f455243313135353a2061646472657373207a65726f206973206e6f742061207660448201527f616c6964206f776e65720000000000000000000000000000000000000000000060648201526084015b60405180910390fd5b5060008181526001602090815260408083206001600160a01b03861684529091529020545b92915050565b600061055582611a9e565b60606003805461057590613a0f565b80601f01602080910402602001604051908101604052809291908181526020018280546105a190613a0f565b80156105ee5780601f106105c3576101008083540402835291602001916105ee565b820191906000526020600020905b8154815290600101906020018083116105d157829003601f168201915b50505050509050919050565b600554604080517f12e8558500000000000000000000000000000000000000000000000000000000815290516000926001600160a01b0316916312e85585916004808301926020929190829003018186803b15801561065857600080fd5b505afa15801561066c573d6000803e3d6000fd5b505050506040513d601f19601f820116820180604052508101906106909190613637565b905090565b600554604051632061292360e21b8152600481018590526000916001600160a01b031690638184a48c9060240160e06040518083038186803b1580156106da57600080fd5b505afa1580156106ee573d6000803e3d6000fd5b505050506040513d601f19601f82011682018060405250810190610712919061361c565b60608101519091506001600160a01b031633146107975760405162461bcd60e51b815260206004820152602a60248201527f4f6e6c79206974656d206f776e65722063616e20706572666f726d207468697360448201527f206f7065726174696f6e000000000000000000000000000000000000000000006064820152608401610527565b60006107a73383602001516104ad565b101561081b5760405162461bcd60e51b815260206004820152602260248201527f43616e6e6f742073656c6c20746f6b656e7320796f7520646f206e6f74206f7760448201527f6e2e0000000000000000000000000000000000000000000000000000000000006064820152608401610527565b600560009054906101000a90046001600160a01b03166001600160a01b03166312e855856040518163ffffffff1660e01b815260040160206040518083038186803b15801561086957600080fd5b505afa15801561087d573d6000803e3d6000fd5b505050506040513d601f19601f820116820180604052508101906108a19190613637565b3410156109165760405162461bcd60e51b815260206004820152602f60248201527f5072696365206d75737420626520657175616c206f722067726561746572207460448201527f6f206c697374696e6720707269636500000000000000000000000000000000006064820152608401610527565b60a081015160808201839052336040808401919091523060608401526005549051630fd50f6b60e01b81526001600160a01b0390911690630fd50f6b9061096390889086906004016138af565b600060405180830381600087803b15801561097d57600080fd5b505af1158015610991573d6000803e3d6000fd5b50506005546040516349b345c160e01b81526001600160a01b0390911692506349b345c191506109c7908890889060040161388e565b600060405180830381600087803b1580156109e157600080fd5b505af11580156109f5573d6000803e3d6000fd5b50505050610a19333084602001518460405180602001604052806000815250611b39565b5050505050565b6000838383604051602001610a37939291906136d1565b6040516020818303038152906040528051906020012090505b9392505050565b6005546040517f1f10e57a0000000000000000000000000000000000000000000000000000000081523060048201526060916001600160a01b031690631f10e57a906024015b60006040518083038186803b158015610ab557600080fd5b505afa158015610ac9573d6000803e3d6000fd5b505050506040513d6000823e601f3d908101601f1916820160405261069091908101906133df565b6001600160a01b038516331480610b0d5750610b0d85336103fd565b610b7f5760405162461bcd60e51b815260206004820152602f60248201527f455243313135353a2063616c6c6572206973206e6f7420746f6b656e206f776e60448201527f6572206e6f7220617070726f76656400000000000000000000000000000000006064820152608401610527565b610a198585858585611ce8565b600554604080517f97598cc300000000000000000000000000000000000000000000000000000000815290516060926001600160a01b0316916397598cc3916004808301926000929190829003018186803b158015610ab557600080fd5b60608151835114610c635760405162461bcd60e51b815260206004820152602960248201527f455243313135353a206163636f756e747320616e6420696473206c656e67746860448201527f206d69736d6174636800000000000000000000000000000000000000000000006064820152608401610527565b6000835167ffffffffffffffff811115610c8d57634e487b7160e01b600052604160045260246000fd5b604051908082528060200260200182016040528015610cb6578160200160208202803683370190505b50905060005b8451811015610d5857610d1d858281518110610ce857634e487b7160e01b600052603260045260246000fd5b6020026020010151858381518110610d1057634e487b7160e01b600052603260045260246000fd5b60200260200101516104ad565b828281518110610d3d57634e487b7160e01b600052603260045260246000fd5b6020908102919091010152610d5181613a77565b9050610cbc565b509392505050565b6005546040517f10afee1e0000000000000000000000000000000000000000000000000000000081523360048201526060916001600160a01b0316906310afee1e90602401610a9d565b610db2611f7a565b610dbc6000611fd4565b565b60026004541415610e115760405162461bcd60e51b815260206004820152601f60248201527f5265656e7472616e637947756172643a207265656e7472616e742063616c6c006044820152606401610527565b600260045580610e635760405162461bcd60e51b815260206004820152600f60248201527f496e76616c696420616d6f756e742e00000000000000000000000000000000006044820152606401610527565b600554604051632061292360e21b8152600481018490526000916001600160a01b031690638184a48c9060240160e06040518083038186803b158015610ea857600080fd5b505afa158015610ebc573d6000803e3d6000fd5b505050506040513d601f19601f82011682018060405250810190610ee0919061361c565b90506000816020015111610f365760405162461bcd60e51b815260206004820152601060248201527f496e76616c696420746f6b656e49642e000000000000000000000000000000006044820152606401610527565b8060c001518160a00151610f4a91906139c8565b821115610fbf5760405162461bcd60e51b815260206004820152602a60248201527f43616e6e6f7420627579206d6f7265207468616e2074686520617661696c616260448201527f6c6520616d6f756e742e000000000000000000000000000000000000000000006064820152608401610527565b818160800151610fcf91906139a9565b3414611045576040805162461bcd60e51b81526020600482015260248101919091527f506c65617365207375626d6974207468652061736b696e67207072696365206960448201527f6e206f7264657220746f20636f6d706c657465207468652070757263686173656064820152608401610527565b600654604080517f180b0d7e00000000000000000000000000000000000000000000000000000000815290516000926001600160a01b03169163180b0d7e916004808301926020929190829003018186803b1580156110a357600080fd5b505afa1580156110b7573d6000803e3d6000fd5b505050506040513d601f19601f820116820180604052508101906110db919061364f565b6bffffffffffffffffffffffff16600560009054906101000a90046001600160a01b03166001600160a01b031663d2c00fa06040518163ffffffff1660e01b815260040160206040518083038186803b15801561113757600080fd5b505afa15801561114b573d6000803e3d6000fd5b505050506040513d601f19601f8201168201806040525081019061116f919061364f565b611187906bffffffffffffffffffffffff16346139a9565b6111919190613989565b60065460208401516040517f2a55205a000000000000000000000000000000000000000000000000000000008152600481019190915234602482015291925060009182916001600160a01b031690632a55205a90604401604080518083038186803b1580156111ff57600080fd5b505afa158015611213573d6000803e3d6000fd5b505050506040513d601f19601f82011682018060405250810190611237919061328e565b91509150306001600160a01b0316638da5cb5b6040518163ffffffff1660e01b815260040160206040518083038186803b15801561127457600080fd5b505afa158015611288573d6000803e3d6000fd5b505050506040513d601f19601f820116820180604052508101906112ac9190612f98565b6001600160a01b03166108fc600560009054906101000a90046001600160a01b03166001600160a01b03166312e855856040518163ffffffff1660e01b815260040160206040518083038186803b15801561130657600080fd5b505afa15801561131a573d6000803e3d6000fd5b505050506040513d601f19601f8201168201806040525081019061133e9190613637565b6040518115909202916000818181858888f19350505050158015611366573d6000803e3d6000fd5b506040516001600160a01b0383169082156108fc029083906000818181858888f1935050505015801561139d573d6000803e3d6000fd5b50600560009054906101000a90046001600160a01b03166001600160a01b031663f37dca786040518163ffffffff1660e01b815260040160206040518083038186803b1580156113ec57600080fd5b505afa158015611400573d6000803e3d6000fd5b505050506040513d601f19601f820116820180604052508101906114249190612f98565b6001600160a01b03166108fc849081150290604051600060405180830381858888f1935050505015801561145c573d6000803e3d6000fd5b5060408401516001600160a01b03168161147685346139c8565b61148091906139c8565b6113889050505060006114a733866020015160405180602001604052806000815250610a20565b9050858560c0018181516114bb9190613971565b9052506114c8818761203c565b6114dc576114dc8782876080015189612242565b60208501516040517ff242432a000000000000000000000000000000000000000000000000000000008152306004820181905233602483015260448201929092526064810188905260a06084820152600060a482015263f242432a9060c401600060405180830381600087803b15801561155557600080fd5b505af1158015611569573d6000803e3d6000fd5b505050508460c001518560a0015114156115f857600060608601819052600554604080517f6b6ddcee00000000000000000000000000000000000000000000000000000000815290516001600160a01b0390921692636b6ddcee9260048084019382900301818387803b1580156115df57600080fd5b505af11580156115f3573d6000803e3d6000fd5b505050505b600554604051630fd50f6b60e01b81526001600160a01b0390911690630fd50f6b9061162a908a9089906004016138af565b600060405180830381600087803b15801561164457600080fd5b505af1158015611658573d6000803e3d6000fd5b50506001600455505050505050505050565b611675338383612661565b5050565b6005546040516336be359360e21b8152600481018390526060916001600160a01b03169063daf8d64c9060240160006040518083038186803b1580156116be57600080fd5b505afa1580156116d2573d6000803e3d6000fd5b505050506040513d6000823e601f3d908101601f191682016040526105559190810190613547565b600080600560009054906101000a90046001600160a01b03166001600160a01b03166375794a3c6040518163ffffffff1660e01b8152600401602060405180830381600087803b15801561174d57600080fd5b505af1158015611761573d6000803e3d6000fd5b505050506040513d601f19601f820116820180604052508101906117859190613637565b905060006117a3338360405180602001604052806000815250610a20565b90506117c030838760405180602001604052806000815250612756565b6006546040517f5944c753000000000000000000000000000000000000000000000000000000008152600481018490523360248201526bffffffffffffffffffffffff861660448201526001600160a01b0390911690635944c75390606401600060405180830381600087803b15801561183957600080fd5b505af115801561184d573d6000803e3d6000fd5b50506005546040516377ebe35b60e11b8152600481018590526001600160a01b03909116925063efd7c6b69150602401600060405180830381600087803b15801561189757600080fd5b505af11580156118ab573d6000803e3d6000fd5b50506005546040516349b345c160e01b81526001600160a01b0390911692506349b345c191506118e19084908b9060040161388e565b600060405180830381600087803b1580156118fb57600080fd5b505af115801561190f573d6000803e3d6000fd5b5050505061191f81838888612888565b9695505050505050565b6001600160a01b038516331480611945575061194585336103fd565b6119b75760405162461bcd60e51b815260206004820152602f60248201527f455243313135353a2063616c6c6572206973206e6f7420746f6b656e206f776e60448201527f6572206e6f7220617070726f76656400000000000000000000000000000000006064820152608401610527565b610a198585858585611b39565b6119cc611f7a565b6001600160a01b038116611a485760405162461bcd60e51b815260206004820152602660248201527f4f776e61626c653a206e6577206f776e657220697320746865207a65726f206160448201527f64647265737300000000000000000000000000000000000000000000000000006064820152608401610527565b611a5181611fd4565b50565b6005546040517f8a410b1a0000000000000000000000000000000000000000000000000000000081523360048201526060916001600160a01b031690638a410b1a90602401610a9d565b60006001600160e01b031982167fd9b67a26000000000000000000000000000000000000000000000000000000001480611b0157506001600160e01b031982167f0e89341c00000000000000000000000000000000000000000000000000000000145b8061055557507f01ffc9a7000000000000000000000000000000000000000000000000000000006001600160e01b0319831614610555565b6001600160a01b038416611b9d5760405162461bcd60e51b815260206004820152602560248201527f455243313135353a207472616e7366657220746f20746865207a65726f206164604482015264647265737360d81b6064820152608401610527565b336000611ba985612a6d565b90506000611bb685612a6d565b905060008681526001602090815260408083206001600160a01b038c16845290915290205485811015611c3e5760405162461bcd60e51b815260206004820152602a60248201527f455243313135353a20696e73756666696369656e742062616c616e636520666f60448201526939103a3930b739b332b960b11b6064820152608401610527565b60008781526001602090815260408083206001600160a01b038d8116855292528083208985039055908a16825281208054889290611c7d908490613971565b909155505060408051888152602081018890526001600160a01b03808b16928c821692918816917fc3d58168c5ae7397731d063d5bbf3d657854427343f4c083240f7aacaa2d0f62910160405180910390a4611cdd848a8a8a8a8a612ac6565b505050505050505050565b8151835114611d5f5760405162461bcd60e51b815260206004820152602860248201527f455243313135353a2069647320616e6420616d6f756e7473206c656e6774682060448201527f6d69736d617463680000000000000000000000000000000000000000000000006064820152608401610527565b6001600160a01b038416611dc35760405162461bcd60e51b815260206004820152602560248201527f455243313135353a207472616e7366657220746f20746865207a65726f206164604482015264647265737360d81b6064820152608401610527565b3360005b8451811015611f0c576000858281518110611df257634e487b7160e01b600052603260045260246000fd5b602002602001015190506000858381518110611e1e57634e487b7160e01b600052603260045260246000fd5b60209081029190910181015160008481526001835260408082206001600160a01b038e168352909352919091205490915081811015611eb25760405162461bcd60e51b815260206004820152602a60248201527f455243313135353a20696e73756666696369656e742062616c616e636520666f60448201526939103a3930b739b332b960b11b6064820152608401610527565b60008381526001602090815260408083206001600160a01b038e8116855292528083208585039055908b16825281208054849290611ef1908490613971565b9250508190555050505080611f0590613a77565b9050611dc7565b50846001600160a01b0316866001600160a01b0316826001600160a01b03167f4a39dc06d4c0dbc64b70af90fd698a233a518aa5d07e595d983b8c0526c8f7fb8787604051611f5c929190613860565b60405180910390a4611f72818787878787612c7b565b505050505050565b6000546001600160a01b03163314610dbc5760405162461bcd60e51b815260206004820181905260248201527f4f776e61626c653a2063616c6c6572206973206e6f7420746865206f776e65726044820152606401610527565b600080546001600160a01b038381167fffffffffffffffffffffffff0000000000000000000000000000000000000000831681178455604051919092169283917f8be0079c531659141344cd1fd0a4f28419497f9722a3daafe3b4186f6b6457e09190a35050565b600554604051632061292360e21b81526004810184905260009182916001600160a01b0390911690638184a48c9060240160e06040518083038186803b15801561208557600080fd5b505afa158015612099573d6000803e3d6000fd5b505050506040513d601f19601f820116820180604052508101906120bd919061361c565b90508060200151600014156120d6576000915050610555565b828160a0018181516120e89190613971565b90525033606082015260006040808301919091526005549051630fd50f6b60e01b81526001600160a01b0390911690630fd50f6b9061212d90879085906004016138af565b600060405180830381600087803b15801561214757600080fd5b505af115801561215b573d6000803e3d6000fd5b50506005546040516336be359360e21b8152600481018890526001600160a01b0390911692506349b345c191508690839063daf8d64c9060240160006040518083038186803b1580156121ad57600080fd5b505afa1580156121c1573d6000803e3d6000fd5b505050506040513d6000823e601f3d908101601f191682016040526121e99190810190613547565b6040518363ffffffff1660e01b815260040161220692919061388e565b600060405180830381600087803b15801561222057600080fd5b505af1158015612234573d6000803e3d6000fd5b506001979650505050505050565b600082116122925760405162461bcd60e51b815260206004820152601c60248201527f5072696365206d757374206265206174206c65617374203120776569000000006044820152606401610527565b600081116122e25760405162461bcd60e51b815260206004820152601d60248201527f416d6f756e74206d7573742062652067726561746572207468616e20300000006044820152606401610527565b600554604051632061292360e21b8152600481018690526000916001600160a01b031690638184a48c9060240160e06040518083038186803b15801561232757600080fd5b505afa15801561233b573d6000803e3d6000fd5b505050506040513d601f19601f8201168201806040525081019061235f919061361c565b905060008160200151116123b55760405162461bcd60e51b815260206004820152600e60248201527f496e76616c696420746f6b656e2e0000000000000000000000000000000000006044820152606401610527565b600554604051632061292360e21b8152600481018690526000916001600160a01b031690638184a48c9060240160e06040518083038186803b1580156123fa57600080fd5b505afa15801561240e573d6000803e3d6000fd5b505050506040513d601f19601f82011682018060405250810190612432919061361c565b905080602001516000146124885760405162461bcd60e51b815260206004820152601b60248201527f526573656c6c657220616c7265616479207265676973746572656400000000006044820152606401610527565b6005546040516377ebe35b60e11b8152600481018790526001600160a01b039091169063efd7c6b690602401600060405180830381600087803b1580156124ce57600080fd5b505af11580156124e2573d6000803e3d6000fd5b50506005546040516336be359360e21b8152600481018a90526001600160a01b0390911692506349b345c191508790839063daf8d64c9060240160006040518083038186803b15801561253457600080fd5b505afa158015612548573d6000803e3d6000fd5b505050506040513d6000823e601f3d908101601f191682016040526125709190810190613547565b6040518363ffffffff1660e01b815260040161258d92919061388e565b600060405180830381600087803b1580156125a757600080fd5b505af11580156125bb573d6000803e3d6000fd5b50506005546040805160e081018252898152602087810151908201526000818301819052336060830152608082018a905260a0820189905260c08201529051630fd50f6b60e01b81526001600160a01b039092169350630fd50f6b9250612627918991906004016138af565b600060405180830381600087803b15801561264157600080fd5b505af1158015612655573d6000803e3d6000fd5b50505050505050505050565b816001600160a01b0316836001600160a01b031614156126e95760405162461bcd60e51b815260206004820152602960248201527f455243313135353a2073657474696e6720617070726f76616c2073746174757360448201527f20666f722073656c6600000000000000000000000000000000000000000000006064820152608401610527565b6001600160a01b03838116600081815260026020908152604080832094871680845294825291829020805460ff191686151590811790915591519182527f17307eab39ab6107e8899845ad3d59bd9653f200f220920489ca2b5937696c31910160405180910390a3505050565b6001600160a01b0384166127d25760405162461bcd60e51b815260206004820152602160248201527f455243313135353a206d696e7420746f20746865207a65726f2061646472657360448201527f73000000000000000000000000000000000000000000000000000000000000006064820152608401610527565b3360006127de85612a6d565b905060006127eb85612a6d565b905060008681526001602090815260408083206001600160a01b038b1684529091528120805487929061281f908490613971565b909155505060408051878152602081018790526001600160a01b03808a1692600092918716917fc3d58168c5ae7397731d063d5bbf3d657854427343f4c083240f7aacaa2d0f62910160405180910390a461287f83600089898989612ac6565b50505050505050565b600082116128d85760405162461bcd60e51b815260206004820152601c60248201527f5072696365206d757374206265206174206c65617374203120776569000000006044820152606401610527565b600560009054906101000a90046001600160a01b03166001600160a01b03166312e855856040518163ffffffff1660e01b815260040160206040518083038186803b15801561292657600080fd5b505afa15801561293a573d6000803e3d6000fd5b505050506040513d601f19601f8201168201806040525081019061295e9190613637565b34146129d15760405162461bcd60e51b8152602060048201526024808201527f5072696365206d75737420626520657175616c20746f206c697374696e67207060448201527f72696365000000000000000000000000000000000000000000000000000000006064820152608401610527565b6005546040805160e0810182528681526020810186905233818301523060608201526080810185905260a08101849052600060c08201529051630fd50f6b60e01b81526001600160a01b0390921691630fd50f6b91612a35918891906004016138af565b600060405180830381600087803b158015612a4f57600080fd5b505af1158015612a63573d6000803e3d6000fd5b5050505050505050565b60408051600180825281830190925260609160009190602080830190803683370190505090508281600081518110612ab557634e487b7160e01b600052603260045260246000fd5b602090810291909101015292915050565b6001600160a01b0384163b15611f725760405163f23a6e6160e01b81526001600160a01b0385169063f23a6e6190612b0a908990899088908890889060040161376e565b602060405180830381600087803b158015612b2457600080fd5b505af1925050508015612b54575060408051601f3d908101601f19168201909252612b519181019061352b565b60015b612c0a57612b60613abe565b806308c379a01415612b9a5750612b75613ad6565b80612b805750612b9c565b8060405162461bcd60e51b81526004016105279190613912565b505b60405162461bcd60e51b815260206004820152603460248201527f455243313135353a207472616e7366657220746f206e6f6e204552433131353560448201527f526563656976657220696d706c656d656e7465720000000000000000000000006064820152608401610527565b6001600160e01b0319811663f23a6e6160e01b1461287f5760405162461bcd60e51b815260206004820152602860248201527f455243313135353a204552433131353552656365697665722072656a656374656044820152676420746f6b656e7360c01b6064820152608401610527565b6001600160a01b0384163b15611f725760405163bc197c8160e01b81526001600160a01b0385169063bc197c8190612cbf9089908990889088908890600401613710565b602060405180830381600087803b158015612cd957600080fd5b505af1925050508015612d09575060408051601f3d908101601f19168201909252612d069181019061352b565b60015b612d1557612b60613abe565b6001600160e01b0319811663bc197c8160e01b1461287f5760405162461bcd60e51b815260206004820152602860248201527f455243313135353a204552433131353552656365697665722072656a656374656044820152676420746f6b656e7360c01b6064820152608401610527565b8051612d9181613b60565b919050565b60008083601f840112612da7578182fd5b50813567ffffffffffffffff811115612dbe578182fd5b6020830191508360208260051b8501011115612dd957600080fd5b9250929050565b600082601f830112612df0578081fd5b81356020612dfd82613925565b604051612e0a8282613a4a565b8381528281019150858301600585901b87018401881015612e29578586fd5b855b85811015612e4757813584529284019290840190600101612e2b565b5090979650505050505050565b60008083601f840112612e65578182fd5b50813567ffffffffffffffff811115612e7c578182fd5b602083019150836020828501011115612dd957600080fd5b600082601f830112612ea4578081fd5b8135612eaf81613949565b604051612ebc8282613a4a565b828152856020848701011115612ed0578384fd5b82602086016020830137918201602001929092529392505050565b600060e08284031215612efc578081fd5b60405160e0810181811067ffffffffffffffff82111715612f1f57612f1f613aa8565b80604052508091508251815260208301516020820152612f4160408401612d86565b6040820152612f5260608401612d86565b60608201526080830151608082015260a083015160a082015260c083015160c08201525092915050565b600060208284031215612f8d578081fd5b8135610a5081613b60565b600060208284031215612fa9578081fd5b8151610a5081613b60565b60008060408385031215612fc6578081fd5b8235612fd181613b60565b91506020830135612fe181613b60565b809150509250929050565b60008060008060008060008060a0898b031215613007578384fd5b883561301281613b60565b9750602089013561302281613b60565b9650604089013567ffffffffffffffff8082111561303e578586fd5b61304a8c838d01612d96565b909850965060608b0135915080821115613062578586fd5b61306e8c838d01612d96565b909650945060808b0135915080821115613086578384fd5b506130938b828c01612e54565b999c989b5096995094979396929594505050565b600080600080600060a086880312156130be578283fd5b85356130c981613b60565b945060208601356130d981613b60565b9350604086013567ffffffffffffffff808211156130f5578485fd5b61310189838a01612de0565b94506060880135915080821115613116578283fd5b61312289838a01612de0565b93506080880135915080821115613137578283fd5b5061314488828901612e94565b9150509295509295909350565b60008060008060008060a08789031215613169578384fd5b863561317481613b60565b9550602087013561318481613b60565b94506040870135935060608701359250608087013567ffffffffffffffff8111156131ad578283fd5b6131b989828a01612e54565b979a9699509497509295939492505050565b600080600080600060a086880312156131e2578283fd5b85356131ed81613b60565b945060208601356131fd81613b60565b93506040860135925060608601359150608086013567ffffffffffffffff811115613226578182fd5b61314488828901612e94565b60008060408385031215613244578182fd5b823561324f81613b60565b915060208301358015158114612fe1578182fd5b60008060408385031215613275578182fd5b823561328081613b60565b946020939093013593505050565b600080604083850312156132a0578182fd5b82516132ab81613b60565b6020939093015192949293505050565b6000806000606084860312156132cf578081fd5b83356132da81613b60565b925060208401359150604084013567ffffffffffffffff8111156132fc578182fd5b61330886828701612e94565b9150509250925092565b60008060408385031215613324578182fd5b823567ffffffffffffffff8082111561333b578384fd5b818501915085601f83011261334e578384fd5b8135602061335b82613925565b6040516133688282613a4a565b8381528281019150858301600585901b870184018b1015613387578889fd5b8896505b848710156133b257803561339e81613b60565b83526001969096019591830191830161338b565b50965050860135925050808211156133c8578283fd5b506133d585828601612de0565b9150509250929050565b600060208083850312156133f1578182fd5b825167ffffffffffffffff811115613407578283fd5b8301601f81018513613417578283fd5b805161342281613925565b60405161342f8282613a4a565b828152848101915083850160e0808502860187018a101561344e578788fd5b8795505b8486101561347a576134648a83612eeb565b8452600195909501949286019290810190613452565b509098975050505050505050565b600060208284031215613499578081fd5b5035919050565b6000806000606084860312156134b4578081fd5b83359250602084013567ffffffffffffffff8111156134d1578182fd5b6134dd86828701612e94565b925050604084013590509250925092565b60008060408385031215613500578182fd5b50508035926020909101359150565b600060208284031215613520578081fd5b8135610a5081613b75565b60006020828403121561353c578081fd5b8151610a5081613b75565b600060208284031215613558578081fd5b815167ffffffffffffffff81111561356e578182fd5b8201601f8101841361357e578182fd5b805161358981613949565b6040516135968282613a4a565b8281528660208486010111156135aa578485fd5b61191f8360208301602087016139df565b600080600080608085870312156135d0578182fd5b843567ffffffffffffffff8111156135e6578283fd5b6135f287828801612e94565b9450506020850135925060408501359150606085013561361181613b8b565b939692955090935050565b600060e0828403121561362d578081fd5b610a508383612eeb565b600060208284031215613648578081fd5b5051919050565b600060208284031215613660578081fd5b8151610a5081613b8b565b6000815180845260208085019450808401835b8381101561369a5781518752958201959082019060010161367e565b509495945050505050565b600081518084526136bd8160208601602086016139df565b601f01601f19169290920160200192915050565b6bffffffffffffffffffffffff198460601b168152826014820152600082516137018160348501602087016139df565b91909101603401949350505050565b60006001600160a01b03808816835280871660208401525060a0604083015261373c60a083018661366b565b828103606084015261374e818661366b565b9050828103608084015261376281856136a5565b98975050505050505050565b60006001600160a01b03808816835280871660208401525084604083015283606083015260a060808301526137a660a08301846136a5565b979650505050505050565b6020808252825182820181905260009190848201906040850190845b818110156138415761382e838551805182526020810151602083015260408101516001600160a01b03808216604085015280606084015116606085015250506080810151608083015260a081015160a083015260c081015160c08301525050565b9284019260e092909201916001016137cd565b50909695505050505050565b602081526000610a50602083018461366b565b604081526000613873604083018561366b565b8281036020840152613885818561366b565b95945050505050565b8281526040602082015260006138a760408301846136a5565b949350505050565b8281526101008101610a506020830184805182526020810151602083015260408101516001600160a01b03808216604085015280606084015116606085015250506080810151608083015260a081015160a083015260c081015160c08301525050565b602081526000610a5060208301846136a5565b600067ffffffffffffffff82111561393f5761393f613aa8565b5060051b60200190565b600067ffffffffffffffff82111561396357613963613aa8565b50601f01601f191660200190565b6000821982111561398457613984613a92565b500190565b6000826139a457634e487b7160e01b81526012600452602481fd5b500490565b60008160001904831182151516156139c3576139c3613a92565b500290565b6000828210156139da576139da613a92565b500390565b60005b838110156139fa5781810151838201526020016139e2565b83811115613a09576000848401525b50505050565b600181811c90821680613a2357607f821691505b60208210811415613a4457634e487b7160e01b600052602260045260246000fd5b50919050565b601f8201601f1916810167ffffffffffffffff81118282101715613a7057613a70613aa8565b6040525050565b6000600019821415613a8b57613a8b613a92565b5060010190565b634e487b7160e01b600052601160045260246000fd5b634e487b7160e01b600052604160045260246000fd5b600060033d1115613ad357600481823e5160e01c5b90565b600060443d1015613ae45790565b6040516003193d81016004833e81513d67ffffffffffffffff8160248401118184111715613b1457505050505090565b8285019150815181811115613b2c5750505050505090565b843d8701016020828501011115613b465750505050505090565b613b5560208286010187613a4a565b509095945050505050565b6001600160a01b0381168114611a5157600080fd5b6001600160e01b031981168114611a5157600080fd5b6bffffffffffffffffffffffff81168114611a5157600080fdfea26469706673582212201c7bea14ae65eb49be7478123feccb2327ccd9cd63ea11e655579855bad3fa5564736f6c63430008040033",
  "linkReferences": {},
  "deployedLinkReferences": {}
}