{
  "_format": "hh-sol-artifact-1",
  "contractName": "OttoMarketplace",
  "sourceName": "contracts/OttoMarketplace.sol",
  "abi": [
    {
      "inputs": [
        {
          "internalType": "address",
          "name": "add",
          "type": "address"
        }
      ],
      "stateMutability": "nonpayable",
      "type": "constructor"
    },
    {
      "anonymous": false,
      "inputs": [
        {
          "indexed": true,
          "internalType": "address",
          "name": "account",
          "type": "address"
        },
        {
          "indexed": true,
          "internalType": "address",
          "name": "operator",
          "type": "address"
        },
        {
          "indexed": false,
          "internalType": "bool",
          "name": "approved",
          "type": "bool"
        }
      ],
      "name": "ApprovalForAll",
      "type": "event"
    },
    {
      "anonymous": false,
      "inputs": [
        {
          "indexed": true,
          "internalType": "bytes32",
          "name": "tokenSeller",
          "type": "bytes32"
        },
        {
          "indexed": false,
          "internalType": "uint256",
          "name": "tokenId",
          "type": "uint256"
        },
        {
          "indexed": false,
          "internalType": "address",
          "name": "seller",
          "type": "address"
        },
        {
          "indexed": false,
          "internalType": "address",
          "name": "owner",
          "type": "address"
        },
        {
          "indexed": false,
          "internalType": "uint256",
          "name": "price",
          "type": "uint256"
        },
        {
          "indexed": false,
          "internalType": "uint256",
          "name": "amount",
          "type": "uint256"
        },
        {
          "indexed": false,
          "internalType": "uint256",
          "name": "sold",
          "type": "uint256"
        }
      ],
      "name": "MarketItemCreated",
      "type": "event"
    },
    {
      "anonymous": false,
      "inputs": [
        {
          "indexed": true,
          "internalType": "address",
          "name": "previousOwner",
          "type": "address"
        },
        {
          "indexed": true,
          "internalType": "address",
          "name": "newOwner",
          "type": "address"
        }
      ],
      "name": "OwnershipTransferred",
      "type": "event"
    },
    {
      "anonymous": false,
      "inputs": [
        {
          "indexed": true,
          "internalType": "address",
          "name": "operator",
          "type": "address"
        },
        {
          "indexed": true,
          "internalType": "address",
          "name": "from",
          "type": "address"
        },
        {
          "indexed": true,
          "internalType": "address",
          "name": "to",
          "type": "address"
        },
        {
          "indexed": false,
          "internalType": "uint256[]",
          "name": "ids",
          "type": "uint256[]"
        },
        {
          "indexed": false,
          "internalType": "uint256[]",
          "name": "values",
          "type": "uint256[]"
        }
      ],
      "name": "TransferBatch",
      "type": "event"
    },
    {
      "anonymous": false,
      "inputs": [
        {
          "indexed": true,
          "internalType": "address",
          "name": "operator",
          "type": "address"
        },
        {
          "indexed": true,
          "internalType": "address",
          "name": "from",
          "type": "address"
        },
        {
          "indexed": true,
          "internalType": "address",
          "name": "to",
          "type": "address"
        },
        {
          "indexed": false,
          "internalType": "uint256",
          "name": "id",
          "type": "uint256"
        },
        {
          "indexed": false,
          "internalType": "uint256",
          "name": "value",
          "type": "uint256"
        }
      ],
      "name": "TransferSingle",
      "type": "event"
    },
    {
      "anonymous": false,
      "inputs": [
        {
          "indexed": false,
          "internalType": "string",
          "name": "value",
          "type": "string"
        },
        {
          "indexed": true,
          "internalType": "uint256",
          "name": "id",
          "type": "uint256"
        }
      ],
      "name": "URI",
      "type": "event"
    },
    {
      "inputs": [
        {
          "internalType": "address",
          "name": "account",
          "type": "address"
        },
        {
          "internalType": "uint256",
          "name": "id",
          "type": "uint256"
        }
      ],
      "name": "balanceOf",
      "outputs": [
        {
          "internalType": "uint256",
          "name": "",
          "type": "uint256"
        }
      ],
      "stateMutability": "view",
      "type": "function"
    },
    {
      "inputs": [
        {
          "internalType": "address[]",
          "name": "accounts",
          "type": "address[]"
        },
        {
          "internalType": "uint256[]",
          "name": "ids",
          "type": "uint256[]"
        }
      ],
      "name": "balanceOfBatch",
      "outputs": [
        {
          "internalType": "uint256[]",
          "name": "",
          "type": "uint256[]"
        }
      ],
      "stateMutability": "view",
      "type": "function"
    },
    {
      "inputs": [
        {
          "internalType": "bytes32",
          "name": "_tokenSeller",
          "type": "bytes32"
        },
        {
          "internalType": "uint256",
          "name": "_amount",
          "type": "uint256"
        }
      ],
      "name": "createMarketSale",
      "outputs": [],
      "stateMutability": "payable",
      "type": "function"
    },
    {
      "inputs": [
        {
          "internalType": "string",
          "name": "_tokenURI",
          "type": "string"
        },
        {
          "internalType": "uint256",
          "name": "_price",
          "type": "uint256"
        },
        {
          "internalType": "uint256",
          "name": "_amount",
          "type": "uint256"
        }
      ],
      "name": "createToken",
      "outputs": [
        {
          "internalType": "bytes32",
          "name": "",
          "type": "bytes32"
        }
      ],
      "stateMutability": "payable",
      "type": "function"
    },
    {
      "inputs": [],
      "name": "getAllItems",
      "outputs": [
        {
          "components": [
            {
              "internalType": "bytes32",
              "name": "tokenSeller",
              "type": "bytes32"
            },
            {
              "internalType": "uint256",
              "name": "tokenId",
              "type": "uint256"
            },
            {
              "internalType": "address payable",
              "name": "seller",
              "type": "address"
            },
            {
              "internalType": "address payable",
              "name": "owner",
              "type": "address"
            },
            {
              "internalType": "uint256",
              "name": "price",
              "type": "uint256"
            },
            {
              "internalType": "uint256",
              "name": "amount",
              "type": "uint256"
            },
            {
              "internalType": "uint256",
              "name": "sold",
              "type": "uint256"
            }
          ],
          "internalType": "struct OttoMarketplace.MarketItem[]",
          "name": "_items",
          "type": "tuple[]"
        }
      ],
      "stateMutability": "view",
      "type": "function"
    },
    {
      "inputs": [],
      "name": "getItemsListed",
      "outputs": [
        {
          "components": [
            {
              "internalType": "bytes32",
              "name": "tokenSeller",
              "type": "bytes32"
            },
            {
              "internalType": "uint256",
              "name": "tokenId",
              "type": "uint256"
            },
            {
              "internalType": "address payable",
              "name": "seller",
              "type": "address"
            },
            {
              "internalType": "address payable",
              "name": "owner",
              "type": "address"
            },
            {
              "internalType": "uint256",
              "name": "price",
              "type": "uint256"
            },
            {
              "internalType": "uint256",
              "name": "amount",
              "type": "uint256"
            },
            {
              "internalType": "uint256",
              "name": "sold",
              "type": "uint256"
            }
          ],
          "internalType": "struct OttoMarketplace.MarketItem[]",
          "name": "_items",
          "type": "tuple[]"
        }
      ],
      "stateMutability": "view",
      "type": "function"
    },
    {
      "inputs": [],
      "name": "getListingPrice",
      "outputs": [
        {
          "internalType": "uint256",
          "name": "",
          "type": "uint256"
        }
      ],
      "stateMutability": "view",
      "type": "function"
    },
    {
      "inputs": [],
      "name": "getMarketItems",
      "outputs": [
        {
          "components": [
            {
              "internalType": "bytes32",
              "name": "tokenSeller",
              "type": "bytes32"
            },
            {
              "internalType": "uint256",
              "name": "tokenId",
              "type": "uint256"
            },
            {
              "internalType": "address payable",
              "name": "seller",
              "type": "address"
            },
            {
              "internalType": "address payable",
              "name": "owner",
              "type": "address"
            },
            {
              "internalType": "uint256",
              "name": "price",
              "type": "uint256"
            },
            {
              "internalType": "uint256",
              "name": "amount",
              "type": "uint256"
            },
            {
              "internalType": "uint256",
              "name": "sold",
              "type": "uint256"
            }
          ],
          "internalType": "struct OttoMarketplace.MarketItem[]",
          "name": "_items",
          "type": "tuple[]"
        }
      ],
      "stateMutability": "view",
      "type": "function"
    },
    {
      "inputs": [],
      "name": "getMyNFTs",
      "outputs": [
        {
          "components": [
            {
              "internalType": "bytes32",
              "name": "tokenSeller",
              "type": "bytes32"
            },
            {
              "internalType": "uint256",
              "name": "tokenId",
              "type": "uint256"
            },
            {
              "internalType": "address payable",
              "name": "seller",
              "type": "address"
            },
            {
              "internalType": "address payable",
              "name": "owner",
              "type": "address"
            },
            {
              "internalType": "uint256",
              "name": "price",
              "type": "uint256"
            },
            {
              "internalType": "uint256",
              "name": "amount",
              "type": "uint256"
            },
            {
              "internalType": "uint256",
              "name": "sold",
              "type": "uint256"
            }
          ],
          "internalType": "struct OttoMarketplace.MarketItem[]",
          "name": "_items",
          "type": "tuple[]"
        }
      ],
      "stateMutability": "view",
      "type": "function"
    },
    {
      "inputs": [
        {
          "internalType": "address",
          "name": "_addr",
          "type": "address"
        },
        {
          "internalType": "uint256",
          "name": "_tokenId",
          "type": "uint256"
        },
        {
          "internalType": "string",
          "name": "_text",
          "type": "string"
        }
      ],
      "name": "hash",
      "outputs": [
        {
          "internalType": "bytes32",
          "name": "",
          "type": "bytes32"
        }
      ],
      "stateMutability": "pure",
      "type": "function"
    },
    {
      "inputs": [
        {
          "internalType": "address",
          "name": "account",
          "type": "address"
        },
        {
          "internalType": "address",
          "name": "operator",
          "type": "address"
        }
      ],
      "name": "isApprovedForAll",
      "outputs": [
        {
          "internalType": "bool",
          "name": "",
          "type": "bool"
        }
      ],
      "stateMutability": "view",
      "type": "function"
    },
    {
      "inputs": [
        {
          "internalType": "address",
          "name": "",
          "type": "address"
        },
        {
          "internalType": "address",
          "name": "",
          "type": "address"
        },
        {
          "internalType": "uint256[]",
          "name": "",
          "type": "uint256[]"
        },
        {
          "internalType": "uint256[]",
          "name": "",
          "type": "uint256[]"
        },
        {
          "internalType": "bytes",
          "name": "",
          "type": "bytes"
        }
      ],
      "name": "onERC1155BatchReceived",
      "outputs": [
        {
          "internalType": "bytes4",
          "name": "",
          "type": "bytes4"
        }
      ],
      "stateMutability": "pure",
      "type": "function"
    },
    {
      "inputs": [
        {
          "internalType": "address",
          "name": "",
          "type": "address"
        },
        {
          "internalType": "address",
          "name": "",
          "type": "address"
        },
        {
          "internalType": "uint256",
          "name": "",
          "type": "uint256"
        },
        {
          "internalType": "uint256",
          "name": "",
          "type": "uint256"
        },
        {
          "internalType": "bytes",
          "name": "",
          "type": "bytes"
        }
      ],
      "name": "onERC1155Received",
      "outputs": [
        {
          "internalType": "bytes4",
          "name": "",
          "type": "bytes4"
        }
      ],
      "stateMutability": "pure",
      "type": "function"
    },
    {
      "inputs": [],
      "name": "owner",
      "outputs": [
        {
          "internalType": "address",
          "name": "",
          "type": "address"
        }
      ],
      "stateMutability": "view",
      "type": "function"
    },
    {
      "inputs": [],
      "name": "renounceOwnership",
      "outputs": [],
      "stateMutability": "nonpayable",
      "type": "function"
    },
    {
      "inputs": [
        {
          "internalType": "bytes32",
          "name": "_tokenSeller",
          "type": "bytes32"
        },
        {
          "internalType": "string",
          "name": "_tokenURI",
          "type": "string"
        },
        {
          "internalType": "uint256",
          "name": "_price",
          "type": "uint256"
        }
      ],
      "name": "resellToken",
      "outputs": [],
      "stateMutability": "payable",
      "type": "function"
    },
    {
      "inputs": [
        {
          "internalType": "address",
          "name": "from",
          "type": "address"
        },
        {
          "internalType": "address",
          "name": "to",
          "type": "address"
        },
        {
          "internalType": "uint256[]",
          "name": "ids",
          "type": "uint256[]"
        },
        {
          "internalType": "uint256[]",
          "name": "amounts",
          "type": "uint256[]"
        },
        {
          "internalType": "bytes",
          "name": "data",
          "type": "bytes"
        }
      ],
      "name": "safeBatchTransferFrom",
      "outputs": [],
      "stateMutability": "nonpayable",
      "type": "function"
    },
    {
      "inputs": [
        {
          "internalType": "address",
          "name": "from",
          "type": "address"
        },
        {
          "internalType": "address",
          "name": "to",
          "type": "address"
        },
        {
          "internalType": "uint256",
          "name": "id",
          "type": "uint256"
        },
        {
          "internalType": "uint256",
          "name": "amount",
          "type": "uint256"
        },
        {
          "internalType": "bytes",
          "name": "data",
          "type": "bytes"
        }
      ],
      "name": "safeTransferFrom",
      "outputs": [],
      "stateMutability": "nonpayable",
      "type": "function"
    },
    {
      "inputs": [
        {
          "internalType": "address",
          "name": "operator",
          "type": "address"
        },
        {
          "internalType": "bool",
          "name": "approved",
          "type": "bool"
        }
      ],
      "name": "setApprovalForAll",
      "outputs": [],
      "stateMutability": "nonpayable",
      "type": "function"
    },
    {
      "inputs": [
        {
          "internalType": "bytes4",
          "name": "interfaceId",
          "type": "bytes4"
        }
      ],
      "name": "supportsInterface",
      "outputs": [
        {
          "internalType": "bool",
          "name": "",
          "type": "bool"
        }
      ],
      "stateMutability": "view",
      "type": "function"
    },
    {
      "inputs": [
        {
          "internalType": "bytes32",
          "name": "_tokenSeller",
          "type": "bytes32"
        }
      ],
      "name": "tokenURI",
      "outputs": [
        {
          "internalType": "string",
          "name": "",
          "type": "string"
        }
      ],
      "stateMutability": "view",
      "type": "function"
    },
    {
      "inputs": [
        {
          "internalType": "address",
          "name": "newOwner",
          "type": "address"
        }
      ],
      "name": "transferOwnership",
      "outputs": [],
      "stateMutability": "nonpayable",
      "type": "function"
    },
    {
      "inputs": [
        {
          "internalType": "uint256",
          "name": "",
          "type": "uint256"
        }
      ],
      "name": "uri",
      "outputs": [
        {
          "internalType": "string",
          "name": "",
          "type": "string"
        }
      ],
      "stateMutability": "view",
      "type": "function"
    }
  ],
  "bytecode": "0x60806040523480156200001157600080fd5b50604051620076743803806200767483398181016040528101906200003791906200029e565b6040518060400160405280601081526020017f4f74746f204d61726b6574706c616365000000000000000000000000000000008152506200008d62000081620000ef60201b60201c565b620000f760201b60201c565b6200009e81620001bb60201b60201c565b50600160048190555080600560006101000a81548173ffffffffffffffffffffffffffffffffffffffff021916908373ffffffffffffffffffffffffffffffffffffffff160217905550506200037d565b600033905090565b60008060009054906101000a900473ffffffffffffffffffffffffffffffffffffffff169050816000806101000a81548173ffffffffffffffffffffffffffffffffffffffff021916908373ffffffffffffffffffffffffffffffffffffffff1602179055508173ffffffffffffffffffffffffffffffffffffffff168173ffffffffffffffffffffffffffffffffffffffff167f8be0079c531659141344cd1fd0a4f28419497f9722a3daafe3b4186f6b6457e060405160405180910390a35050565b8060039080519060200190620001d3929190620001d7565b5050565b828054620001e590620002fe565b90600052602060002090601f01602090048101928262000209576000855562000255565b82601f106200022457805160ff191683800117855562000255565b8280016001018555821562000255579182015b828111156200025457825182559160200191906001019062000237565b5b50905062000264919062000268565b5090565b5b808211156200028357600081600090555060010162000269565b5090565b600081519050620002988162000363565b92915050565b600060208284031215620002b157600080fd5b6000620002c18482850162000287565b91505092915050565b6000620002d782620002de565b9050919050565b600073ffffffffffffffffffffffffffffffffffffffff82169050919050565b600060028204905060018216806200031757607f821691505b602082108114156200032e576200032d62000334565b5b50919050565b7f4e487b7100000000000000000000000000000000000000000000000000000000600052602260045260246000fd5b6200036e81620002ca565b81146200037a57600080fd5b50565b6172e7806200038d6000396000f3fe60806040526004361061013f5760003560e01c8063715018a6116100b6578063bec2a7c51161006f578063bec2a7c514610467578063e985e9c514610497578063f23a6e61146104d4578063f242432a14610511578063f2fde38b1461053a578063fbf4f144146105635761013f565b8063715018a6146103665780637f5842311461037d5780638da5cb5b14610399578063a22cb465146103c4578063afbb8d51146103ed578063bc197c811461042a5761013f565b806320879c191161010857806320879c191461024257806329aa3a421461027f5780632eb2c2d6146102aa5780634ba1d6aa146102d35780634e1273f4146102fe578063629cb2e41461033b5761013f565b8062fdd58e1461014457806301ffc9a7146101815780630e89341c146101be57806312e85585146101fb5780631c36eabb14610226575b600080fd5b34801561015057600080fd5b5061016b600480360381019061016691906151fb565b61058e565b60405161017891906164f4565b60405180910390f35b34801561018d57600080fd5b506101a860048036038101906101a3919061551c565b610658565b6040516101b59190616029565b60405180910390f35b3480156101ca57600080fd5b506101e560048036038101906101e09190615668565b61066a565b6040516101f291906161b2565b60405180910390f35b34801561020757600080fd5b506102106106fe565b60405161021d91906164f4565b60405180910390f35b610240600480360381019061023b9190615479565b6107a5565b005b34801561024e57600080fd5b5061026960048036038101906102649190615237565b610c0c565b6040516102769190616044565b60405180910390f35b34801561028b57600080fd5b50610294610c42565b6040516102a19190615fae565b60405180910390f35b3480156102b657600080fd5b506102d160048036038101906102cc9190614fdf565b61101d565b005b3480156102df57600080fd5b506102e86110be565b6040516102f59190615fae565b60405180910390f35b34801561030a57600080fd5b506103256004803603810190610320919061529e565b61148e565b6040516103329190615fd0565b60405180910390f35b34801561034757600080fd5b5061035061163f565b60405161035d9190615fae565b60405180910390f35b34801561037257600080fd5b5061037b611a1a565b005b610397600480360381019061039291906154e0565b611a2e565b005b3480156103a557600080fd5b506103ae6122ed565b6040516103bb9190615e79565b60405180910390f35b3480156103d057600080fd5b506103eb60048036038101906103e691906151bf565b612316565b005b3480156103f957600080fd5b50610414600480360381019061040f9190615450565b61232c565b60405161042191906161b2565b60405180910390f35b34801561043657600080fd5b50610451600480360381019061044c9190614f13565b6123e5565b60405161045e9190616197565b60405180910390f35b610481600480360381019061047c91906155af565b6123fd565b60405161048e9190616044565b60405180910390f35b3480156104a357600080fd5b506104be60048036038101906104b99190614ed7565b612611565b6040516104cb9190616029565b60405180910390f35b3480156104e057600080fd5b506104fb60048036038101906104f6919061509e565b6126a5565b6040516105089190616197565b60405180910390f35b34801561051d57600080fd5b5061053860048036038101906105339190615130565b6126bb565b005b34801561054657600080fd5b50610561600480360381019061055c9190614e85565b61275c565b005b34801561056f57600080fd5b506105786127e0565b6040516105859190615fae565b60405180910390f35b60008073ffffffffffffffffffffffffffffffffffffffff168373ffffffffffffffffffffffffffffffffffffffff1614156105ff576040517f08c379a00000000000000000000000000000000000000000000000000000000081526004016105f6906162b4565b60405180910390fd5b6001600083815260200190815260200160002060008473ffffffffffffffffffffffffffffffffffffffff1673ffffffffffffffffffffffffffffffffffffffff16815260200190815260200160002054905092915050565b600061066382612bbb565b9050919050565b6060600380546106799061690d565b80601f01602080910402602001604051908101604052809291908181526020018280546106a59061690d565b80156106f25780601f106106c7576101008083540402835291602001916106f2565b820191906000526020600020905b8154815290600101906020018083116106d557829003601f168201915b50505050509050919050565b6000600560009054906101000a900473ffffffffffffffffffffffffffffffffffffffff1673ffffffffffffffffffffffffffffffffffffffff166312e855856040518163ffffffff1660e01b815260040160206040518083038186803b15801561076857600080fd5b505afa15801561077c573d6000803e3d6000fd5b505050506040513d601f19601f820116820180604052508101906107a09190615691565b905090565b600080600080600080600560009054906101000a900473ffffffffffffffffffffffffffffffffffffffff1673ffffffffffffffffffffffffffffffffffffffff16638184a48c8a6040518263ffffffff1660e01b81526004016108099190616044565b60c06040518083038186803b15801561082157600080fd5b505afa158015610835573d6000803e3d6000fd5b505050506040513d601f19601f8201168201806040525081019061085991906156ba565b9550955095509550955095503373ffffffffffffffffffffffffffffffffffffffff168473ffffffffffffffffffffffffffffffffffffffff16146108d3576040517f08c379a00000000000000000000000000000000000000000000000000000000081526004016108ca90616354565b60405180910390fd5b60006108df338861058e565b1015610920576040517f08c379a0000000000000000000000000000000000000000000000000000000008152600401610917906163f4565b60405180910390fd5b600560009054906101000a900473ffffffffffffffffffffffffffffffffffffffff1673ffffffffffffffffffffffffffffffffffffffff166312e855856040518163ffffffff1660e01b815260040160206040518083038186803b15801561098857600080fd5b505afa15801561099c573d6000803e3d6000fd5b505050506040513d601f19601f820116820180604052508101906109c09190615691565b341015610a02576040517f08c379a00000000000000000000000000000000000000000000000000000000081526004016109f990616474565b60405180910390fd5b6000829050879350339550309450600560009054906101000a900473ffffffffffffffffffffffffffffffffffffffff1673ffffffffffffffffffffffffffffffffffffffff1663d8c7c9df8b600560009054906101000a900473ffffffffffffffffffffffffffffffffffffffff1673ffffffffffffffffffffffffffffffffffffffff16638aebfecd8e8c8c8c8c8c8c6040518863ffffffff1660e01b8152600401610ab69796959493929190616128565b60e06040518083038186803b158015610ace57600080fd5b505afa158015610ae2573d6000803e3d6000fd5b505050506040513d601f19601f82011682018060405250810190610b069190615616565b6040518363ffffffff1660e01b8152600401610b2392919061608f565b600060405180830381600087803b158015610b3d57600080fd5b505af1158015610b51573d6000803e3d6000fd5b50505050600560009054906101000a900473ffffffffffffffffffffffffffffffffffffffff1673ffffffffffffffffffffffffffffffffffffffff166349b345c18b8b6040518363ffffffff1660e01b8152600401610bb292919061605f565b600060405180830381600087803b158015610bcc57600080fd5b505af1158015610be0573d6000803e3d6000fd5b50505050610c003330898460405180602001604052806000815250612c9d565b50505050505050505050565b6000838383604051602001610c2393929190615e40565b6040516020818303038152906040528051906020012090509392505050565b60606000806000806000806000600560009054906101000a900473ffffffffffffffffffffffffffffffffffffffff1673ffffffffffffffffffffffffffffffffffffffff16631f10e57a306040518263ffffffff1660e01b8152600401610caa9190615e79565b60006040518083038186803b158015610cc257600080fd5b505afa158015610cd6573d6000803e3d6000fd5b505050506040513d6000823e3d601f19601f82011682018060405250810190610cff919061530a565b9650965096509650965096509650865167ffffffffffffffff811115610d4e577f4e487b7100000000000000000000000000000000000000000000000000000000600052604160045260246000fd5b604051908082528060200260200182016040528015610d8757816020015b610d746147c8565b815260200190600190039081610d6c5790505b50975060005b87518110156110125760006040518060e001604052808a8481518110610ddc577f4e487b7100000000000000000000000000000000000000000000000000000000600052603260045260246000fd5b60200260200101518152602001898481518110610e22577f4e487b7100000000000000000000000000000000000000000000000000000000600052603260045260246000fd5b60200260200101518152602001888481518110610e68577f4e487b7100000000000000000000000000000000000000000000000000000000600052603260045260246000fd5b602002602001015173ffffffffffffffffffffffffffffffffffffffff168152602001878481518110610ec4577f4e487b7100000000000000000000000000000000000000000000000000000000600052603260045260246000fd5b602002602001015173ffffffffffffffffffffffffffffffffffffffff168152602001868481518110610f20577f4e487b7100000000000000000000000000000000000000000000000000000000600052603260045260246000fd5b60200260200101518152602001858481518110610f66577f4e487b7100000000000000000000000000000000000000000000000000000000600052603260045260246000fd5b60200260200101518152602001848481518110610fac577f4e487b7100000000000000000000000000000000000000000000000000000000600052603260045260246000fd5b60200260200101518152509050808a8381518110610ff3577f4e487b7100000000000000000000000000000000000000000000000000000000600052603260045260246000fd5b602002602001018190525050808061100a90616970565b915050610d8d565b505050505050505090565b611025612f3c565b73ffffffffffffffffffffffffffffffffffffffff168573ffffffffffffffffffffffffffffffffffffffff16148061106b575061106a85611065612f3c565b612611565b5b6110aa576040517f08c379a00000000000000000000000000000000000000000000000000000000081526004016110a190616214565b60405180910390fd5b6110b78585858585612f44565b5050505050565b60606000806000806000806000600560009054906101000a900473ffffffffffffffffffffffffffffffffffffffff1673ffffffffffffffffffffffffffffffffffffffff166397598cc36040518163ffffffff1660e01b815260040160006040518083038186803b15801561113357600080fd5b505afa158015611147573d6000803e3d6000fd5b505050506040513d6000823e3d601f19601f82011682018060405250810190611170919061530a565b9650965096509650965096509650865167ffffffffffffffff8111156111bf577f4e487b7100000000000000000000000000000000000000000000000000000000600052604160045260246000fd5b6040519080825280602002602001820160405280156111f857816020015b6111e56147c8565b8152602001906001900390816111dd5790505b50975060005b87518110156114835760006040518060e001604052808a848151811061124d577f4e487b7100000000000000000000000000000000000000000000000000000000600052603260045260246000fd5b60200260200101518152602001898481518110611293577f4e487b7100000000000000000000000000000000000000000000000000000000600052603260045260246000fd5b602002602001015181526020018884815181106112d9577f4e487b7100000000000000000000000000000000000000000000000000000000600052603260045260246000fd5b602002602001015173ffffffffffffffffffffffffffffffffffffffff168152602001878481518110611335577f4e487b7100000000000000000000000000000000000000000000000000000000600052603260045260246000fd5b602002602001015173ffffffffffffffffffffffffffffffffffffffff168152602001868481518110611391577f4e487b7100000000000000000000000000000000000000000000000000000000600052603260045260246000fd5b602002602001015181526020018584815181106113d7577f4e487b7100000000000000000000000000000000000000000000000000000000600052603260045260246000fd5b6020026020010151815260200184848151811061141d577f4e487b7100000000000000000000000000000000000000000000000000000000600052603260045260246000fd5b60200260200101518152509050808a8381518110611464577f4e487b7100000000000000000000000000000000000000000000000000000000600052603260045260246000fd5b602002602001018190525050808061147b90616970565b9150506111fe565b505050505050505090565b606081518351146114d4576040517f08c379a00000000000000000000000000000000000000000000000000000000081526004016114cb90616434565b60405180910390fd5b6000835167ffffffffffffffff811115611517577f4e487b7100000000000000000000000000000000000000000000000000000000600052604160045260246000fd5b6040519080825280602002602001820160405280156115455781602001602082028036833780820191505090505b50905060005b8451811015611634576115de858281518110611590577f4e487b7100000000000000000000000000000000000000000000000000000000600052603260045260246000fd5b60200260200101518583815181106115d1577f4e487b7100000000000000000000000000000000000000000000000000000000600052603260045260246000fd5b602002602001015161058e565b828281518110611617577f4e487b7100000000000000000000000000000000000000000000000000000000600052603260045260246000fd5b6020026020010181815250508061162d90616970565b905061154b565b508091505092915050565b60606000806000806000806000600560009054906101000a900473ffffffffffffffffffffffffffffffffffffffff1673ffffffffffffffffffffffffffffffffffffffff166310afee1e336040518263ffffffff1660e01b81526004016116a79190615e79565b60006040518083038186803b1580156116bf57600080fd5b505afa1580156116d3573d6000803e3d6000fd5b505050506040513d6000823e3d601f19601f820116820180604052508101906116fc919061530a565b9650965096509650965096509650865167ffffffffffffffff81111561174b577f4e487b7100000000000000000000000000000000000000000000000000000000600052604160045260246000fd5b60405190808252806020026020018201604052801561178457816020015b6117716147c8565b8152602001906001900390816117695790505b50975060005b8751811015611a0f5760006040518060e001604052808a84815181106117d9577f4e487b7100000000000000000000000000000000000000000000000000000000600052603260045260246000fd5b6020026020010151815260200189848151811061181f577f4e487b7100000000000000000000000000000000000000000000000000000000600052603260045260246000fd5b60200260200101518152602001888481518110611865577f4e487b7100000000000000000000000000000000000000000000000000000000600052603260045260246000fd5b602002602001015173ffffffffffffffffffffffffffffffffffffffff1681526020018784815181106118c1577f4e487b7100000000000000000000000000000000000000000000000000000000600052603260045260246000fd5b602002602001015173ffffffffffffffffffffffffffffffffffffffff16815260200186848151811061191d577f4e487b7100000000000000000000000000000000000000000000000000000000600052603260045260246000fd5b60200260200101518152602001858481518110611963577f4e487b7100000000000000000000000000000000000000000000000000000000600052603260045260246000fd5b602002602001015181526020018484815181106119a9577f4e487b7100000000000000000000000000000000000000000000000000000000600052603260045260246000fd5b60200260200101518152509050808a83815181106119f0577f4e487b7100000000000000000000000000000000000000000000000000000000600052603260045260246000fd5b6020026020010181905250508080611a0790616970565b91505061178a565b505050505050505090565b611a226132b5565b611a2c6000613333565b565b60026004541415611a74576040517f08c379a0000000000000000000000000000000000000000000000000000000008152600401611a6b906164b4565b60405180910390fd5b600260048190555060008111611abf576040517f08c379a0000000000000000000000000000000000000000000000000000000008152600401611ab6906161f4565b60405180910390fd5b600080600080600080600560009054906101000a900473ffffffffffffffffffffffffffffffffffffffff1673ffffffffffffffffffffffffffffffffffffffff16638184a48c896040518263ffffffff1660e01b8152600401611b239190616044565b60c06040518083038186803b158015611b3b57600080fd5b505afa158015611b4f573d6000803e3d6000fd5b505050506040513d601f19601f82011682018060405250810190611b7391906156ba565b95509550955095509550955060008611611bc2576040517f08c379a0000000000000000000000000000000000000000000000000000000008152600401611bb990616274565b60405180910390fd5b8082611bce91906167d9565b871115611c10576040517f08c379a0000000000000000000000000000000000000000000000000000000008152600401611c07906163d4565b60405180910390fd5b8683611c1c919061677f565b3414611c5d576040517f08c379a0000000000000000000000000000000000000000000000000000000008152600401611c5490616314565b60405180910390fd5b6000600560009054906101000a900473ffffffffffffffffffffffffffffffffffffffff1673ffffffffffffffffffffffffffffffffffffffff1663b5cddab86040518163ffffffff1660e01b815260040160206040518083038186803b158015611cc757600080fd5b505afa158015611cdb573d6000803e3d6000fd5b505050506040513d601f19601f82011682018060405250810190611cff919061563f565b6fffffffffffffffffffffffffffffffff16600560009054906101000a900473ffffffffffffffffffffffffffffffffffffffff1673ffffffffffffffffffffffffffffffffffffffff1663d2c00fa06040518163ffffffff1660e01b815260040160206040518083038186803b158015611d7957600080fd5b505afa158015611d8d573d6000803e3d6000fd5b505050506040513d601f19601f82011682018060405250810190611db1919061563f565b6fffffffffffffffffffffffffffffffff1634611dce919061677f565b611dd8919061674e565b90503073ffffffffffffffffffffffffffffffffffffffff16638da5cb5b6040518163ffffffff1660e01b815260040160206040518083038186803b158015611e2057600080fd5b505afa158015611e34573d6000803e3d6000fd5b505050506040513d601f19601f82011682018060405250810190611e589190614eae565b73ffffffffffffffffffffffffffffffffffffffff166108fc600560009054906101000a900473ffffffffffffffffffffffffffffffffffffffff1673ffffffffffffffffffffffffffffffffffffffff166312e855856040518163ffffffff1660e01b815260040160206040518083038186803b158015611ed957600080fd5b505afa158015611eed573d6000803e3d6000fd5b505050506040513d601f19601f82011682018060405250810190611f119190615691565b9081150290604051600060405180830381858888f19350505050158015611f3c573d6000803e3d6000fd5b50600560009054906101000a900473ffffffffffffffffffffffffffffffffffffffff1673ffffffffffffffffffffffffffffffffffffffff1663f37dca786040518163ffffffff1660e01b815260040160206040518083038186803b158015611fa557600080fd5b505afa158015611fb9573d6000803e3d6000fd5b505050506040513d601f19601f82011682018060405250810190611fdd9190614eae565b73ffffffffffffffffffffffffffffffffffffffff166108fc829081150290604051600060405180830381858888f19350505050158015612022573d6000803e3d6000fd5b508573ffffffffffffffffffffffffffffffffffffffff16813461204691906167d9565b611388905050506000612069338960405180602001604052806000815250610c0c565b9050888361207791906166f8565b9250612083818a6133f7565b612094576120938a82878c61377a565b5b3073ffffffffffffffffffffffffffffffffffffffff1663f242432a30338b8d6040518563ffffffff1660e01b81526004016120d39493929190615f56565b600060405180830381600087803b1580156120ed57600080fd5b505af1158015612101573d6000803e3d6000fd5b50505050828414156121945760009550600560009054906101000a900473ffffffffffffffffffffffffffffffffffffffff1673ffffffffffffffffffffffffffffffffffffffff16636b6ddcee6040518163ffffffff1660e01b8152600401600060405180830381600087803b15801561217b57600080fd5b505af115801561218f573d6000803e3d6000fd5b505050505b600560009054906101000a900473ffffffffffffffffffffffffffffffffffffffff1673ffffffffffffffffffffffffffffffffffffffff1663d8c7c9df8b600560009054906101000a900473ffffffffffffffffffffffffffffffffffffffff1673ffffffffffffffffffffffffffffffffffffffff16638aebfecd8e8d8d8d8d8d8d6040518863ffffffff1660e01b815260040161223a9796959493929190616128565b60e06040518083038186803b15801561225257600080fd5b505afa158015612266573d6000803e3d6000fd5b505050506040513d601f19601f8201168201806040525081019061228a9190615616565b6040518363ffffffff1660e01b81526004016122a792919061608f565b600060405180830381600087803b1580156122c157600080fd5b505af11580156122d5573d6000803e3d6000fd5b50505050505050505050505060016004819055505050565b60008060009054906101000a900473ffffffffffffffffffffffffffffffffffffffff16905090565b612328612321612f3c565b8383613d08565b5050565b6060600560009054906101000a900473ffffffffffffffffffffffffffffffffffffffff1673ffffffffffffffffffffffffffffffffffffffff1663daf8d64c836040518263ffffffff1660e01b81526004016123899190616044565b60006040518083038186803b1580156123a157600080fd5b505afa1580156123b5573d6000803e3d6000fd5b505050506040513d6000823e3d601f19601f820116820180604052508101906123de919061556e565b9050919050565b600063bc197c8160e01b905098975050505050505050565b600080600560009054906101000a900473ffffffffffffffffffffffffffffffffffffffff1673ffffffffffffffffffffffffffffffffffffffff166375794a3c6040518163ffffffff1660e01b8152600401602060405180830381600087803b15801561246a57600080fd5b505af115801561247e573d6000803e3d6000fd5b505050506040513d601f19601f820116820180604052508101906124a29190615691565b905060006124c0338360405180602001604052806000815250610c0c565b90506124dd30838660405180602001604052806000815250613e75565b600560009054906101000a900473ffffffffffffffffffffffffffffffffffffffff1673ffffffffffffffffffffffffffffffffffffffff1663efd7c6b6826040518263ffffffff1660e01b81526004016125389190616044565b600060405180830381600087803b15801561255257600080fd5b505af1158015612566573d6000803e3d6000fd5b50505050600560009054906101000a900473ffffffffffffffffffffffffffffffffffffffff1673ffffffffffffffffffffffffffffffffffffffff166349b345c182886040518363ffffffff1660e01b81526004016125c792919061605f565b600060405180830381600087803b1580156125e157600080fd5b505af11580156125f5573d6000803e3d6000fd5b5050505061260581838787614027565b80925050509392505050565b6000600260008473ffffffffffffffffffffffffffffffffffffffff1673ffffffffffffffffffffffffffffffffffffffff16815260200190815260200160002060008373ffffffffffffffffffffffffffffffffffffffff1673ffffffffffffffffffffffffffffffffffffffff16815260200190815260200160002060009054906101000a900460ff16905092915050565b600063f23a6e6160e01b90509695505050505050565b6126c3612f3c565b73ffffffffffffffffffffffffffffffffffffffff168573ffffffffffffffffffffffffffffffffffffffff161480612709575061270885612703612f3c565b612611565b5b612748576040517f08c379a000000000000000000000000000000000000000000000000000000000815260040161273f90616214565b60405180910390fd5b6127558585858585612c9d565b5050505050565b6127646132b5565b600073ffffffffffffffffffffffffffffffffffffffff168173ffffffffffffffffffffffffffffffffffffffff1614156127d4576040517f08c379a00000000000000000000000000000000000000000000000000000000081526004016127cb90616254565b60405180910390fd5b6127dd81613333565b50565b60606000806000806000806000600560009054906101000a900473ffffffffffffffffffffffffffffffffffffffff1673ffffffffffffffffffffffffffffffffffffffff16638a410b1a336040518263ffffffff1660e01b81526004016128489190615e79565b60006040518083038186803b15801561286057600080fd5b505afa158015612874573d6000803e3d6000fd5b505050506040513d6000823e3d601f19601f8201168201806040525081019061289d919061530a565b9650965096509650965096509650865167ffffffffffffffff8111156128ec577f4e487b7100000000000000000000000000000000000000000000000000000000600052604160045260246000fd5b60405190808252806020026020018201604052801561292557816020015b6129126147c8565b81526020019060019003908161290a5790505b50975060005b8751811015612bb05760006040518060e001604052808a848151811061297a577f4e487b7100000000000000000000000000000000000000000000000000000000600052603260045260246000fd5b602002602001015181526020018984815181106129c0577f4e487b7100000000000000000000000000000000000000000000000000000000600052603260045260246000fd5b60200260200101518152602001888481518110612a06577f4e487b7100000000000000000000000000000000000000000000000000000000600052603260045260246000fd5b602002602001015173ffffffffffffffffffffffffffffffffffffffff168152602001878481518110612a62577f4e487b7100000000000000000000000000000000000000000000000000000000600052603260045260246000fd5b602002602001015173ffffffffffffffffffffffffffffffffffffffff168152602001868481518110612abe577f4e487b7100000000000000000000000000000000000000000000000000000000600052603260045260246000fd5b60200260200101518152602001858481518110612b04577f4e487b7100000000000000000000000000000000000000000000000000000000600052603260045260246000fd5b60200260200101518152602001848481518110612b4a577f4e487b7100000000000000000000000000000000000000000000000000000000600052603260045260246000fd5b60200260200101518152509050808a8381518110612b91577f4e487b7100000000000000000000000000000000000000000000000000000000600052603260045260246000fd5b6020026020010181905250508080612ba890616970565b91505061292b565b505050505050505090565b60007fd9b67a26000000000000000000000000000000000000000000000000000000007bffffffffffffffffffffffffffffffffffffffffffffffffffffffff1916827bffffffffffffffffffffffffffffffffffffffffffffffffffffffff19161480612c8657507f0e89341c000000000000000000000000000000000000000000000000000000007bffffffffffffffffffffffffffffffffffffffffffffffffffffffff1916827bffffffffffffffffffffffffffffffffffffffffffffffffffffffff1916145b80612c965750612c9582614297565b5b9050919050565b600073ffffffffffffffffffffffffffffffffffffffff168473ffffffffffffffffffffffffffffffffffffffff161415612d0d576040517f08c379a0000000000000000000000000000000000000000000000000000000008152600401612d04906162f4565b60405180910390fd5b6000612d17612f3c565b90506000612d2485614301565b90506000612d3185614301565b9050612d418389898585896143c7565b60006001600088815260200190815260200160002060008a73ffffffffffffffffffffffffffffffffffffffff1673ffffffffffffffffffffffffffffffffffffffff16815260200190815260200160002054905085811015612dd9576040517f08c379a0000000000000000000000000000000000000000000000000000000008152600401612dd090616334565b60405180910390fd5b8581036001600089815260200190815260200160002060008b73ffffffffffffffffffffffffffffffffffffffff1673ffffffffffffffffffffffffffffffffffffffff16815260200190815260200160002081905550856001600089815260200190815260200160002060008a73ffffffffffffffffffffffffffffffffffffffff1673ffffffffffffffffffffffffffffffffffffffff1681526020019081526020016000206000828254612e9091906166f8565b925050819055508773ffffffffffffffffffffffffffffffffffffffff168973ffffffffffffffffffffffffffffffffffffffff168573ffffffffffffffffffffffffffffffffffffffff167fc3d58168c5ae7397731d063d5bbf3d657854427343f4c083240f7aacaa2d0f628a8a604051612f0d92919061650f565b60405180910390a4612f23848a8a86868a6143cf565b612f31848a8a8a8a8a6143d7565b505050505050505050565b600033905090565b8151835114612f88576040517f08c379a0000000000000000000000000000000000000000000000000000000008152600401612f7f90616454565b60405180910390fd5b600073ffffffffffffffffffffffffffffffffffffffff168473ffffffffffffffffffffffffffffffffffffffff161415612ff8576040517f08c379a0000000000000000000000000000000000000000000000000000000008152600401612fef906162f4565b60405180910390fd5b6000613002612f3c565b90506130128187878787876143c7565b60005b8451811015613212576000858281518110613059577f4e487b7100000000000000000000000000000000000000000000000000000000600052603260045260246000fd5b60200260200101519050600085838151811061309e577f4e487b7100000000000000000000000000000000000000000000000000000000600052603260045260246000fd5b6020026020010151905060006001600084815260200190815260200160002060008b73ffffffffffffffffffffffffffffffffffffffff1673ffffffffffffffffffffffffffffffffffffffff16815260200190815260200160002054905081811015613140576040517f08c379a000000000000000000000000000000000000000000000000000000000815260040161313790616334565b60405180910390fd5b8181036001600085815260200190815260200160002060008c73ffffffffffffffffffffffffffffffffffffffff1673ffffffffffffffffffffffffffffffffffffffff16815260200190815260200160002081905550816001600085815260200190815260200160002060008b73ffffffffffffffffffffffffffffffffffffffff1673ffffffffffffffffffffffffffffffffffffffff16815260200190815260200160002060008282546131f791906166f8565b925050819055505050508061320b90616970565b9050613015565b508473ffffffffffffffffffffffffffffffffffffffff168673ffffffffffffffffffffffffffffffffffffffff168273ffffffffffffffffffffffffffffffffffffffff167f4a39dc06d4c0dbc64b70af90fd698a233a518aa5d07e595d983b8c0526c8f7fb8787604051613289929190615ff2565b60405180910390a461329f8187878787876143cf565b6132ad8187878787876145be565b505050505050565b6132bd612f3c565b73ffffffffffffffffffffffffffffffffffffffff166132db6122ed565b73ffffffffffffffffffffffffffffffffffffffff1614613331576040517f08c379a000000000000000000000000000000000000000000000000000000000815260040161332890616374565b60405180910390fd5b565b60008060009054906101000a900473ffffffffffffffffffffffffffffffffffffffff169050816000806101000a81548173ffffffffffffffffffffffffffffffffffffffff021916908373ffffffffffffffffffffffffffffffffffffffff1602179055508173ffffffffffffffffffffffffffffffffffffffff168173ffffffffffffffffffffffffffffffffffffffff167f8be0079c531659141344cd1fd0a4f28419497f9722a3daafe3b4186f6b6457e060405160405180910390a35050565b6000806000806000806000600560009054906101000a900473ffffffffffffffffffffffffffffffffffffffff1673ffffffffffffffffffffffffffffffffffffffff16638184a48c8a6040518263ffffffff1660e01b815260040161345d9190616044565b60c06040518083038186803b15801561347557600080fd5b505afa158015613489573d6000803e3d6000fd5b505050506040513d601f19601f820116820180604052508101906134ad91906156ba565b95509550955095509550955060008614156134d15760009650505050505050613774565b87826134dd91906166f8565b915033935060009450600560009054906101000a900473ffffffffffffffffffffffffffffffffffffffff1673ffffffffffffffffffffffffffffffffffffffff1663d8c7c9df8a600560009054906101000a900473ffffffffffffffffffffffffffffffffffffffff1673ffffffffffffffffffffffffffffffffffffffff16638aebfecd8d8b8b8b8b8b8b6040518863ffffffff1660e01b815260040161358c9796959493929190616128565b60e06040518083038186803b1580156135a457600080fd5b505afa1580156135b8573d6000803e3d6000fd5b505050506040513d601f19601f820116820180604052508101906135dc9190615616565b6040518363ffffffff1660e01b81526004016135f992919061608f565b600060405180830381600087803b15801561361357600080fd5b505af1158015613627573d6000803e3d6000fd5b50505050600560009054906101000a900473ffffffffffffffffffffffffffffffffffffffff1673ffffffffffffffffffffffffffffffffffffffff166349b345c18a600560009054906101000a900473ffffffffffffffffffffffffffffffffffffffff1673ffffffffffffffffffffffffffffffffffffffff1663daf8d64c8d6040518263ffffffff1660e01b81526004016136c59190616044565b60006040518083038186803b1580156136dd57600080fd5b505afa1580156136f1573d6000803e3d6000fd5b505050506040513d6000823e3d601f19601f8201168201806040525081019061371a919061556e565b6040518363ffffffff1660e01b815260040161373792919061605f565b600060405180830381600087803b15801561375157600080fd5b505af1158015613765573d6000803e3d6000fd5b50505050600196505050505050505b92915050565b600082116137bd576040517f08c379a00000000000000000000000000000000000000000000000000000000081526004016137b4906164d4565b60405180910390fd5b60008111613800576040517f08c379a00000000000000000000000000000000000000000000000000000000081526004016137f790616294565b60405180910390fd5b6000600560009054906101000a900473ffffffffffffffffffffffffffffffffffffffff1673ffffffffffffffffffffffffffffffffffffffff16638184a48c866040518263ffffffff1660e01b815260040161385d9190616044565b60c06040518083038186803b15801561387557600080fd5b505afa158015613889573d6000803e3d6000fd5b505050506040513d601f19601f820116820180604052508101906138ad91906156ba565b50505050509050600081116138f7576040517f08c379a00000000000000000000000000000000000000000000000000000000081526004016138ee906162d4565b60405180910390fd5b6000600560009054906101000a900473ffffffffffffffffffffffffffffffffffffffff1673ffffffffffffffffffffffffffffffffffffffff16638184a48c866040518263ffffffff1660e01b81526004016139549190616044565b60c06040518083038186803b15801561396c57600080fd5b505afa158015613980573d6000803e3d6000fd5b505050506040513d601f19601f820116820180604052508101906139a491906156ba565b50505050509050600081146139ee576040517f08c379a00000000000000000000000000000000000000000000000000000000081526004016139e590616394565b60405180910390fd5b600560009054906101000a900473ffffffffffffffffffffffffffffffffffffffff1673ffffffffffffffffffffffffffffffffffffffff1663efd7c6b6866040518263ffffffff1660e01b8152600401613a499190616044565b600060405180830381600087803b158015613a6357600080fd5b505af1158015613a77573d6000803e3d6000fd5b50505050600560009054906101000a900473ffffffffffffffffffffffffffffffffffffffff1673ffffffffffffffffffffffffffffffffffffffff166349b345c186600560009054906101000a900473ffffffffffffffffffffffffffffffffffffffff1673ffffffffffffffffffffffffffffffffffffffff1663daf8d64c8a6040518263ffffffff1660e01b8152600401613b159190616044565b60006040518083038186803b158015613b2d57600080fd5b505afa158015613b41573d6000803e3d6000fd5b505050506040513d6000823e3d601f19601f82011682018060405250810190613b6a919061556e565b6040518363ffffffff1660e01b8152600401613b8792919061605f565b600060405180830381600087803b158015613ba157600080fd5b505af1158015613bb5573d6000803e3d6000fd5b50505050600560009054906101000a900473ffffffffffffffffffffffffffffffffffffffff1673ffffffffffffffffffffffffffffffffffffffff1663d8c7c9df86600560009054906101000a900473ffffffffffffffffffffffffffffffffffffffff1673ffffffffffffffffffffffffffffffffffffffff16638aebfecd89876000338c8c60006040518863ffffffff1660e01b8152600401613c6197969594939291906160b9565b60e06040518083038186803b158015613c7957600080fd5b505afa158015613c8d573d6000803e3d6000fd5b505050506040513d601f19601f82011682018060405250810190613cb19190615616565b6040518363ffffffff1660e01b8152600401613cce92919061608f565b600060405180830381600087803b158015613ce857600080fd5b505af1158015613cfc573d6000803e3d6000fd5b50505050505050505050565b8173ffffffffffffffffffffffffffffffffffffffff168373ffffffffffffffffffffffffffffffffffffffff161415613d77576040517f08c379a0000000000000000000000000000000000000000000000000000000008152600401613d6e90616414565b60405180910390fd5b80600260008573ffffffffffffffffffffffffffffffffffffffff1673ffffffffffffffffffffffffffffffffffffffff16815260200190815260200160002060008473ffffffffffffffffffffffffffffffffffffffff1673ffffffffffffffffffffffffffffffffffffffff16815260200190815260200160002060006101000a81548160ff0219169083151502179055508173ffffffffffffffffffffffffffffffffffffffff168373ffffffffffffffffffffffffffffffffffffffff167f17307eab39ab6107e8899845ad3d59bd9653f200f220920489ca2b5937696c3183604051613e689190616029565b60405180910390a3505050565b600073ffffffffffffffffffffffffffffffffffffffff168473ffffffffffffffffffffffffffffffffffffffff161415613ee5576040517f08c379a0000000000000000000000000000000000000000000000000000000008152600401613edc90616494565b60405180910390fd5b6000613eef612f3c565b90506000613efc85614301565b90506000613f0985614301565b9050613f1a836000898585896143c7565b846001600088815260200190815260200160002060008973ffffffffffffffffffffffffffffffffffffffff1673ffffffffffffffffffffffffffffffffffffffff1681526020019081526020016000206000828254613f7a91906166f8565b925050819055508673ffffffffffffffffffffffffffffffffffffffff16600073ffffffffffffffffffffffffffffffffffffffff168473ffffffffffffffffffffffffffffffffffffffff167fc3d58168c5ae7397731d063d5bbf3d657854427343f4c083240f7aacaa2d0f628989604051613ff892919061650f565b60405180910390a461400f836000898585896143cf565b61401e836000898989896143d7565b50505050505050565b6000821161406a576040517f08c379a0000000000000000000000000000000000000000000000000000000008152600401614061906164d4565b60405180910390fd5b600560009054906101000a900473ffffffffffffffffffffffffffffffffffffffff1673ffffffffffffffffffffffffffffffffffffffff166312e855856040518163ffffffff1660e01b815260040160206040518083038186803b1580156140d257600080fd5b505afa1580156140e6573d6000803e3d6000fd5b505050506040513d601f19601f8201168201806040525081019061410a9190615691565b341461414b576040517f08c379a0000000000000000000000000000000000000000000000000000000008152600401614142906163b4565b60405180910390fd5b600560009054906101000a900473ffffffffffffffffffffffffffffffffffffffff1673ffffffffffffffffffffffffffffffffffffffff1663d8c7c9df85600560009054906101000a900473ffffffffffffffffffffffffffffffffffffffff1673ffffffffffffffffffffffffffffffffffffffff16638aebfecd888833308a8a60006040518863ffffffff1660e01b81526004016141f297969594939291906160b9565b60e06040518083038186803b15801561420a57600080fd5b505afa15801561421e573d6000803e3d6000fd5b505050506040513d601f19601f820116820180604052508101906142429190615616565b6040518363ffffffff1660e01b815260040161425f92919061608f565b600060405180830381600087803b15801561427957600080fd5b505af115801561428d573d6000803e3d6000fd5b5050505050505050565b60007f01ffc9a7000000000000000000000000000000000000000000000000000000007bffffffffffffffffffffffffffffffffffffffffffffffffffffffff1916827bffffffffffffffffffffffffffffffffffffffffffffffffffffffff1916149050919050565b60606000600167ffffffffffffffff811115614346577f4e487b7100000000000000000000000000000000000000000000000000000000600052604160045260246000fd5b6040519080825280602002602001820160405280156143745781602001602082028036833780820191505090505b50905082816000815181106143b2577f4e487b7100000000000000000000000000000000000000000000000000000000600052603260045260246000fd5b60200260200101818152505080915050919050565b505050505050565b505050505050565b6143f68473ffffffffffffffffffffffffffffffffffffffff166147a5565b156145b6578373ffffffffffffffffffffffffffffffffffffffff1663f23a6e6187878686866040518663ffffffff1660e01b815260040161443c959493929190615efc565b602060405180830381600087803b15801561445657600080fd5b505af192505050801561448757506040513d601f19601f820116820180604052508101906144849190615545565b60015b61452d57614493616aa3565b806308c379a014156144f057506144a861717a565b806144b357506144f2565b806040517f08c379a00000000000000000000000000000000000000000000000000000000081526004016144e791906161b2565b60405180910390fd5b505b6040517f08c379a0000000000000000000000000000000000000000000000000000000008152600401614524906161d4565b60405180910390fd5b63f23a6e6160e01b7bffffffffffffffffffffffffffffffffffffffffffffffffffffffff1916817bffffffffffffffffffffffffffffffffffffffffffffffffffffffff1916146145b4576040517f08c379a00000000000000000000000000000000000000000000000000000000081526004016145ab90616234565b60405180910390fd5b505b505050505050565b6145dd8473ffffffffffffffffffffffffffffffffffffffff166147a5565b1561479d578373ffffffffffffffffffffffffffffffffffffffff1663bc197c8187878686866040518663ffffffff1660e01b8152600401614623959493929190615e94565b602060405180830381600087803b15801561463d57600080fd5b505af192505050801561466e57506040513d601f19601f8201168201806040525081019061466b9190615545565b60015b6147145761467a616aa3565b806308c379a014156146d7575061468f61717a565b8061469a57506146d9565b806040517f08c379a00000000000000000000000000000000000000000000000000000000081526004016146ce91906161b2565b60405180910390fd5b505b6040517f08c379a000000000000000000000000000000000000000000000000000000000815260040161470b906161d4565b60405180910390fd5b63bc197c8160e01b7bffffffffffffffffffffffffffffffffffffffffffffffffffffffff1916817bffffffffffffffffffffffffffffffffffffffffffffffffffffffff19161461479b576040517f08c379a000000000000000000000000000000000000000000000000000000000815260040161479290616234565b60405180910390fd5b505b505050505050565b6000808273ffffffffffffffffffffffffffffffffffffffff163b119050919050565b6040518060e001604052806000801916815260200160008152602001600073ffffffffffffffffffffffffffffffffffffffff168152602001600073ffffffffffffffffffffffffffffffffffffffff1681526020016000815260200160008152602001600081525090565b60006148476148428461655d565b616538565b9050808382526020820190508285602086028201111561486657600080fd5b60005b85811015614896578161487c8882614b0a565b845260208401935060208301925050600181019050614869565b5050509392505050565b60006148b36148ae8461655d565b616538565b905080838252602082019050828560208602820111156148d257600080fd5b60005b8581101561490257816148e88882614b1f565b8452602084019350602083019250506001810190506148d5565b5050509392505050565b600061491f61491a84616589565b616538565b9050808382526020820190508285602086028201111561493e57600080fd5b60005b8581101561496e57816149548882614c8f565b845260208401935060208301925050600181019050614941565b5050509392505050565b600061498b614986846165b5565b616538565b905080838252602082019050828560208602820111156149aa57600080fd5b60005b858110156149da57816149c08882614e5b565b8452602084019350602083019250506001810190506149ad565b5050509392505050565b60006149f76149f2846165b5565b616538565b90508083825260208201905082856020860282011115614a1657600080fd5b60005b85811015614a465781614a2c8882614e70565b845260208401935060208301925050600181019050614a19565b5050509392505050565b6000614a63614a5e846165e1565b616538565b905082815260208101848484011115614a7b57600080fd5b614a868482856168cb565b509392505050565b6000614aa1614a9c84616612565b616538565b905082815260208101848484011115614ab957600080fd5b614ac48482856168cb565b509392505050565b6000614adf614ada84616612565b616538565b905082815260208101848484011115614af757600080fd5b614b028482856168da565b509392505050565b600081359050614b1981617210565b92915050565b600081519050614b2e81617210565b92915050565b600081519050614b4381617227565b92915050565b600082601f830112614b5a57600080fd5b8135614b6a848260208601614834565b91505092915050565b600082601f830112614b8457600080fd5b8151614b948482602086016148a0565b91505092915050565b600082601f830112614bae57600080fd5b8151614bbe84826020860161490c565b91505092915050565b60008083601f840112614bd957600080fd5b8235905067ffffffffffffffff811115614bf257600080fd5b602083019150836020820283011115614c0a57600080fd5b9250929050565b600082601f830112614c2257600080fd5b8135614c32848260208601614978565b91505092915050565b600082601f830112614c4c57600080fd5b8151614c5c8482602086016149e4565b91505092915050565b600081359050614c748161723e565b92915050565b600081359050614c8981617255565b92915050565b600081519050614c9e81617255565b92915050565b600081359050614cb38161726c565b92915050565b600081519050614cc88161726c565b92915050565b60008083601f840112614ce057600080fd5b8235905067ffffffffffffffff811115614cf957600080fd5b602083019150836001820283011115614d1157600080fd5b9250929050565b600082601f830112614d2957600080fd5b8135614d39848260208601614a50565b91505092915050565b600082601f830112614d5357600080fd5b8135614d63848260208601614a8e565b91505092915050565b600082601f830112614d7d57600080fd5b8151614d8d848260208601614acc565b91505092915050565b600060e08284031215614da857600080fd5b614db260e0616538565b90506000614dc284828501614c8f565b6000830152506020614dd684828501614e70565b6020830152506040614dea84828501614b34565b6040830152506060614dfe84828501614b34565b6060830152506080614e1284828501614e70565b60808301525060a0614e2684828501614e70565b60a08301525060c0614e3a84828501614e70565b60c08301525092915050565b600081519050614e5581617283565b92915050565b600081359050614e6a8161729a565b92915050565b600081519050614e7f8161729a565b92915050565b600060208284031215614e9757600080fd5b6000614ea584828501614b0a565b91505092915050565b600060208284031215614ec057600080fd5b6000614ece84828501614b1f565b91505092915050565b60008060408385031215614eea57600080fd5b6000614ef885828601614b0a565b9250506020614f0985828601614b0a565b9150509250929050565b60008060008060008060008060a0898b031215614f2f57600080fd5b6000614f3d8b828c01614b0a565b9850506020614f4e8b828c01614b0a565b975050604089013567ffffffffffffffff811115614f6b57600080fd5b614f778b828c01614bc7565b9650965050606089013567ffffffffffffffff811115614f9657600080fd5b614fa28b828c01614bc7565b9450945050608089013567ffffffffffffffff811115614fc157600080fd5b614fcd8b828c01614cce565b92509250509295985092959890939650565b600080600080600060a08688031215614ff757600080fd5b600061500588828901614b0a565b955050602061501688828901614b0a565b945050604086013567ffffffffffffffff81111561503357600080fd5b61503f88828901614c11565b935050606086013567ffffffffffffffff81111561505c57600080fd5b61506888828901614c11565b925050608086013567ffffffffffffffff81111561508557600080fd5b61509188828901614d18565b9150509295509295909350565b60008060008060008060a087890312156150b757600080fd5b60006150c589828a01614b0a565b96505060206150d689828a01614b0a565b95505060406150e789828a01614e5b565b94505060606150f889828a01614e5b565b935050608087013567ffffffffffffffff81111561511557600080fd5b61512189828a01614cce565b92509250509295509295509295565b600080600080600060a0868803121561514857600080fd5b600061515688828901614b0a565b955050602061516788828901614b0a565b945050604061517888828901614e5b565b935050606061518988828901614e5b565b925050608086013567ffffffffffffffff8111156151a657600080fd5b6151b288828901614d18565b9150509295509295909350565b600080604083850312156151d257600080fd5b60006151e085828601614b0a565b92505060206151f185828601614c65565b9150509250929050565b6000806040838503121561520e57600080fd5b600061521c85828601614b0a565b925050602061522d85828601614e5b565b9150509250929050565b60008060006060848603121561524c57600080fd5b600061525a86828701614b0a565b935050602061526b86828701614e5b565b925050604084013567ffffffffffffffff81111561528857600080fd5b61529486828701614d42565b9150509250925092565b600080604083850312156152b157600080fd5b600083013567ffffffffffffffff8111156152cb57600080fd5b6152d785828601614b49565b925050602083013567ffffffffffffffff8111156152f457600080fd5b61530085828601614c11565b9150509250929050565b600080600080600080600060e0888a03121561532557600080fd5b600088015167ffffffffffffffff81111561533f57600080fd5b61534b8a828b01614b9d565b975050602088015167ffffffffffffffff81111561536857600080fd5b6153748a828b01614c3b565b965050604088015167ffffffffffffffff81111561539157600080fd5b61539d8a828b01614b73565b955050606088015167ffffffffffffffff8111156153ba57600080fd5b6153c68a828b01614b73565b945050608088015167ffffffffffffffff8111156153e357600080fd5b6153ef8a828b01614c3b565b93505060a088015167ffffffffffffffff81111561540c57600080fd5b6154188a828b01614c3b565b92505060c088015167ffffffffffffffff81111561543557600080fd5b6154418a828b01614c3b565b91505092959891949750929550565b60006020828403121561546257600080fd5b600061547084828501614c7a565b91505092915050565b60008060006060848603121561548e57600080fd5b600061549c86828701614c7a565b935050602084013567ffffffffffffffff8111156154b957600080fd5b6154c586828701614d42565b92505060406154d686828701614e5b565b9150509250925092565b600080604083850312156154f357600080fd5b600061550185828601614c7a565b925050602061551285828601614e5b565b9150509250929050565b60006020828403121561552e57600080fd5b600061553c84828501614ca4565b91505092915050565b60006020828403121561555757600080fd5b600061556584828501614cb9565b91505092915050565b60006020828403121561558057600080fd5b600082015167ffffffffffffffff81111561559a57600080fd5b6155a684828501614d6c565b91505092915050565b6000806000606084860312156155c457600080fd5b600084013567ffffffffffffffff8111156155de57600080fd5b6155ea86828701614d42565b93505060206155fb86828701614e5b565b925050604061560c86828701614e5b565b9150509250925092565b600060e0828403121561562857600080fd5b600061563684828501614d96565b91505092915050565b60006020828403121561565157600080fd5b600061565f84828501614e46565b91505092915050565b60006020828403121561567a57600080fd5b600061568884828501614e5b565b91505092915050565b6000602082840312156156a357600080fd5b60006156b184828501614e70565b91505092915050565b60008060008060008060c087890312156156d357600080fd5b60006156e189828a01614e70565b96505060206156f289828a01614b34565b955050604061570389828a01614b34565b945050606061571489828a01614e70565b935050608061572589828a01614e70565b92505060a061573689828a01614e70565b9150509295509295509295565b600061574f8383615cef565b60e08301905092915050565b60006157678383615e0b565b60208301905092915050565b61577c8161681f565b82525050565b61578b8161681f565b82525050565b61579a8161680d565b82525050565b6157b16157ac8261680d565b6169b9565b82525050565b60006157c282616663565b6157cc81856166a9565b93506157d783616643565b8060005b838110156158085781516157ef8882615743565b97506157fa8361668f565b9250506001810190506157db565b5085935050505092915050565b60006158208261666e565b61582a81856166ba565b935061583583616653565b8060005b8381101561586657815161584d888261575b565b97506158588361669c565b925050600181019050615839565b5085935050505092915050565b61587c81616831565b82525050565b61588b8161683d565b82525050565b61589a8161683d565b82525050565b6158a981616847565b82525050565b60006158ba82616679565b6158c481856166cb565b93506158d48185602086016168da565b6158dd81616ac5565b840191505092915050565b6158f1816168b9565b82525050565b600061590282616684565b61590c81856166dc565b935061591c8185602086016168da565b61592581616ac5565b840191505092915050565b600061593b82616684565b61594581856166ed565b93506159558185602086016168da565b80840191505092915050565b600061596e6034836166dc565b915061597982616af0565b604082019050919050565b6000615991600f836166dc565b915061599c82616b3f565b602082019050919050565b60006159b4602f836166dc565b91506159bf82616b68565b604082019050919050565b60006159d76028836166dc565b91506159e282616bb7565b604082019050919050565b60006159fa6026836166dc565b9150615a0582616c06565b604082019050919050565b6000615a1d6010836166dc565b9150615a2882616c55565b602082019050919050565b6000615a40601d836166dc565b9150615a4b82616c7e565b602082019050919050565b6000615a63602a836166dc565b9150615a6e82616ca7565b604082019050919050565b6000615a86600e836166dc565b9150615a9182616cf6565b602082019050919050565b6000615aa96025836166dc565b9150615ab482616d1f565b604082019050919050565b6000615acc6040836166dc565b9150615ad782616d6e565b604082019050919050565b6000615aef602a836166dc565b9150615afa82616dbd565b604082019050919050565b6000615b12602a836166dc565b9150615b1d82616e0c565b604082019050919050565b6000615b356020836166dc565b9150615b4082616e5b565b602082019050919050565b6000615b58601b836166dc565b9150615b6382616e84565b602082019050919050565b6000615b7b6024836166dc565b9150615b8682616ead565b604082019050919050565b6000615b9e6000836166cb565b9150615ba982616efc565b600082019050919050565b6000615bc1602a836166dc565b9150615bcc82616eff565b604082019050919050565b6000615be46022836166dc565b9150615bef82616f4e565b604082019050919050565b6000615c076029836166dc565b9150615c1282616f9d565b604082019050919050565b6000615c2a6029836166dc565b9150615c3582616fec565b604082019050919050565b6000615c4d6028836166dc565b9150615c588261703b565b604082019050919050565b6000615c70602f836166dc565b9150615c7b8261708a565b604082019050919050565b6000615c936021836166dc565b9150615c9e826170d9565b604082019050919050565b6000615cb6601f836166dc565b9150615cc182617128565b602082019050919050565b6000615cd9601c836166dc565b9150615ce482617151565b602082019050919050565b60e082016000820151615d056000850182615882565b506020820151615d186020850182615e0b565b506040820151615d2b6040850182615773565b506060820151615d3e6060850182615773565b506080820151615d516080850182615e0b565b5060a0820151615d6460a0850182615e0b565b5060c0820151615d7760c0850182615e0b565b50505050565b60e082016000820151615d936000850182615882565b506020820151615da66020850182615e0b565b506040820151615db96040850182615773565b506060820151615dcc6060850182615773565b506080820151615ddf6080850182615e0b565b5060a0820151615df260a0850182615e0b565b5060c0820151615e0560c0850182615e0b565b50505050565b615e14816168af565b82525050565b615e23816168af565b82525050565b615e3a615e35826168af565b6169dd565b82525050565b6000615e4c82866157a0565b601482019150615e5c8285615e29565b602082019150615e6c8284615930565b9150819050949350505050565b6000602082019050615e8e6000830184615791565b92915050565b600060a082019050615ea96000830188615791565b615eb66020830187615791565b8181036040830152615ec88186615815565b90508181036060830152615edc8185615815565b90508181036080830152615ef081846158af565b90509695505050505050565b600060a082019050615f116000830188615791565b615f1e6020830187615791565b615f2b6040830186615e1a565b615f386060830185615e1a565b8181036080830152615f4a81846158af565b90509695505050505050565b600060a082019050615f6b6000830187615791565b615f786020830186615791565b615f856040830185615e1a565b615f926060830184615e1a565b8181036080830152615fa381615b91565b905095945050505050565b60006020820190508181036000830152615fc881846157b7565b905092915050565b60006020820190508181036000830152615fea8184615815565b905092915050565b6000604082019050818103600083015261600c8185615815565b905081810360208301526160208184615815565b90509392505050565b600060208201905061603e6000830184615873565b92915050565b60006020820190506160596000830184615891565b92915050565b60006040820190506160746000830185615891565b818103602083015261608681846158f7565b90509392505050565b6000610100820190506160a56000830185615891565b6160b26020830184615d7d565b9392505050565b600060e0820190506160ce600083018a615891565b6160db6020830189615e1a565b6160e86040830188615782565b6160f56060830187615782565b6161026080830186615e1a565b61610f60a0830185615e1a565b61611c60c08301846158e8565b98975050505050505050565b600060e08201905061613d600083018a615891565b61614a6020830189615e1a565b6161576040830188615782565b6161646060830187615782565b6161716080830186615e1a565b61617e60a0830185615e1a565b61618b60c0830184615e1a565b98975050505050505050565b60006020820190506161ac60008301846158a0565b92915050565b600060208201905081810360008301526161cc81846158f7565b905092915050565b600060208201905081810360008301526161ed81615961565b9050919050565b6000602082019050818103600083015261620d81615984565b9050919050565b6000602082019050818103600083015261622d816159a7565b9050919050565b6000602082019050818103600083015261624d816159ca565b9050919050565b6000602082019050818103600083015261626d816159ed565b9050919050565b6000602082019050818103600083015261628d81615a10565b9050919050565b600060208201905081810360008301526162ad81615a33565b9050919050565b600060208201905081810360008301526162cd81615a56565b9050919050565b600060208201905081810360008301526162ed81615a79565b9050919050565b6000602082019050818103600083015261630d81615a9c565b9050919050565b6000602082019050818103600083015261632d81615abf565b9050919050565b6000602082019050818103600083015261634d81615ae2565b9050919050565b6000602082019050818103600083015261636d81615b05565b9050919050565b6000602082019050818103600083015261638d81615b28565b9050919050565b600060208201905081810360008301526163ad81615b4b565b9050919050565b600060208201905081810360008301526163cd81615b6e565b9050919050565b600060208201905081810360008301526163ed81615bb4565b9050919050565b6000602082019050818103600083015261640d81615bd7565b9050919050565b6000602082019050818103600083015261642d81615bfa565b9050919050565b6000602082019050818103600083015261644d81615c1d565b9050919050565b6000602082019050818103600083015261646d81615c40565b9050919050565b6000602082019050818103600083015261648d81615c63565b9050919050565b600060208201905081810360008301526164ad81615c86565b9050919050565b600060208201905081810360008301526164cd81615ca9565b9050919050565b600060208201905081810360008301526164ed81615ccc565b9050919050565b60006020820190506165096000830184615e1a565b92915050565b60006040820190506165246000830185615e1a565b6165316020830184615e1a565b9392505050565b6000616542616553565b905061654e828261693f565b919050565b6000604051905090565b600067ffffffffffffffff82111561657857616577616a74565b5b602082029050602081019050919050565b600067ffffffffffffffff8211156165a4576165a3616a74565b5b602082029050602081019050919050565b600067ffffffffffffffff8211156165d0576165cf616a74565b5b602082029050602081019050919050565b600067ffffffffffffffff8211156165fc576165fb616a74565b5b61660582616ac5565b9050602081019050919050565b600067ffffffffffffffff82111561662d5761662c616a74565b5b61663682616ac5565b9050602081019050919050565b6000819050602082019050919050565b6000819050602082019050919050565b600081519050919050565b600081519050919050565b600081519050919050565b600081519050919050565b6000602082019050919050565b6000602082019050919050565b600082825260208201905092915050565b600082825260208201905092915050565b600082825260208201905092915050565b600082825260208201905092915050565b600081905092915050565b6000616703826168af565b915061670e836168af565b9250827fffffffffffffffffffffffffffffffffffffffffffffffffffffffffffffffff03821115616743576167426169e7565b5b828201905092915050565b6000616759826168af565b9150616764836168af565b92508261677457616773616a16565b5b828204905092915050565b600061678a826168af565b9150616795836168af565b9250817fffffffffffffffffffffffffffffffffffffffffffffffffffffffffffffffff04831182151516156167ce576167cd6169e7565b5b828202905092915050565b60006167e4826168af565b91506167ef836168af565b925082821015616802576168016169e7565b5b828203905092915050565b60006168188261688f565b9050919050565b600061682a8261688f565b9050919050565b60008115159050919050565b6000819050919050565b60007fffffffff0000000000000000000000000000000000000000000000000000000082169050919050565b60006fffffffffffffffffffffffffffffffff82169050919050565b600073ffffffffffffffffffffffffffffffffffffffff82169050919050565b6000819050919050565b60006168c4826168af565b9050919050565b82818337600083830152505050565b60005b838110156168f85780820151818401526020810190506168dd565b83811115616907576000848401525b50505050565b6000600282049050600182168061692557607f821691505b6020821081141561693957616938616a45565b5b50919050565b61694882616ac5565b810181811067ffffffffffffffff8211171561696757616966616a74565b5b80604052505050565b600061697b826168af565b91507fffffffffffffffffffffffffffffffffffffffffffffffffffffffffffffffff8214156169ae576169ad6169e7565b5b600182019050919050565b60006169c4826169cb565b9050919050565b60006169d682616ad6565b9050919050565b6000819050919050565b7f4e487b7100000000000000000000000000000000000000000000000000000000600052601160045260246000fd5b7f4e487b7100000000000000000000000000000000000000000000000000000000600052601260045260246000fd5b7f4e487b7100000000000000000000000000000000000000000000000000000000600052602260045260246000fd5b7f4e487b7100000000000000000000000000000000000000000000000000000000600052604160045260246000fd5b600060033d1115616ac25760046000803e616abf600051616ae3565b90505b90565b6000601f19601f8301169050919050565b60008160601b9050919050565b60008160e01c9050919050565b7f455243313135353a207472616e7366657220746f206e6f6e204552433131353560008201527f526563656976657220696d706c656d656e746572000000000000000000000000602082015250565b7f496e76616c696420616d6f756e742e0000000000000000000000000000000000600082015250565b7f455243313135353a2063616c6c6572206973206e6f7420746f6b656e206f776e60008201527f6572206e6f7220617070726f7665640000000000000000000000000000000000602082015250565b7f455243313135353a204552433131353552656365697665722072656a6563746560008201527f6420746f6b656e73000000000000000000000000000000000000000000000000602082015250565b7f4f776e61626c653a206e6577206f776e657220697320746865207a65726f206160008201527f6464726573730000000000000000000000000000000000000000000000000000602082015250565b7f496e76616c696420746f6b656e49642e00000000000000000000000000000000600082015250565b7f416d6f756e74206d7573742062652067726561746572207468616e2030000000600082015250565b7f455243313135353a2061646472657373207a65726f206973206e6f742061207660008201527f616c6964206f776e657200000000000000000000000000000000000000000000602082015250565b7f496e76616c696420746f6b656e2e000000000000000000000000000000000000600082015250565b7f455243313135353a207472616e7366657220746f20746865207a65726f20616460008201527f6472657373000000000000000000000000000000000000000000000000000000602082015250565b7f506c65617365207375626d6974207468652061736b696e67207072696365206960008201527f6e206f7264657220746f20636f6d706c65746520746865207075726368617365602082015250565b7f455243313135353a20696e73756666696369656e742062616c616e636520666f60008201527f72207472616e7366657200000000000000000000000000000000000000000000602082015250565b7f4f6e6c79206974656d206f776e65722063616e20706572666f726d207468697360008201527f206f7065726174696f6e00000000000000000000000000000000000000000000602082015250565b7f4f776e61626c653a2063616c6c6572206973206e6f7420746865206f776e6572600082015250565b7f526573656c6c657220616c726561647920726567697374657265640000000000600082015250565b7f5072696365206d75737420626520657175616c20746f206c697374696e67207060008201527f7269636500000000000000000000000000000000000000000000000000000000602082015250565b50565b7f43616e6e6f7420627579206d6f7265207468616e2074686520617661696c616260008201527f6c6520616d6f756e742e00000000000000000000000000000000000000000000602082015250565b7f43616e6e6f742073656c6c20746f6b656e7320796f7520646f206e6f74206f7760008201527f6e2e000000000000000000000000000000000000000000000000000000000000602082015250565b7f455243313135353a2073657474696e6720617070726f76616c2073746174757360008201527f20666f722073656c660000000000000000000000000000000000000000000000602082015250565b7f455243313135353a206163636f756e747320616e6420696473206c656e67746860008201527f206d69736d617463680000000000000000000000000000000000000000000000602082015250565b7f455243313135353a2069647320616e6420616d6f756e7473206c656e6774682060008201527f6d69736d61746368000000000000000000000000000000000000000000000000602082015250565b7f5072696365206d75737420626520657175616c206f722067726561746572207460008201527f6f206c697374696e672070726963650000000000000000000000000000000000602082015250565b7f455243313135353a206d696e7420746f20746865207a65726f2061646472657360008201527f7300000000000000000000000000000000000000000000000000000000000000602082015250565b7f5265656e7472616e637947756172643a207265656e7472616e742063616c6c00600082015250565b7f5072696365206d757374206265206174206c6561737420312077656900000000600082015250565b600060443d101561718a5761720d565b617192616553565b60043d036004823e80513d602482011167ffffffffffffffff821117156171ba57505061720d565b808201805167ffffffffffffffff8111156171d8575050505061720d565b80602083010160043d0385018111156171f557505050505061720d565b6172048260200185018661693f565b82955050505050505b90565b6172198161680d565b811461722457600080fd5b50565b6172308161681f565b811461723b57600080fd5b50565b61724781616831565b811461725257600080fd5b50565b61725e8161683d565b811461726957600080fd5b50565b61727581616847565b811461728057600080fd5b50565b61728c81616873565b811461729757600080fd5b50565b6172a3816168af565b81146172ae57600080fd5b5056fea26469706673582212204bf04290795299f2419a1b9935f674149744a0042c338b14d7252d1a3812a82b64736f6c63430008040033",
  "linkReferences": {},
  "deployedLinkReferences": {}
}