{
  "_format": "hh-sol-artifact-1",
  "contractName": "OttoMarketplace",
  "sourceName": "contracts/OttoMarketplace.sol",
  "abi": [
    {
      "inputs": [
        {
          "internalType": "address",
          "name": "_ottoStorage",
          "type": "address"
        },
        {
          "internalType": "address",
          "name": "_ottoRoyalty",
          "type": "address"
        }
      ],
      "stateMutability": "nonpayable",
      "type": "constructor"
    },
    {
      "anonymous": false,
      "inputs": [
        {
          "indexed": true,
          "internalType": "address",
          "name": "account",
          "type": "address"
        },
        {
          "indexed": true,
          "internalType": "address",
          "name": "operator",
          "type": "address"
        },
        {
          "indexed": false,
          "internalType": "bool",
          "name": "approved",
          "type": "bool"
        }
      ],
      "name": "ApprovalForAll",
      "type": "event"
    },
    {
      "anonymous": false,
      "inputs": [
        {
          "indexed": true,
          "internalType": "bytes32",
          "name": "tokenSeller",
          "type": "bytes32"
        },
        {
          "indexed": false,
          "internalType": "uint256",
          "name": "tokenId",
          "type": "uint256"
        },
        {
          "indexed": false,
          "internalType": "address",
          "name": "seller",
          "type": "address"
        },
        {
          "indexed": false,
          "internalType": "address",
          "name": "owner",
          "type": "address"
        },
        {
          "indexed": false,
          "internalType": "uint256",
          "name": "price",
          "type": "uint256"
        },
        {
          "indexed": false,
          "internalType": "uint256",
          "name": "amount",
          "type": "uint256"
        },
        {
          "indexed": false,
          "internalType": "uint256",
          "name": "sold",
          "type": "uint256"
        }
      ],
      "name": "MarketItemCreated",
      "type": "event"
    },
    {
      "anonymous": false,
      "inputs": [
        {
          "indexed": true,
          "internalType": "address",
          "name": "previousOwner",
          "type": "address"
        },
        {
          "indexed": true,
          "internalType": "address",
          "name": "newOwner",
          "type": "address"
        }
      ],
      "name": "OwnershipTransferred",
      "type": "event"
    },
    {
      "anonymous": false,
      "inputs": [
        {
          "indexed": true,
          "internalType": "address",
          "name": "operator",
          "type": "address"
        },
        {
          "indexed": true,
          "internalType": "address",
          "name": "from",
          "type": "address"
        },
        {
          "indexed": true,
          "internalType": "address",
          "name": "to",
          "type": "address"
        },
        {
          "indexed": false,
          "internalType": "uint256[]",
          "name": "ids",
          "type": "uint256[]"
        },
        {
          "indexed": false,
          "internalType": "uint256[]",
          "name": "values",
          "type": "uint256[]"
        }
      ],
      "name": "TransferBatch",
      "type": "event"
    },
    {
      "anonymous": false,
      "inputs": [
        {
          "indexed": true,
          "internalType": "address",
          "name": "operator",
          "type": "address"
        },
        {
          "indexed": true,
          "internalType": "address",
          "name": "from",
          "type": "address"
        },
        {
          "indexed": true,
          "internalType": "address",
          "name": "to",
          "type": "address"
        },
        {
          "indexed": false,
          "internalType": "uint256",
          "name": "id",
          "type": "uint256"
        },
        {
          "indexed": false,
          "internalType": "uint256",
          "name": "value",
          "type": "uint256"
        }
      ],
      "name": "TransferSingle",
      "type": "event"
    },
    {
      "anonymous": false,
      "inputs": [
        {
          "indexed": false,
          "internalType": "string",
          "name": "value",
          "type": "string"
        },
        {
          "indexed": true,
          "internalType": "uint256",
          "name": "id",
          "type": "uint256"
        }
      ],
      "name": "URI",
      "type": "event"
    },
    {
      "inputs": [
        {
          "internalType": "address",
          "name": "account",
          "type": "address"
        },
        {
          "internalType": "uint256",
          "name": "id",
          "type": "uint256"
        }
      ],
      "name": "balanceOf",
      "outputs": [
        {
          "internalType": "uint256",
          "name": "",
          "type": "uint256"
        }
      ],
      "stateMutability": "view",
      "type": "function"
    },
    {
      "inputs": [
        {
          "internalType": "address[]",
          "name": "accounts",
          "type": "address[]"
        },
        {
          "internalType": "uint256[]",
          "name": "ids",
          "type": "uint256[]"
        }
      ],
      "name": "balanceOfBatch",
      "outputs": [
        {
          "internalType": "uint256[]",
          "name": "",
          "type": "uint256[]"
        }
      ],
      "stateMutability": "view",
      "type": "function"
    },
    {
      "inputs": [
        {
          "internalType": "bytes32",
          "name": "_tokenSeller",
          "type": "bytes32"
        },
        {
          "internalType": "uint256",
          "name": "_amount",
          "type": "uint256"
        }
      ],
      "name": "createMarketSale",
      "outputs": [],
      "stateMutability": "payable",
      "type": "function"
    },
    {
      "inputs": [
        {
          "internalType": "string",
          "name": "_tokenURI",
          "type": "string"
        },
        {
          "internalType": "uint256",
          "name": "_price",
          "type": "uint256"
        },
        {
          "internalType": "uint256",
          "name": "_amount",
          "type": "uint256"
        },
        {
          "internalType": "uint96",
          "name": "_royaltyFee",
          "type": "uint96"
        }
      ],
      "name": "createToken",
      "outputs": [
        {
          "internalType": "bytes32",
          "name": "",
          "type": "bytes32"
        }
      ],
      "stateMutability": "payable",
      "type": "function"
    },
    {
      "inputs": [],
      "name": "getAllItems",
      "outputs": [
        {
          "components": [
            {
              "internalType": "bytes32",
              "name": "tokenSeller",
              "type": "bytes32"
            },
            {
              "internalType": "uint256",
              "name": "tokenId",
              "type": "uint256"
            },
            {
              "internalType": "address payable",
              "name": "seller",
              "type": "address"
            },
            {
              "internalType": "address payable",
              "name": "owner",
              "type": "address"
            },
            {
              "internalType": "uint256",
              "name": "price",
              "type": "uint256"
            },
            {
              "internalType": "uint256",
              "name": "amount",
              "type": "uint256"
            },
            {
              "internalType": "uint256",
              "name": "sold",
              "type": "uint256"
            }
          ],
          "internalType": "struct IOttoMarketplace.MarketItem[]",
          "name": "_items",
          "type": "tuple[]"
        }
      ],
      "stateMutability": "view",
      "type": "function"
    },
    {
      "inputs": [],
      "name": "getItemsListed",
      "outputs": [
        {
          "components": [
            {
              "internalType": "bytes32",
              "name": "tokenSeller",
              "type": "bytes32"
            },
            {
              "internalType": "uint256",
              "name": "tokenId",
              "type": "uint256"
            },
            {
              "internalType": "address payable",
              "name": "seller",
              "type": "address"
            },
            {
              "internalType": "address payable",
              "name": "owner",
              "type": "address"
            },
            {
              "internalType": "uint256",
              "name": "price",
              "type": "uint256"
            },
            {
              "internalType": "uint256",
              "name": "amount",
              "type": "uint256"
            },
            {
              "internalType": "uint256",
              "name": "sold",
              "type": "uint256"
            }
          ],
          "internalType": "struct IOttoMarketplace.MarketItem[]",
          "name": "_items",
          "type": "tuple[]"
        }
      ],
      "stateMutability": "view",
      "type": "function"
    },
    {
      "inputs": [],
      "name": "getListingPrice",
      "outputs": [
        {
          "internalType": "uint256",
          "name": "",
          "type": "uint256"
        }
      ],
      "stateMutability": "view",
      "type": "function"
    },
    {
      "inputs": [],
      "name": "getMarketItems",
      "outputs": [
        {
          "components": [
            {
              "internalType": "bytes32",
              "name": "tokenSeller",
              "type": "bytes32"
            },
            {
              "internalType": "uint256",
              "name": "tokenId",
              "type": "uint256"
            },
            {
              "internalType": "address payable",
              "name": "seller",
              "type": "address"
            },
            {
              "internalType": "address payable",
              "name": "owner",
              "type": "address"
            },
            {
              "internalType": "uint256",
              "name": "price",
              "type": "uint256"
            },
            {
              "internalType": "uint256",
              "name": "amount",
              "type": "uint256"
            },
            {
              "internalType": "uint256",
              "name": "sold",
              "type": "uint256"
            }
          ],
          "internalType": "struct IOttoMarketplace.MarketItem[]",
          "name": "_items",
          "type": "tuple[]"
        }
      ],
      "stateMutability": "view",
      "type": "function"
    },
    {
      "inputs": [],
      "name": "getMyNFTs",
      "outputs": [
        {
          "components": [
            {
              "internalType": "bytes32",
              "name": "tokenSeller",
              "type": "bytes32"
            },
            {
              "internalType": "uint256",
              "name": "tokenId",
              "type": "uint256"
            },
            {
              "internalType": "address payable",
              "name": "seller",
              "type": "address"
            },
            {
              "internalType": "address payable",
              "name": "owner",
              "type": "address"
            },
            {
              "internalType": "uint256",
              "name": "price",
              "type": "uint256"
            },
            {
              "internalType": "uint256",
              "name": "amount",
              "type": "uint256"
            },
            {
              "internalType": "uint256",
              "name": "sold",
              "type": "uint256"
            }
          ],
          "internalType": "struct IOttoMarketplace.MarketItem[]",
          "name": "_items",
          "type": "tuple[]"
        }
      ],
      "stateMutability": "view",
      "type": "function"
    },
    {
      "inputs": [
        {
          "internalType": "address",
          "name": "_addr",
          "type": "address"
        },
        {
          "internalType": "uint256",
          "name": "_tokenId",
          "type": "uint256"
        },
        {
          "internalType": "string",
          "name": "_text",
          "type": "string"
        }
      ],
      "name": "hash",
      "outputs": [
        {
          "internalType": "bytes32",
          "name": "",
          "type": "bytes32"
        }
      ],
      "stateMutability": "pure",
      "type": "function"
    },
    {
      "inputs": [
        {
          "internalType": "address",
          "name": "account",
          "type": "address"
        },
        {
          "internalType": "address",
          "name": "operator",
          "type": "address"
        }
      ],
      "name": "isApprovedForAll",
      "outputs": [
        {
          "internalType": "bool",
          "name": "",
          "type": "bool"
        }
      ],
      "stateMutability": "view",
      "type": "function"
    },
    {
      "inputs": [
        {
          "internalType": "address",
          "name": "",
          "type": "address"
        },
        {
          "internalType": "address",
          "name": "",
          "type": "address"
        },
        {
          "internalType": "uint256[]",
          "name": "",
          "type": "uint256[]"
        },
        {
          "internalType": "uint256[]",
          "name": "",
          "type": "uint256[]"
        },
        {
          "internalType": "bytes",
          "name": "",
          "type": "bytes"
        }
      ],
      "name": "onERC1155BatchReceived",
      "outputs": [
        {
          "internalType": "bytes4",
          "name": "",
          "type": "bytes4"
        }
      ],
      "stateMutability": "pure",
      "type": "function"
    },
    {
      "inputs": [
        {
          "internalType": "address",
          "name": "",
          "type": "address"
        },
        {
          "internalType": "address",
          "name": "",
          "type": "address"
        },
        {
          "internalType": "uint256",
          "name": "",
          "type": "uint256"
        },
        {
          "internalType": "uint256",
          "name": "",
          "type": "uint256"
        },
        {
          "internalType": "bytes",
          "name": "",
          "type": "bytes"
        }
      ],
      "name": "onERC1155Received",
      "outputs": [
        {
          "internalType": "bytes4",
          "name": "",
          "type": "bytes4"
        }
      ],
      "stateMutability": "pure",
      "type": "function"
    },
    {
      "inputs": [],
      "name": "owner",
      "outputs": [
        {
          "internalType": "address",
          "name": "",
          "type": "address"
        }
      ],
      "stateMutability": "view",
      "type": "function"
    },
    {
      "inputs": [],
      "name": "renounceOwnership",
      "outputs": [],
      "stateMutability": "nonpayable",
      "type": "function"
    },
    {
      "inputs": [
        {
          "internalType": "bytes32",
          "name": "_tokenSeller",
          "type": "bytes32"
        },
        {
          "internalType": "string",
          "name": "_tokenURI",
          "type": "string"
        },
        {
          "internalType": "uint256",
          "name": "_price",
          "type": "uint256"
        }
      ],
      "name": "resellToken",
      "outputs": [],
      "stateMutability": "payable",
      "type": "function"
    },
    {
      "inputs": [
        {
          "internalType": "address",
          "name": "from",
          "type": "address"
        },
        {
          "internalType": "address",
          "name": "to",
          "type": "address"
        },
        {
          "internalType": "uint256[]",
          "name": "ids",
          "type": "uint256[]"
        },
        {
          "internalType": "uint256[]",
          "name": "amounts",
          "type": "uint256[]"
        },
        {
          "internalType": "bytes",
          "name": "data",
          "type": "bytes"
        }
      ],
      "name": "safeBatchTransferFrom",
      "outputs": [],
      "stateMutability": "nonpayable",
      "type": "function"
    },
    {
      "inputs": [
        {
          "internalType": "address",
          "name": "from",
          "type": "address"
        },
        {
          "internalType": "address",
          "name": "to",
          "type": "address"
        },
        {
          "internalType": "uint256",
          "name": "id",
          "type": "uint256"
        },
        {
          "internalType": "uint256",
          "name": "amount",
          "type": "uint256"
        },
        {
          "internalType": "bytes",
          "name": "data",
          "type": "bytes"
        }
      ],
      "name": "safeTransferFrom",
      "outputs": [],
      "stateMutability": "nonpayable",
      "type": "function"
    },
    {
      "inputs": [
        {
          "internalType": "address",
          "name": "operator",
          "type": "address"
        },
        {
          "internalType": "bool",
          "name": "approved",
          "type": "bool"
        }
      ],
      "name": "setApprovalForAll",
      "outputs": [],
      "stateMutability": "nonpayable",
      "type": "function"
    },
    {
      "inputs": [
        {
          "internalType": "bytes4",
          "name": "interfaceId",
          "type": "bytes4"
        }
      ],
      "name": "supportsInterface",
      "outputs": [
        {
          "internalType": "bool",
          "name": "",
          "type": "bool"
        }
      ],
      "stateMutability": "view",
      "type": "function"
    },
    {
      "inputs": [
        {
          "internalType": "bytes32",
          "name": "_tokenSeller",
          "type": "bytes32"
        }
      ],
      "name": "tokenURI",
      "outputs": [
        {
          "internalType": "string",
          "name": "",
          "type": "string"
        }
      ],
      "stateMutability": "view",
      "type": "function"
    },
    {
      "inputs": [
        {
          "internalType": "address",
          "name": "newOwner",
          "type": "address"
        }
      ],
      "name": "transferOwnership",
      "outputs": [],
      "stateMutability": "nonpayable",
      "type": "function"
    },
    {
      "inputs": [
        {
          "internalType": "uint256",
          "name": "",
          "type": "uint256"
        }
      ],
      "name": "uri",
      "outputs": [
        {
          "internalType": "string",
          "name": "",
          "type": "string"
        }
      ],
      "stateMutability": "view",
      "type": "function"
    }
  ],
  "bytecode": "0x60806040523480156200001157600080fd5b5060405162003f7c38038062003f7c8339810160408190526200003491620001d5565b60408051808201909152601081526f4f74746f204d61726b6574706c61636560801b60208201526200006633620000a9565b6200007181620000f9565b506001600455600580546001600160a01b039384166001600160a01b0319918216179091556006805492909316911617905562000249565b600080546001600160a01b038381166001600160a01b0319831681178455604051919092169283917f8be0079c531659141344cd1fd0a4f28419497f9722a3daafe3b4186f6b6457e09190a35050565b80516200010e90600390602084019062000112565b5050565b82805462000120906200020c565b90600052602060002090601f0160209004810192826200014457600085556200018f565b82601f106200015f57805160ff19168380011785556200018f565b828001600101855582156200018f579182015b828111156200018f57825182559160200191906001019062000172565b506200019d929150620001a1565b5090565b5b808211156200019d5760008155600101620001a2565b80516001600160a01b0381168114620001d057600080fd5b919050565b60008060408385031215620001e8578182fd5b620001f383620001b8565b91506200020360208401620001b8565b90509250929050565b600181811c908216806200022157607f821691505b602082108114156200024357634e487b7160e01b600052602260045260246000fd5b50919050565b613d2380620002596000396000f3fe60806040526004361061017f5760003560e01c8063715018a6116100d6578063c0e5347a1161007f578063f242432a11610059578063f242432a14610458578063f2fde38b14610478578063fbf4f1441461049857600080fd5b8063c0e5347a146103cf578063e985e9c5146103e2578063f23a6e611461042b57600080fd5b8063a22cb465116100b0578063a22cb46514610347578063afbb8d5114610367578063bc197c811461038757600080fd5b8063715018a6146102f75780637f5842311461030c5780638da5cb5b1461031f57600080fd5b806320879c19116101385780634ba1d6aa116101125780634ba1d6aa146102a05780634e1273f4146102b5578063629cb2e4146102e257600080fd5b806320879c191461023e57806329aa3a421461025e5780632eb2c2d61461028057600080fd5b80630e89341c116101695780630e89341c146101e757806312e85585146102145780631c36eabb1461022957600080fd5b8062fdd58e1461018457806301ffc9a7146101b7575b600080fd5b34801561019057600080fd5b506101a461019f3660046133ab565b6104ad565b6040519081526020015b60405180910390f35b3480156101c357600080fd5b506101d76101d2366004613657565b61055b565b60405190151581526020016101ae565b3480156101f357600080fd5b506102076102023660046135d0565b610566565b6040516101ae9190613a5a565b34801561022057600080fd5b506101a46105fa565b61023c6102373660046135e8565b610695565b005b34801561024a57600080fd5b506101a4610259366004613403565b610a84565b34801561026a57600080fd5b50610273610abb565b6040516101ae91906138f9565b34801561028c57600080fd5b5061023c61029b3660046131ef565b610b55565b3480156102ac57600080fd5b50610273610bf7565b3480156102c157600080fd5b506102d56102d036600461345a565b610c55565b6040516101ae9190613995565b3480156102ee57600080fd5b50610273610dcb565b34801561030357600080fd5b5061023c610e15565b61023c61031a366004613636565b610e29565b34801561032b57600080fd5b506000546040516001600160a01b0390911681526020016101ae565b34801561035357600080fd5b5061023c61036236600461337a565b61164f565b34801561037357600080fd5b506102076103823660046135d0565b61165a565b34801561039357600080fd5b506103b66103a2366004613134565b63bc197c8160e01b98975050505050505050565b6040516001600160e01b031990911681526020016101ae565b6101a46103dd366004613703565b6116db565b3480156103ee57600080fd5b506101d76103fd3660046130fc565b6001600160a01b03918216600090815260026020908152604080832093909416825291909152205460ff1690565b34801561043757600080fd5b506103b6610446366004613299565b63f23a6e6160e01b9695505050505050565b34801561046457600080fd5b5061023c610473366004613313565b6119bd565b34801561048457600080fd5b5061023c6104933660046130c4565b611a58565b3480156104a457600080fd5b50610273611ae8565b60006001600160a01b0383166105305760405162461bcd60e51b815260206004820152602a60248201527f455243313135353a2061646472657373207a65726f206973206e6f742061207660448201527f616c6964206f776e65720000000000000000000000000000000000000000000060648201526084015b60405180910390fd5b5060008181526001602090815260408083206001600160a01b03861684529091529020545b92915050565b600061055582611b32565b60606003805461057590613b57565b80601f01602080910402602001604051908101604052809291908181526020018280546105a190613b57565b80156105ee5780601f106105c3576101008083540402835291602001916105ee565b820191906000526020600020905b8154815290600101906020018083116105d157829003601f168201915b50505050509050919050565b600554604080517f12e8558500000000000000000000000000000000000000000000000000000000815290516000926001600160a01b0316916312e85585916004808301926020929190829003018186803b15801561065857600080fd5b505afa15801561066c573d6000803e3d6000fd5b505050506040513d601f19601f82011682018060405250810190610690919061377f565b905090565b61069d611bcd565b600554604051632061292360e21b8152600481018590526000916001600160a01b031690638184a48c9060240160e06040518083038186803b1580156106e257600080fd5b505afa1580156106f6573d6000803e3d6000fd5b505050506040513d601f19601f8201168201806040525081019061071a9190613764565b9050620f42405a111561076f5760405162461bcd60e51b815260206004820152601560248201527f4d617820676173206c696d6974207265616368656400000000000000000000006044820152606401610527565b60608101516001600160a01b031633146107f15760405162461bcd60e51b815260206004820152602a60248201527f4f6e6c79206974656d206f776e65722063616e20706572666f726d207468697360448201527f206f7065726174696f6e000000000000000000000000000000000000000000006064820152608401610527565b60006108013383602001516104ad565b10156108755760405162461bcd60e51b815260206004820152602260248201527f43616e6e6f742073656c6c20746f6b656e7320796f7520646f206e6f74206f7760448201527f6e2e0000000000000000000000000000000000000000000000000000000000006064820152608401610527565b600560009054906101000a90046001600160a01b03166001600160a01b03166312e855856040518163ffffffff1660e01b815260040160206040518083038186803b1580156108c357600080fd5b505afa1580156108d7573d6000803e3d6000fd5b505050506040513d601f19601f820116820180604052508101906108fb919061377f565b3410156109705760405162461bcd60e51b815260206004820152602f60248201527f5072696365206d75737420626520657175616c206f722067726561746572207460448201527f6f206c697374696e6720707269636500000000000000000000000000000000006064820152608401610527565b60a081015160808201839052336040808401919091523060608401526005549051630fd50f6b60e01b81526001600160a01b0390911690630fd50f6b906109bd90889086906004016139f7565b600060405180830381600087803b1580156109d757600080fd5b505af11580156109eb573d6000803e3d6000fd5b50506005546040516349b345c160e01b81526001600160a01b0390911692506349b345c19150610a2190889088906004016139d6565b600060405180830381600087803b158015610a3b57600080fd5b505af1158015610a4f573d6000803e3d6000fd5b50505050610a73333084602001518460405180602001604052806000815250611c27565b5050610a7f6001600455565b505050565b6000838383604051602001610a9b93929190613819565b6040516020818303038152906040528051906020012090505b9392505050565b6005546040517f1f10e57a0000000000000000000000000000000000000000000000000000000081523060048201526060916001600160a01b031690631f10e57a906024015b60006040518083038186803b158015610b1957600080fd5b505afa158015610b2d573d6000803e3d6000fd5b505050506040513d6000823e601f3d908101601f191682016040526106909190810190613527565b6001600160a01b038516331480610b715750610b7185336103fd565b610be35760405162461bcd60e51b815260206004820152602e60248201527f455243313135353a2063616c6c6572206973206e6f7420746f6b656e206f776e60448201527f6572206f7220617070726f7665640000000000000000000000000000000000006064820152608401610527565b610bf08585858585611dd6565b5050505050565b600554604080517f97598cc300000000000000000000000000000000000000000000000000000000815290516060926001600160a01b0316916397598cc3916004808301926000929190829003018186803b158015610b1957600080fd5b60608151835114610cce5760405162461bcd60e51b815260206004820152602960248201527f455243313135353a206163636f756e747320616e6420696473206c656e67746860448201527f206d69736d6174636800000000000000000000000000000000000000000000006064820152608401610527565b6000835167ffffffffffffffff811115610cf857634e487b7160e01b600052604160045260246000fd5b604051908082528060200260200182016040528015610d21578160200160208202803683370190505b50905060005b8451811015610dc357610d88858281518110610d5357634e487b7160e01b600052603260045260246000fd5b6020026020010151858381518110610d7b57634e487b7160e01b600052603260045260246000fd5b60200260200101516104ad565b828281518110610da857634e487b7160e01b600052603260045260246000fd5b6020908102919091010152610dbc81613bbf565b9050610d27565b509392505050565b6005546040517f10afee1e0000000000000000000000000000000000000000000000000000000081523360048201526060916001600160a01b0316906310afee1e90602401610b01565b610e1d612068565b610e2760006120c2565b565b610e31611bcd565b620f42405a1115610e845760405162461bcd60e51b815260206004820152601560248201527f4d617820676173206c696d6974207265616368656400000000000000000000006044820152606401610527565b60008111610ed45760405162461bcd60e51b815260206004820152600f60248201527f496e76616c696420616d6f756e742e00000000000000000000000000000000006044820152606401610527565b600554604051632061292360e21b8152600481018490526000916001600160a01b031690638184a48c9060240160e06040518083038186803b158015610f1957600080fd5b505afa158015610f2d573d6000803e3d6000fd5b505050506040513d601f19601f82011682018060405250810190610f519190613764565b90506000816020015111610fa75760405162461bcd60e51b815260206004820152601060248201527f496e76616c696420746f6b656e49642e000000000000000000000000000000006044820152606401610527565b8060c001518160a00151610fbb9190613b10565b8211156110305760405162461bcd60e51b815260206004820152602a60248201527f43616e6e6f7420627579206d6f7265207468616e2074686520617661696c616260448201527f6c6520616d6f756e742e000000000000000000000000000000000000000000006064820152608401610527565b8181608001516110409190613af1565b34146110b6576040805162461bcd60e51b81526020600482015260248101919091527f506c65617365207375626d6974207468652061736b696e67207072696365206960448201527f6e206f7264657220746f20636f6d706c657465207468652070757263686173656064820152608401610527565b34333110156111075760405162461bcd60e51b815260206004820152601260248201527f496e73756666696369656e742066756e647300000000000000000000000000006044820152606401610527565b600654604080517f180b0d7e00000000000000000000000000000000000000000000000000000000815290516000926001600160a01b03169163180b0d7e916004808301926020929190829003018186803b15801561116557600080fd5b505afa158015611179573d6000803e3d6000fd5b505050506040513d601f19601f8201168201806040525081019061119d9190613797565b6bffffffffffffffffffffffff16600560009054906101000a90046001600160a01b03166001600160a01b031663d2c00fa06040518163ffffffff1660e01b815260040160206040518083038186803b1580156111f957600080fd5b505afa15801561120d573d6000803e3d6000fd5b505050506040513d601f19601f820116820180604052508101906112319190613797565b611249906bffffffffffffffffffffffff1634613af1565b6112539190613ad1565b60065460208401516040517f2a55205a000000000000000000000000000000000000000000000000000000008152600481019190915234602482015291925060009182916001600160a01b031690632a55205a90604401604080518083038186803b1580156112c157600080fd5b505afa1580156112d5573d6000803e3d6000fd5b505050506040513d601f19601f820116820180604052508101906112f991906133d6565b91509150306001600160a01b0316638da5cb5b6040518163ffffffff1660e01b815260040160206040518083038186803b15801561133657600080fd5b505afa15801561134a573d6000803e3d6000fd5b505050506040513d601f19601f8201168201806040525081019061136e91906130e0565b6001600160a01b03166108fc846113858434613b10565b61138f9190613b10565b6040518115909202916000818181858888f193505050501580156113b7573d6000803e3d6000fd5b506040516001600160a01b0383169082156108fc029083906000818181858888f193505050501580156113ee573d6000803e3d6000fd5b50600560009054906101000a90046001600160a01b03166001600160a01b031663f37dca786040518163ffffffff1660e01b815260040160206040518083038186803b15801561143d57600080fd5b505afa158015611451573d6000803e3d6000fd5b505050506040513d601f19601f8201168201806040525081019061147591906130e0565b6001600160a01b03166108fc849081150290604051600060405180830381858888f193505050501580156114ad573d6000803e3d6000fd5b5060408401516001600160a01b0316816114c78534613b10565b6114d19190613b10565b6113889050505060006114f833866020015160405180602001604052806000815250610a84565b9050858560c00181815161150c9190613ab9565b905250611519818761212a565b61152d5761152d8782876080015189612330565b61154d303387602001518960405180602001604052806000815250611c27565b8460c001518560a0015114156115d857600060608601819052600554604080517f6b6ddcee00000000000000000000000000000000000000000000000000000000815290516001600160a01b0390921692636b6ddcee9260048084019382900301818387803b1580156115bf57600080fd5b505af11580156115d3573d6000803e3d6000fd5b505050505b600554604051630fd50f6b60e01b81526001600160a01b0390911690630fd50f6b9061160a908a9089906004016139f7565b600060405180830381600087803b15801561162457600080fd5b505af1158015611638573d6000803e3d6000fd5b50505050505050505061164b6001600455565b5050565b61164b33838361274f565b6005546040516336be359360e21b8152600481018390526060916001600160a01b03169063daf8d64c9060240160006040518083038186803b15801561169f57600080fd5b505afa1580156116b3573d6000803e3d6000fd5b505050506040513d6000823e601f3d908101601f19168201604052610555919081019061368f565b6000620f42405a11156117305760405162461bcd60e51b815260206004820152601160248201527f476173206c696d697420726561636865640000000000000000000000000000006044820152606401610527565b6103e88311156117825760405162461bcd60e51b815260206004820152601260248201527f4d696e74206c696d6974207265616368656400000000000000000000000000006044820152606401610527565b600554604080517f75794a3c00000000000000000000000000000000000000000000000000000000815290516000926001600160a01b0316916375794a3c91600480830192602092919082900301818787803b1580156117e157600080fd5b505af11580156117f5573d6000803e3d6000fd5b505050506040513d601f19601f82011682018060405250810190611819919061377f565b90506000611837338360405180602001604052806000815250610a84565b905061185430838760405180602001604052806000815250612844565b6006546040517f5944c753000000000000000000000000000000000000000000000000000000008152600481018490523360248201526bffffffffffffffffffffffff861660448201526001600160a01b0390911690635944c75390606401600060405180830381600087803b1580156118cd57600080fd5b505af11580156118e1573d6000803e3d6000fd5b50506005546040516377ebe35b60e11b8152600481018590526001600160a01b03909116925063efd7c6b69150602401600060405180830381600087803b15801561192b57600080fd5b505af115801561193f573d6000803e3d6000fd5b50506005546040516349b345c160e01b81526001600160a01b0390911692506349b345c191506119759084908b906004016139d6565b600060405180830381600087803b15801561198f57600080fd5b505af11580156119a3573d6000803e3d6000fd5b505050506119b381838888612976565b9695505050505050565b6001600160a01b0385163314806119d957506119d985336103fd565b611a4b5760405162461bcd60e51b815260206004820152602e60248201527f455243313135353a2063616c6c6572206973206e6f7420746f6b656e206f776e60448201527f6572206f7220617070726f7665640000000000000000000000000000000000006064820152608401610527565b610bf08585858585611c27565b611a60612068565b6001600160a01b038116611adc5760405162461bcd60e51b815260206004820152602660248201527f4f776e61626c653a206e6577206f776e657220697320746865207a65726f206160448201527f64647265737300000000000000000000000000000000000000000000000000006064820152608401610527565b611ae5816120c2565b50565b6005546040517f8a410b1a0000000000000000000000000000000000000000000000000000000081523360048201526060916001600160a01b031690638a410b1a90602401610b01565b60006001600160e01b031982167fd9b67a26000000000000000000000000000000000000000000000000000000001480611b9557506001600160e01b031982167f0e89341c00000000000000000000000000000000000000000000000000000000145b8061055557507f01ffc9a7000000000000000000000000000000000000000000000000000000006001600160e01b0319831614610555565b60026004541415611c205760405162461bcd60e51b815260206004820152601f60248201527f5265656e7472616e637947756172643a207265656e7472616e742063616c6c006044820152606401610527565b6002600455565b6001600160a01b038416611c8b5760405162461bcd60e51b815260206004820152602560248201527f455243313135353a207472616e7366657220746f20746865207a65726f206164604482015264647265737360d81b6064820152608401610527565b336000611c9785612bb5565b90506000611ca485612bb5565b905060008681526001602090815260408083206001600160a01b038c16845290915290205485811015611d2c5760405162461bcd60e51b815260206004820152602a60248201527f455243313135353a20696e73756666696369656e742062616c616e636520666f60448201526939103a3930b739b332b960b11b6064820152608401610527565b60008781526001602090815260408083206001600160a01b038d8116855292528083208985039055908a16825281208054889290611d6b908490613ab9565b909155505060408051888152602081018890526001600160a01b03808b16928c821692918816917fc3d58168c5ae7397731d063d5bbf3d657854427343f4c083240f7aacaa2d0f62910160405180910390a4611dcb848a8a8a8a8a612c0e565b505050505050505050565b8151835114611e4d5760405162461bcd60e51b815260206004820152602860248201527f455243313135353a2069647320616e6420616d6f756e7473206c656e6774682060448201527f6d69736d617463680000000000000000000000000000000000000000000000006064820152608401610527565b6001600160a01b038416611eb15760405162461bcd60e51b815260206004820152602560248201527f455243313135353a207472616e7366657220746f20746865207a65726f206164604482015264647265737360d81b6064820152608401610527565b3360005b8451811015611ffa576000858281518110611ee057634e487b7160e01b600052603260045260246000fd5b602002602001015190506000858381518110611f0c57634e487b7160e01b600052603260045260246000fd5b60209081029190910181015160008481526001835260408082206001600160a01b038e168352909352919091205490915081811015611fa05760405162461bcd60e51b815260206004820152602a60248201527f455243313135353a20696e73756666696369656e742062616c616e636520666f60448201526939103a3930b739b332b960b11b6064820152608401610527565b60008381526001602090815260408083206001600160a01b038e8116855292528083208585039055908b16825281208054849290611fdf908490613ab9565b9250508190555050505080611ff390613bbf565b9050611eb5565b50846001600160a01b0316866001600160a01b0316826001600160a01b03167f4a39dc06d4c0dbc64b70af90fd698a233a518aa5d07e595d983b8c0526c8f7fb878760405161204a9291906139a8565b60405180910390a4612060818787878787612dc3565b505050505050565b6000546001600160a01b03163314610e275760405162461bcd60e51b815260206004820181905260248201527f4f776e61626c653a2063616c6c6572206973206e6f7420746865206f776e65726044820152606401610527565b600080546001600160a01b038381167fffffffffffffffffffffffff0000000000000000000000000000000000000000831681178455604051919092169283917f8be0079c531659141344cd1fd0a4f28419497f9722a3daafe3b4186f6b6457e09190a35050565b600554604051632061292360e21b81526004810184905260009182916001600160a01b0390911690638184a48c9060240160e06040518083038186803b15801561217357600080fd5b505afa158015612187573d6000803e3d6000fd5b505050506040513d601f19601f820116820180604052508101906121ab9190613764565b90508060200151600014156121c4576000915050610555565b828160a0018181516121d69190613ab9565b90525033606082015260006040808301919091526005549051630fd50f6b60e01b81526001600160a01b0390911690630fd50f6b9061221b90879085906004016139f7565b600060405180830381600087803b15801561223557600080fd5b505af1158015612249573d6000803e3d6000fd5b50506005546040516336be359360e21b8152600481018890526001600160a01b0390911692506349b345c191508690839063daf8d64c9060240160006040518083038186803b15801561229b57600080fd5b505afa1580156122af573d6000803e3d6000fd5b505050506040513d6000823e601f3d908101601f191682016040526122d7919081019061368f565b6040518363ffffffff1660e01b81526004016122f49291906139d6565b600060405180830381600087803b15801561230e57600080fd5b505af1158015612322573d6000803e3d6000fd5b506001979650505050505050565b600082116123805760405162461bcd60e51b815260206004820152601c60248201527f5072696365206d757374206265206174206c65617374203120776569000000006044820152606401610527565b600081116123d05760405162461bcd60e51b815260206004820152601d60248201527f416d6f756e74206d7573742062652067726561746572207468616e20300000006044820152606401610527565b600554604051632061292360e21b8152600481018690526000916001600160a01b031690638184a48c9060240160e06040518083038186803b15801561241557600080fd5b505afa158015612429573d6000803e3d6000fd5b505050506040513d601f19601f8201168201806040525081019061244d9190613764565b905060008160200151116124a35760405162461bcd60e51b815260206004820152600e60248201527f496e76616c696420746f6b656e2e0000000000000000000000000000000000006044820152606401610527565b600554604051632061292360e21b8152600481018690526000916001600160a01b031690638184a48c9060240160e06040518083038186803b1580156124e857600080fd5b505afa1580156124fc573d6000803e3d6000fd5b505050506040513d601f19601f820116820180604052508101906125209190613764565b905080602001516000146125765760405162461bcd60e51b815260206004820152601b60248201527f526573656c6c657220616c7265616479207265676973746572656400000000006044820152606401610527565b6005546040516377ebe35b60e11b8152600481018790526001600160a01b039091169063efd7c6b690602401600060405180830381600087803b1580156125bc57600080fd5b505af11580156125d0573d6000803e3d6000fd5b50506005546040516336be359360e21b8152600481018a90526001600160a01b0390911692506349b345c191508790839063daf8d64c9060240160006040518083038186803b15801561262257600080fd5b505afa158015612636573d6000803e3d6000fd5b505050506040513d6000823e601f3d908101601f1916820160405261265e919081019061368f565b6040518363ffffffff1660e01b815260040161267b9291906139d6565b600060405180830381600087803b15801561269557600080fd5b505af11580156126a9573d6000803e3d6000fd5b50506005546040805160e081018252898152602087810151908201526000818301819052336060830152608082018a905260a0820189905260c08201529051630fd50f6b60e01b81526001600160a01b039092169350630fd50f6b9250612715918991906004016139f7565b600060405180830381600087803b15801561272f57600080fd5b505af1158015612743573d6000803e3d6000fd5b50505050505050505050565b816001600160a01b0316836001600160a01b031614156127d75760405162461bcd60e51b815260206004820152602960248201527f455243313135353a2073657474696e6720617070726f76616c2073746174757360448201527f20666f722073656c6600000000000000000000000000000000000000000000006064820152608401610527565b6001600160a01b03838116600081815260026020908152604080832094871680845294825291829020805460ff191686151590811790915591519182527f17307eab39ab6107e8899845ad3d59bd9653f200f220920489ca2b5937696c31910160405180910390a3505050565b6001600160a01b0384166128c05760405162461bcd60e51b815260206004820152602160248201527f455243313135353a206d696e7420746f20746865207a65726f2061646472657360448201527f73000000000000000000000000000000000000000000000000000000000000006064820152608401610527565b3360006128cc85612bb5565b905060006128d985612bb5565b905060008681526001602090815260408083206001600160a01b038b1684529091528120805487929061290d908490613ab9565b909155505060408051878152602081018790526001600160a01b03808a1692600092918716917fc3d58168c5ae7397731d063d5bbf3d657854427343f4c083240f7aacaa2d0f62910160405180910390a461296d83600089898989612c0e565b50505050505050565b6129808183613af1565b333110156129d05760405162461bcd60e51b815260206004820152601260248201527f496e73756666696369656e742066756e647300000000000000000000000000006044820152606401610527565b60008211612a205760405162461bcd60e51b815260206004820152601c60248201527f5072696365206d757374206265206174206c65617374203120776569000000006044820152606401610527565b600560009054906101000a90046001600160a01b03166001600160a01b03166312e855856040518163ffffffff1660e01b815260040160206040518083038186803b158015612a6e57600080fd5b505afa158015612a82573d6000803e3d6000fd5b505050506040513d601f19601f82011682018060405250810190612aa6919061377f565b3414612b195760405162461bcd60e51b8152602060048201526024808201527f5072696365206d75737420626520657175616c20746f206c697374696e67207060448201527f72696365000000000000000000000000000000000000000000000000000000006064820152608401610527565b6005546040805160e0810182528681526020810186905233818301523060608201526080810185905260a08101849052600060c08201529051630fd50f6b60e01b81526001600160a01b0390921691630fd50f6b91612b7d918891906004016139f7565b600060405180830381600087803b158015612b9757600080fd5b505af1158015612bab573d6000803e3d6000fd5b5050505050505050565b60408051600180825281830190925260609160009190602080830190803683370190505090508281600081518110612bfd57634e487b7160e01b600052603260045260246000fd5b602090810291909101015292915050565b6001600160a01b0384163b156120605760405163f23a6e6160e01b81526001600160a01b0385169063f23a6e6190612c5290899089908890889088906004016138b6565b602060405180830381600087803b158015612c6c57600080fd5b505af1925050508015612c9c575060408051601f3d908101601f19168201909252612c9991810190613673565b60015b612d5257612ca8613c06565b806308c379a01415612ce25750612cbd613c1e565b80612cc85750612ce4565b8060405162461bcd60e51b81526004016105279190613a5a565b505b60405162461bcd60e51b815260206004820152603460248201527f455243313135353a207472616e7366657220746f206e6f6e2d4552433131353560448201527f526563656976657220696d706c656d656e7465720000000000000000000000006064820152608401610527565b6001600160e01b0319811663f23a6e6160e01b1461296d5760405162461bcd60e51b815260206004820152602860248201527f455243313135353a204552433131353552656365697665722072656a656374656044820152676420746f6b656e7360c01b6064820152608401610527565b6001600160a01b0384163b156120605760405163bc197c8160e01b81526001600160a01b0385169063bc197c8190612e079089908990889088908890600401613858565b602060405180830381600087803b158015612e2157600080fd5b505af1925050508015612e51575060408051601f3d908101601f19168201909252612e4e91810190613673565b60015b612e5d57612ca8613c06565b6001600160e01b0319811663bc197c8160e01b1461296d5760405162461bcd60e51b815260206004820152602860248201527f455243313135353a204552433131353552656365697665722072656a656374656044820152676420746f6b656e7360c01b6064820152608401610527565b8051612ed981613ca8565b919050565b60008083601f840112612eef578182fd5b50813567ffffffffffffffff811115612f06578182fd5b6020830191508360208260051b8501011115612f2157600080fd5b9250929050565b600082601f830112612f38578081fd5b81356020612f4582613a6d565b604051612f528282613b92565b8381528281019150858301600585901b87018401881015612f71578586fd5b855b85811015612f8f57813584529284019290840190600101612f73565b5090979650505050505050565b60008083601f840112612fad578182fd5b50813567ffffffffffffffff811115612fc4578182fd5b602083019150836020828501011115612f2157600080fd5b600082601f830112612fec578081fd5b8135612ff781613a91565b6040516130048282613b92565b828152856020848701011115613018578384fd5b82602086016020830137918201602001929092529392505050565b600060e08284031215613044578081fd5b60405160e0810181811067ffffffffffffffff8211171561306757613067613bf0565b8060405250809150825181526020830151602082015261308960408401612ece565b604082015261309a60608401612ece565b60608201526080830151608082015260a083015160a082015260c083015160c08201525092915050565b6000602082840312156130d5578081fd5b8135610ab481613ca8565b6000602082840312156130f1578081fd5b8151610ab481613ca8565b6000806040838503121561310e578081fd5b823561311981613ca8565b9150602083013561312981613ca8565b809150509250929050565b60008060008060008060008060a0898b03121561314f578384fd5b883561315a81613ca8565b9750602089013561316a81613ca8565b9650604089013567ffffffffffffffff80821115613186578586fd5b6131928c838d01612ede565b909850965060608b01359150808211156131aa578586fd5b6131b68c838d01612ede565b909650945060808b01359150808211156131ce578384fd5b506131db8b828c01612f9c565b999c989b5096995094979396929594505050565b600080600080600060a08688031215613206578283fd5b853561321181613ca8565b9450602086013561322181613ca8565b9350604086013567ffffffffffffffff8082111561323d578485fd5b61324989838a01612f28565b9450606088013591508082111561325e578283fd5b61326a89838a01612f28565b9350608088013591508082111561327f578283fd5b5061328c88828901612fdc565b9150509295509295909350565b60008060008060008060a087890312156132b1578384fd5b86356132bc81613ca8565b955060208701356132cc81613ca8565b94506040870135935060608701359250608087013567ffffffffffffffff8111156132f5578283fd5b61330189828a01612f9c565b979a9699509497509295939492505050565b600080600080600060a0868803121561332a578283fd5b853561333581613ca8565b9450602086013561334581613ca8565b93506040860135925060608601359150608086013567ffffffffffffffff81111561336e578182fd5b61328c88828901612fdc565b6000806040838503121561338c578182fd5b823561339781613ca8565b915060208301358015158114613129578182fd5b600080604083850312156133bd578182fd5b82356133c881613ca8565b946020939093013593505050565b600080604083850312156133e8578182fd5b82516133f381613ca8565b6020939093015192949293505050565b600080600060608486031215613417578081fd5b833561342281613ca8565b925060208401359150604084013567ffffffffffffffff811115613444578182fd5b61345086828701612fdc565b9150509250925092565b6000806040838503121561346c578182fd5b823567ffffffffffffffff80821115613483578384fd5b818501915085601f830112613496578384fd5b813560206134a382613a6d565b6040516134b08282613b92565b8381528281019150858301600585901b870184018b10156134cf578889fd5b8896505b848710156134fa5780356134e681613ca8565b8352600196909601959183019183016134d3565b5096505086013592505080821115613510578283fd5b5061351d85828601612f28565b9150509250929050565b60006020808385031215613539578182fd5b825167ffffffffffffffff81111561354f578283fd5b8301601f8101851361355f578283fd5b805161356a81613a6d565b6040516135778282613b92565b828152848101915083850160e0808502860187018a1015613596578788fd5b8795505b848610156135c2576135ac8a83613033565b845260019590950194928601929081019061359a565b509098975050505050505050565b6000602082840312156135e1578081fd5b5035919050565b6000806000606084860312156135fc578081fd5b83359250602084013567ffffffffffffffff811115613619578182fd5b61362586828701612fdc565b925050604084013590509250925092565b60008060408385031215613648578182fd5b50508035926020909101359150565b600060208284031215613668578081fd5b8135610ab481613cbd565b600060208284031215613684578081fd5b8151610ab481613cbd565b6000602082840312156136a0578081fd5b815167ffffffffffffffff8111156136b6578182fd5b8201601f810184136136c6578182fd5b80516136d181613a91565b6040516136de8282613b92565b8281528660208486010111156136f2578485fd5b6119b3836020830160208701613b27565b60008060008060808587031215613718578182fd5b843567ffffffffffffffff81111561372e578283fd5b61373a87828801612fdc565b9450506020850135925060408501359150606085013561375981613cd3565b939692955090935050565b600060e08284031215613775578081fd5b610ab48383613033565b600060208284031215613790578081fd5b5051919050565b6000602082840312156137a8578081fd5b8151610ab481613cd3565b6000815180845260208085019450808401835b838110156137e2578151875295820195908201906001016137c6565b509495945050505050565b60008151808452613805816020860160208601613b27565b601f01601f19169290920160200192915050565b6bffffffffffffffffffffffff198460601b16815282601482015260008251613849816034850160208701613b27565b91909101603401949350505050565b60006001600160a01b03808816835280871660208401525060a0604083015261388460a08301866137b3565b828103606084015261389681866137b3565b905082810360808401526138aa81856137ed565b98975050505050505050565b60006001600160a01b03808816835280871660208401525084604083015283606083015260a060808301526138ee60a08301846137ed565b979650505050505050565b6020808252825182820181905260009190848201906040850190845b8181101561398957613976838551805182526020810151602083015260408101516001600160a01b03808216604085015280606084015116606085015250506080810151608083015260a081015160a083015260c081015160c08301525050565b9284019260e09290920191600101613915565b50909695505050505050565b602081526000610ab460208301846137b3565b6040815260006139bb60408301856137b3565b82810360208401526139cd81856137b3565b95945050505050565b8281526040602082015260006139ef60408301846137ed565b949350505050565b8281526101008101610ab46020830184805182526020810151602083015260408101516001600160a01b03808216604085015280606084015116606085015250506080810151608083015260a081015160a083015260c081015160c08301525050565b602081526000610ab460208301846137ed565b600067ffffffffffffffff821115613a8757613a87613bf0565b5060051b60200190565b600067ffffffffffffffff821115613aab57613aab613bf0565b50601f01601f191660200190565b60008219821115613acc57613acc613bda565b500190565b600082613aec57634e487b7160e01b81526012600452602481fd5b500490565b6000816000190483118215151615613b0b57613b0b613bda565b500290565b600082821015613b2257613b22613bda565b500390565b60005b83811015613b42578181015183820152602001613b2a565b83811115613b51576000848401525b50505050565b600181811c90821680613b6b57607f821691505b60208210811415613b8c57634e487b7160e01b600052602260045260246000fd5b50919050565b601f8201601f1916810167ffffffffffffffff81118282101715613bb857613bb8613bf0565b6040525050565b6000600019821415613bd357613bd3613bda565b5060010190565b634e487b7160e01b600052601160045260246000fd5b634e487b7160e01b600052604160045260246000fd5b600060033d1115613c1b57600481823e5160e01c5b90565b600060443d1015613c2c5790565b6040516003193d81016004833e81513d67ffffffffffffffff8160248401118184111715613c5c57505050505090565b8285019150815181811115613c745750505050505090565b843d8701016020828501011115613c8e5750505050505090565b613c9d60208286010187613b92565b509095945050505050565b6001600160a01b0381168114611ae557600080fd5b6001600160e01b031981168114611ae557600080fd5b6bffffffffffffffffffffffff81168114611ae557600080fdfea26469706673582212208eb8a25bf9ccbd959a76e75fee9a4a9886d03be4c9340f724e36027d90ae777c64736f6c63430008040033",
  "linkReferences": {},
  "deployedLinkReferences": {}
}