{
  "_format": "hh-sol-artifact-1",
  "contractName": "OttoMarketplace",
  "sourceName": "contracts/OttoMarketplace.sol",
  "abi": [
    {
      "inputs": [],
      "stateMutability": "nonpayable",
      "type": "constructor"
    },
    {
      "anonymous": false,
      "inputs": [
        {
          "indexed": true,
          "internalType": "address",
          "name": "account",
          "type": "address"
        },
        {
          "indexed": true,
          "internalType": "address",
          "name": "operator",
          "type": "address"
        },
        {
          "indexed": false,
          "internalType": "bool",
          "name": "approved",
          "type": "bool"
        }
      ],
      "name": "ApprovalForAll",
      "type": "event"
    },
    {
      "anonymous": false,
      "inputs": [
        {
          "indexed": true,
          "internalType": "bytes32",
          "name": "tokenSeller",
          "type": "bytes32"
        },
        {
          "indexed": false,
          "internalType": "uint256",
          "name": "tokenId",
          "type": "uint256"
        },
        {
          "indexed": false,
          "internalType": "address",
          "name": "seller",
          "type": "address"
        },
        {
          "indexed": false,
          "internalType": "address",
          "name": "owner",
          "type": "address"
        },
        {
          "indexed": false,
          "internalType": "uint256",
          "name": "price",
          "type": "uint256"
        },
        {
          "indexed": false,
          "internalType": "uint256",
          "name": "amount",
          "type": "uint256"
        },
        {
          "indexed": false,
          "internalType": "uint256",
          "name": "sold",
          "type": "uint256"
        }
      ],
      "name": "MarketItemCreated",
      "type": "event"
    },
    {
      "anonymous": false,
      "inputs": [
        {
          "indexed": true,
          "internalType": "address",
          "name": "previousOwner",
          "type": "address"
        },
        {
          "indexed": true,
          "internalType": "address",
          "name": "newOwner",
          "type": "address"
        }
      ],
      "name": "OwnershipTransferred",
      "type": "event"
    },
    {
      "anonymous": false,
      "inputs": [
        {
          "indexed": true,
          "internalType": "address",
          "name": "operator",
          "type": "address"
        },
        {
          "indexed": true,
          "internalType": "address",
          "name": "from",
          "type": "address"
        },
        {
          "indexed": true,
          "internalType": "address",
          "name": "to",
          "type": "address"
        },
        {
          "indexed": false,
          "internalType": "uint256[]",
          "name": "ids",
          "type": "uint256[]"
        },
        {
          "indexed": false,
          "internalType": "uint256[]",
          "name": "values",
          "type": "uint256[]"
        }
      ],
      "name": "TransferBatch",
      "type": "event"
    },
    {
      "anonymous": false,
      "inputs": [
        {
          "indexed": true,
          "internalType": "address",
          "name": "operator",
          "type": "address"
        },
        {
          "indexed": true,
          "internalType": "address",
          "name": "from",
          "type": "address"
        },
        {
          "indexed": true,
          "internalType": "address",
          "name": "to",
          "type": "address"
        },
        {
          "indexed": false,
          "internalType": "uint256",
          "name": "id",
          "type": "uint256"
        },
        {
          "indexed": false,
          "internalType": "uint256",
          "name": "value",
          "type": "uint256"
        }
      ],
      "name": "TransferSingle",
      "type": "event"
    },
    {
      "anonymous": false,
      "inputs": [
        {
          "indexed": false,
          "internalType": "string",
          "name": "value",
          "type": "string"
        },
        {
          "indexed": true,
          "internalType": "uint256",
          "name": "id",
          "type": "uint256"
        }
      ],
      "name": "URI",
      "type": "event"
    },
    {
      "inputs": [
        {
          "internalType": "address",
          "name": "account",
          "type": "address"
        },
        {
          "internalType": "uint256",
          "name": "id",
          "type": "uint256"
        }
      ],
      "name": "balanceOf",
      "outputs": [
        {
          "internalType": "uint256",
          "name": "",
          "type": "uint256"
        }
      ],
      "stateMutability": "view",
      "type": "function"
    },
    {
      "inputs": [
        {
          "internalType": "address[]",
          "name": "accounts",
          "type": "address[]"
        },
        {
          "internalType": "uint256[]",
          "name": "ids",
          "type": "uint256[]"
        }
      ],
      "name": "balanceOfBatch",
      "outputs": [
        {
          "internalType": "uint256[]",
          "name": "",
          "type": "uint256[]"
        }
      ],
      "stateMutability": "view",
      "type": "function"
    },
    {
      "inputs": [
        {
          "internalType": "bytes32",
          "name": "_tokenSeller",
          "type": "bytes32"
        },
        {
          "internalType": "uint256",
          "name": "_amount",
          "type": "uint256"
        }
      ],
      "name": "createMarketSale",
      "outputs": [],
      "stateMutability": "payable",
      "type": "function"
    },
    {
      "inputs": [
        {
          "internalType": "string",
          "name": "_tokenURI",
          "type": "string"
        },
        {
          "internalType": "uint256",
          "name": "_price",
          "type": "uint256"
        },
        {
          "internalType": "uint256",
          "name": "_amount",
          "type": "uint256"
        }
      ],
      "name": "createToken",
      "outputs": [
        {
          "internalType": "bytes32",
          "name": "",
          "type": "bytes32"
        }
      ],
      "stateMutability": "payable",
      "type": "function"
    },
    {
      "inputs": [],
      "name": "fetchAllItems",
      "outputs": [
        {
          "components": [
            {
              "internalType": "bytes32",
              "name": "tokenSeller",
              "type": "bytes32"
            },
            {
              "internalType": "uint256",
              "name": "tokenId",
              "type": "uint256"
            },
            {
              "internalType": "address payable",
              "name": "seller",
              "type": "address"
            },
            {
              "internalType": "address payable",
              "name": "owner",
              "type": "address"
            },
            {
              "internalType": "uint256",
              "name": "price",
              "type": "uint256"
            },
            {
              "internalType": "uint256",
              "name": "amount",
              "type": "uint256"
            },
            {
              "internalType": "uint256",
              "name": "sold",
              "type": "uint256"
            }
          ],
          "internalType": "struct OttoMarketplace.MarketItem[]",
          "name": "",
          "type": "tuple[]"
        }
      ],
      "stateMutability": "view",
      "type": "function"
    },
    {
      "inputs": [],
      "name": "fetchItemsListed",
      "outputs": [
        {
          "components": [
            {
              "internalType": "bytes32",
              "name": "tokenSeller",
              "type": "bytes32"
            },
            {
              "internalType": "uint256",
              "name": "tokenId",
              "type": "uint256"
            },
            {
              "internalType": "address payable",
              "name": "seller",
              "type": "address"
            },
            {
              "internalType": "address payable",
              "name": "owner",
              "type": "address"
            },
            {
              "internalType": "uint256",
              "name": "price",
              "type": "uint256"
            },
            {
              "internalType": "uint256",
              "name": "amount",
              "type": "uint256"
            },
            {
              "internalType": "uint256",
              "name": "sold",
              "type": "uint256"
            }
          ],
          "internalType": "struct OttoMarketplace.MarketItem[]",
          "name": "",
          "type": "tuple[]"
        }
      ],
      "stateMutability": "view",
      "type": "function"
    },
    {
      "inputs": [],
      "name": "fetchMarketItems",
      "outputs": [
        {
          "components": [
            {
              "internalType": "bytes32",
              "name": "tokenSeller",
              "type": "bytes32"
            },
            {
              "internalType": "uint256",
              "name": "tokenId",
              "type": "uint256"
            },
            {
              "internalType": "address payable",
              "name": "seller",
              "type": "address"
            },
            {
              "internalType": "address payable",
              "name": "owner",
              "type": "address"
            },
            {
              "internalType": "uint256",
              "name": "price",
              "type": "uint256"
            },
            {
              "internalType": "uint256",
              "name": "amount",
              "type": "uint256"
            },
            {
              "internalType": "uint256",
              "name": "sold",
              "type": "uint256"
            }
          ],
          "internalType": "struct OttoMarketplace.MarketItem[]",
          "name": "",
          "type": "tuple[]"
        }
      ],
      "stateMutability": "view",
      "type": "function"
    },
    {
      "inputs": [],
      "name": "fetchMyNFTs",
      "outputs": [
        {
          "components": [
            {
              "internalType": "bytes32",
              "name": "tokenSeller",
              "type": "bytes32"
            },
            {
              "internalType": "uint256",
              "name": "tokenId",
              "type": "uint256"
            },
            {
              "internalType": "address payable",
              "name": "seller",
              "type": "address"
            },
            {
              "internalType": "address payable",
              "name": "owner",
              "type": "address"
            },
            {
              "internalType": "uint256",
              "name": "price",
              "type": "uint256"
            },
            {
              "internalType": "uint256",
              "name": "amount",
              "type": "uint256"
            },
            {
              "internalType": "uint256",
              "name": "sold",
              "type": "uint256"
            }
          ],
          "internalType": "struct OttoMarketplace.MarketItem[]",
          "name": "",
          "type": "tuple[]"
        }
      ],
      "stateMutability": "view",
      "type": "function"
    },
    {
      "inputs": [],
      "name": "getListingPrice",
      "outputs": [
        {
          "internalType": "uint256",
          "name": "",
          "type": "uint256"
        }
      ],
      "stateMutability": "view",
      "type": "function"
    },
    {
      "inputs": [
        {
          "internalType": "address",
          "name": "_addr",
          "type": "address"
        },
        {
          "internalType": "uint256",
          "name": "_tokenId",
          "type": "uint256"
        },
        {
          "internalType": "string",
          "name": "_text",
          "type": "string"
        }
      ],
      "name": "hash",
      "outputs": [
        {
          "internalType": "bytes32",
          "name": "",
          "type": "bytes32"
        }
      ],
      "stateMutability": "pure",
      "type": "function"
    },
    {
      "inputs": [
        {
          "internalType": "address",
          "name": "account",
          "type": "address"
        },
        {
          "internalType": "address",
          "name": "operator",
          "type": "address"
        }
      ],
      "name": "isApprovedForAll",
      "outputs": [
        {
          "internalType": "bool",
          "name": "",
          "type": "bool"
        }
      ],
      "stateMutability": "view",
      "type": "function"
    },
    {
      "inputs": [
        {
          "internalType": "address",
          "name": "operator",
          "type": "address"
        },
        {
          "internalType": "address",
          "name": "from",
          "type": "address"
        },
        {
          "internalType": "uint256[]",
          "name": "ids",
          "type": "uint256[]"
        },
        {
          "internalType": "uint256[]",
          "name": "values",
          "type": "uint256[]"
        },
        {
          "internalType": "bytes",
          "name": "data",
          "type": "bytes"
        }
      ],
      "name": "onERC1155BatchReceived",
      "outputs": [
        {
          "internalType": "bytes4",
          "name": "",
          "type": "bytes4"
        }
      ],
      "stateMutability": "nonpayable",
      "type": "function"
    },
    {
      "inputs": [
        {
          "internalType": "address",
          "name": "operator",
          "type": "address"
        },
        {
          "internalType": "address",
          "name": "from",
          "type": "address"
        },
        {
          "internalType": "uint256",
          "name": "id",
          "type": "uint256"
        },
        {
          "internalType": "uint256",
          "name": "value",
          "type": "uint256"
        },
        {
          "internalType": "bytes",
          "name": "data",
          "type": "bytes"
        }
      ],
      "name": "onERC1155Received",
      "outputs": [
        {
          "internalType": "bytes4",
          "name": "",
          "type": "bytes4"
        }
      ],
      "stateMutability": "nonpayable",
      "type": "function"
    },
    {
      "inputs": [],
      "name": "owner",
      "outputs": [
        {
          "internalType": "address",
          "name": "",
          "type": "address"
        }
      ],
      "stateMutability": "view",
      "type": "function"
    },
    {
      "inputs": [],
      "name": "renounceOwnership",
      "outputs": [],
      "stateMutability": "nonpayable",
      "type": "function"
    },
    {
      "inputs": [
        {
          "internalType": "bytes32",
          "name": "_tokenSeller",
          "type": "bytes32"
        },
        {
          "internalType": "string",
          "name": "_tokenURI",
          "type": "string"
        },
        {
          "internalType": "uint256",
          "name": "_price",
          "type": "uint256"
        }
      ],
      "name": "resellToken",
      "outputs": [],
      "stateMutability": "payable",
      "type": "function"
    },
    {
      "inputs": [
        {
          "internalType": "uint256",
          "name": "_tokenId",
          "type": "uint256"
        },
        {
          "internalType": "uint256",
          "name": "_salePrice",
          "type": "uint256"
        }
      ],
      "name": "royaltyInfo",
      "outputs": [
        {
          "internalType": "address",
          "name": "",
          "type": "address"
        },
        {
          "internalType": "uint256",
          "name": "",
          "type": "uint256"
        }
      ],
      "stateMutability": "view",
      "type": "function"
    },
    {
      "inputs": [
        {
          "internalType": "address",
          "name": "from",
          "type": "address"
        },
        {
          "internalType": "address",
          "name": "to",
          "type": "address"
        },
        {
          "internalType": "uint256[]",
          "name": "ids",
          "type": "uint256[]"
        },
        {
          "internalType": "uint256[]",
          "name": "amounts",
          "type": "uint256[]"
        },
        {
          "internalType": "bytes",
          "name": "data",
          "type": "bytes"
        }
      ],
      "name": "safeBatchTransferFrom",
      "outputs": [],
      "stateMutability": "nonpayable",
      "type": "function"
    },
    {
      "inputs": [
        {
          "internalType": "address",
          "name": "from",
          "type": "address"
        },
        {
          "internalType": "address",
          "name": "to",
          "type": "address"
        },
        {
          "internalType": "uint256",
          "name": "id",
          "type": "uint256"
        },
        {
          "internalType": "uint256",
          "name": "amount",
          "type": "uint256"
        },
        {
          "internalType": "bytes",
          "name": "data",
          "type": "bytes"
        }
      ],
      "name": "safeTransferFrom",
      "outputs": [],
      "stateMutability": "nonpayable",
      "type": "function"
    },
    {
      "inputs": [
        {
          "internalType": "address",
          "name": "operator",
          "type": "address"
        },
        {
          "internalType": "bool",
          "name": "approved",
          "type": "bool"
        }
      ],
      "name": "setApprovalForAll",
      "outputs": [],
      "stateMutability": "nonpayable",
      "type": "function"
    },
    {
      "inputs": [
        {
          "internalType": "bytes4",
          "name": "interfaceId",
          "type": "bytes4"
        }
      ],
      "name": "supportsInterface",
      "outputs": [
        {
          "internalType": "bool",
          "name": "",
          "type": "bool"
        }
      ],
      "stateMutability": "view",
      "type": "function"
    },
    {
      "inputs": [
        {
          "internalType": "bytes32",
          "name": "_tokenSeller",
          "type": "bytes32"
        }
      ],
      "name": "tokenURI",
      "outputs": [
        {
          "internalType": "string",
          "name": "",
          "type": "string"
        }
      ],
      "stateMutability": "view",
      "type": "function"
    },
    {
      "inputs": [
        {
          "internalType": "address",
          "name": "newOwner",
          "type": "address"
        }
      ],
      "name": "transferOwnership",
      "outputs": [],
      "stateMutability": "nonpayable",
      "type": "function"
    },
    {
      "inputs": [
        {
          "internalType": "uint256",
          "name": "_listingPrice",
          "type": "uint256"
        }
      ],
      "name": "updateListingPrice",
      "outputs": [],
      "stateMutability": "payable",
      "type": "function"
    },
    {
      "inputs": [
        {
          "internalType": "uint256",
          "name": "",
          "type": "uint256"
        }
      ],
      "name": "uri",
      "outputs": [
        {
          "internalType": "string",
          "name": "",
          "type": "string"
        }
      ],
      "stateMutability": "view",
      "type": "function"
    }
  ],
  "bytecode": "0x60806040526658d15e17628000600a553480156200001c57600080fd5b506040518060400160405280601081526020017f4f74746f204d61726b6574706c6163650000000000000000000000000000000081525062000064816200009360201b60201c565b5060016003819055506200008d62000081620000af60201b60201c565b620000b760201b60201c565b62000292565b8060029080519060200190620000ab9291906200017d565b5050565b600033905090565b6000600460009054906101000a900473ffffffffffffffffffffffffffffffffffffffff16905081600460006101000a81548173ffffffffffffffffffffffffffffffffffffffff021916908373ffffffffffffffffffffffffffffffffffffffff1602179055508173ffffffffffffffffffffffffffffffffffffffff168173ffffffffffffffffffffffffffffffffffffffff167f8be0079c531659141344cd1fd0a4f28419497f9722a3daafe3b4186f6b6457e060405160405180910390a35050565b8280546200018b906200022d565b90600052602060002090601f016020900481019282620001af5760008555620001fb565b82601f10620001ca57805160ff1916838001178555620001fb565b82800160010185558215620001fb579182015b82811115620001fa578251825591602001919060010190620001dd565b5b5090506200020a91906200020e565b5090565b5b80821115620002295760008160009055506001016200020f565b5090565b600060028204905060018216806200024657607f821691505b602082108114156200025d576200025c62000263565b5b50919050565b7f4e487b7100000000000000000000000000000000000000000000000000000000600052602260045260246000fd5b61640080620002a26000396000f3fe6080604052600436106101655760003560e01c8063715018a6116100d1578063afbb8d511161008a578063e985e9c511610064578063e985e9c514610542578063f23a6e611461057f578063f242432a146105bc578063f2fde38b146105e557610165565b8063afbb8d5114610498578063bc197c81146104d5578063bec2a7c51461051257610165565b8063715018a6146103ca5780637f584231146103e15780638da5cb5b146103fd57806397598cc314610428578063a22cb46514610453578063ae677aa31461047c57610165565b8063202e374011610123578063202e37401461029357806320879c19146102be5780632a55205a146102fb5780632eb2c2d61461033957806345f8fa80146103625780634e1273f41461038d57610165565b8062fdd58e1461016a57806301ffc9a7146101a75780630e89341c146101e45780630f08efe01461022157806312e855851461024c5780631c36eabb14610277575b600080fd5b34801561017657600080fd5b50610191600480360381019061018c919061466b565b61060e565b60405161019e91906155a0565b60405180910390f35b3480156101b357600080fd5b506101ce60048036038101906101c99190614846565b6106d7565b6040516101db91906151d6565b60405180910390f35b3480156101f057600080fd5b5061020b600480360381019061020691906148ff565b6106e9565b6040516102189190615227565b60405180910390f35b34801561022d57600080fd5b5061023661077d565b604051610243919061515b565b60405180910390f35b34801561025857600080fd5b50610261610b57565b60405161026e91906155a0565b60405180910390f35b610291600480360381019061028c91906147a3565b610b61565b005b34801561029f57600080fd5b506102a8610e1d565b6040516102b5919061515b565b60405180910390f35b3480156102ca57600080fd5b506102e560048036038101906102e091906146a7565b6111f7565b6040516102f291906151f1565b60405180910390f35b34801561030757600080fd5b50610322600480360381019061031d9190614928565b61122d565b604051610330929190615132565b60405180910390f35b34801561034557600080fd5b50610360600480360381019061035b919061444f565b611418565b005b34801561036e57600080fd5b506103776114b9565b604051610384919061515b565b60405180910390f35b34801561039957600080fd5b506103b460048036038101906103af919061470e565b611a11565b6040516103c1919061517d565b60405180910390f35b3480156103d657600080fd5b506103df611bc2565b005b6103fb60048036038101906103f6919061480a565b611bd6565b005b34801561040957600080fd5b50610412612175565b60405161041f9190614ffd565b60405180910390f35b34801561043457600080fd5b5061043d61219f565b60405161044a919061515b565b60405180910390f35b34801561045f57600080fd5b5061047a6004803603810190610475919061462f565b612416565b005b610496600480360381019061049191906148ff565b61242c565b005b3480156104a457600080fd5b506104bf60048036038101906104ba919061477a565b61243e565b6040516104cc9190615227565b60405180910390f35b3480156104e157600080fd5b506104fc60048036038101906104f79190614383565b6124e3565b604051610509919061520c565b60405180910390f35b61052c60048036038101906105279190614898565b6124fb565b60405161053991906151f1565b60405180910390f35b34801561054e57600080fd5b5061056960048036038101906105649190614347565b612599565b60405161057691906151d6565b60405180910390f35b34801561058b57600080fd5b506105a660048036038101906105a1919061450e565b61262d565b6040516105b3919061520c565b60405180910390f35b3480156105c857600080fd5b506105e360048036038101906105de91906145a0565b612643565b005b3480156105f157600080fd5b5061060c6004803603810190610607919061431e565b6126e4565b005b60008073ffffffffffffffffffffffffffffffffffffffff168373ffffffffffffffffffffffffffffffffffffffff16141561067f576040517f08c379a000000000000000000000000000000000000000000000000000000000815260040161067690615360565b60405180910390fd5b60008083815260200190815260200160002060008473ffffffffffffffffffffffffffffffffffffffff1673ffffffffffffffffffffffffffffffffffffffff16815260200190815260200160002054905092915050565b60006106e282612768565b9050919050565b6060600280546106f890615a33565b80601f016020809104026020016040519081016040528092919081815260200182805461072490615a33565b80156107715780601f1061074657610100808354040283529160200191610771565b820191906000526020600020905b81548152906001019060200180831161075457829003601f168201915b50505050509050919050565b606060008060005b600b80549050811015610863573073ffffffffffffffffffffffffffffffffffffffff16600c6000600b84815481106107e7577f4e487b7100000000000000000000000000000000000000000000000000000000600052603260045260246000fd5b9060005260206000200154815260200190815260200160002060030160009054906101000a900473ffffffffffffffffffffffffffffffffffffffff1673ffffffffffffffffffffffffffffffffffffffff1614156108505760018261084d919061583a565b91505b808061085b90615a96565b915050610785565b5060008167ffffffffffffffff8111156108a6577f4e487b7100000000000000000000000000000000000000000000000000000000600052604160045260246000fd5b6040519080825280602002602001820160405280156108df57816020015b6108cc613f01565b8152602001906001900390816108c45790505b50905060005b600b80549050811015610b4d573073ffffffffffffffffffffffffffffffffffffffff16600c6000600b8481548110610947577f4e487b7100000000000000000000000000000000000000000000000000000000600052603260045260246000fd5b9060005260206000200154815260200190815260200160002060030160009054906101000a900473ffffffffffffffffffffffffffffffffffffffff1673ffffffffffffffffffffffffffffffffffffffff161415610b3a576000600c6000600b84815481106109e0577f4e487b7100000000000000000000000000000000000000000000000000000000600052603260045260246000fd5b906000526020600020015481526020019081526020016000209050806040518060e001604052908160008201548152602001600182015481526020016002820160009054906101000a900473ffffffffffffffffffffffffffffffffffffffff1673ffffffffffffffffffffffffffffffffffffffff1673ffffffffffffffffffffffffffffffffffffffff1681526020016003820160009054906101000a900473ffffffffffffffffffffffffffffffffffffffff1673ffffffffffffffffffffffffffffffffffffffff1673ffffffffffffffffffffffffffffffffffffffff1681526020016004820154815260200160058201548152602001600682015481525050838681518110610b1e577f4e487b7100000000000000000000000000000000000000000000000000000000600052603260045260246000fd5b6020026020010181905250600185610b36919061583a565b9450505b8080610b4590615a96565b9150506108e5565b5080935050505090565b6000600a54905090565b3373ffffffffffffffffffffffffffffffffffffffff16600c600085815260200190815260200160002060030160009054906101000a900473ffffffffffffffffffffffffffffffffffffffff1673ffffffffffffffffffffffffffffffffffffffff1614610c05576040517f08c379a0000000000000000000000000000000000000000000000000000000008152600401610bfc90615400565b60405180910390fd5b6000600c60008581526020019081526020016000206001015490506000610c2c338361060e565b1015610c6d576040517f08c379a0000000000000000000000000000000000000000000000000000000008152600401610c64906154a0565b60405180910390fd5b600a54341015610cb2576040517f08c379a0000000000000000000000000000000000000000000000000000000008152600401610ca990615520565b60405180910390fd5b6000600c60008681526020019081526020016000206005015490506000600c600087815260200190815260200160002060060154905083600c60008881526020019081526020016000206004018190555033600c600088815260200190815260200160002060020160006101000a81548173ffffffffffffffffffffffffffffffffffffffff021916908373ffffffffffffffffffffffffffffffffffffffff16021790555030600c600088815260200190815260200160002060030160006101000a81548173ffffffffffffffffffffffffffffffffffffffff021916908373ffffffffffffffffffffffffffffffffffffffff160217905550610db786866127e2565b610dd333308585604051806020016040528060008152506128cb565b857f23988277d8656ff8d71dfb986b4a661fae428032d9e367523d4475d2cd4ab3bc843330888787604051610e0d9695949392919061561c565b60405180910390a2505050505050565b606060008060005b600b80549050811015610f03573373ffffffffffffffffffffffffffffffffffffffff16600c6000600b8481548110610e87577f4e487b7100000000000000000000000000000000000000000000000000000000600052603260045260246000fd5b9060005260206000200154815260200190815260200160002060030160009054906101000a900473ffffffffffffffffffffffffffffffffffffffff1673ffffffffffffffffffffffffffffffffffffffff161415610ef057600183610eed919061583a565b92505b8080610efb90615a96565b915050610e25565b5060008267ffffffffffffffff811115610f46577f4e487b7100000000000000000000000000000000000000000000000000000000600052604160045260246000fd5b604051908082528060200260200182016040528015610f7f57816020015b610f6c613f01565b815260200190600190039081610f645790505b50905060005b600b805490508110156111ed573373ffffffffffffffffffffffffffffffffffffffff16600c6000600b8481548110610fe7577f4e487b7100000000000000000000000000000000000000000000000000000000600052603260045260246000fd5b9060005260206000200154815260200190815260200160002060030160009054906101000a900473ffffffffffffffffffffffffffffffffffffffff1673ffffffffffffffffffffffffffffffffffffffff1614156111da576000600c6000600b8481548110611080577f4e487b7100000000000000000000000000000000000000000000000000000000600052603260045260246000fd5b906000526020600020015481526020019081526020016000209050806040518060e001604052908160008201548152602001600182015481526020016002820160009054906101000a900473ffffffffffffffffffffffffffffffffffffffff1673ffffffffffffffffffffffffffffffffffffffff1673ffffffffffffffffffffffffffffffffffffffff1681526020016003820160009054906101000a900473ffffffffffffffffffffffffffffffffffffffff1673ffffffffffffffffffffffffffffffffffffffff1673ffffffffffffffffffffffffffffffffffffffff16815260200160048201548152602001600582015481526020016006820154815250508385815181106111be577f4e487b7100000000000000000000000000000000000000000000000000000000600052603260045260246000fd5b60200260200101819052506001846111d6919061583a565b9350505b80806111e590615a96565b915050610f85565b5080935050505090565b600083838360405160200161120e93929190614fc4565b6040516020818303038152906040528051906020012090509392505050565b6000806000600660008681526020019081526020016000206040518060400160405290816000820160009054906101000a900473ffffffffffffffffffffffffffffffffffffffff1673ffffffffffffffffffffffffffffffffffffffff1673ffffffffffffffffffffffffffffffffffffffff1681526020016000820160149054906101000a90046bffffffffffffffffffffffff166bffffffffffffffffffffffff166bffffffffffffffffffffffff16815250509050600073ffffffffffffffffffffffffffffffffffffffff16816000015173ffffffffffffffffffffffffffffffffffffffff1614156113c35760056040518060400160405290816000820160009054906101000a900473ffffffffffffffffffffffffffffffffffffffff1673ffffffffffffffffffffffffffffffffffffffff1673ffffffffffffffffffffffffffffffffffffffff1681526020016000820160149054906101000a90046bffffffffffffffffffffffff166bffffffffffffffffffffffff166bffffffffffffffffffffffff168152505090505b60006113cd612b67565b6bffffffffffffffffffffffff1682602001516bffffffffffffffffffffffff16866113f991906158c1565b6114039190615890565b90508160000151819350935050509250929050565b611420612b71565b73ffffffffffffffffffffffffffffffffffffffff168573ffffffffffffffffffffffffffffffffffffffff161480611466575061146585611460612b71565b612599565b5b6114a5576040517f08c379a000000000000000000000000000000000000000000000000000000000815260040161149c906152c0565b60405180910390fd5b6114b28585858585612b79565b5050505050565b606060008060005b600b8054905081101561165e573373ffffffffffffffffffffffffffffffffffffffff16600c6000600b8481548110611523577f4e487b7100000000000000000000000000000000000000000000000000000000600052603260045260246000fd5b9060005260206000200154815260200190815260200160002060020160009054906101000a900473ffffffffffffffffffffffffffffffffffffffff1673ffffffffffffffffffffffffffffffffffffffff161480156116365750600c6000600b83815481106115bc577f4e487b7100000000000000000000000000000000000000000000000000000000600052603260045260246000fd5b9060005260206000200154815260200190815260200160002060050154600c6000600b8481548110611617577f4e487b7100000000000000000000000000000000000000000000000000000000600052603260045260246000fd5b9060005260206000200154815260200190815260200160002060060154105b1561164b57600183611648919061583a565b92505b808061165690615a96565b9150506114c1565b5060008267ffffffffffffffff8111156116a1577f4e487b7100000000000000000000000000000000000000000000000000000000600052604160045260246000fd5b6040519080825280602002602001820160405280156116da57816020015b6116c7613f01565b8152602001906001900390816116bf5790505b50905060005b600b80549050811015611a07573373ffffffffffffffffffffffffffffffffffffffff16600c6000600b8481548110611742577f4e487b7100000000000000000000000000000000000000000000000000000000600052603260045260246000fd5b9060005260206000200154815260200190815260200160002060020160009054906101000a900473ffffffffffffffffffffffffffffffffffffffff1673ffffffffffffffffffffffffffffffffffffffff161480156118555750600c6000600b83815481106117db577f4e487b7100000000000000000000000000000000000000000000000000000000600052603260045260246000fd5b9060005260206000200154815260200190815260200160002060050154600c6000600b8481548110611836577f4e487b7100000000000000000000000000000000000000000000000000000000600052603260045260246000fd5b9060005260206000200154815260200190815260200160002060060154105b156119f4576000600c6000600b848154811061189a577f4e487b7100000000000000000000000000000000000000000000000000000000600052603260045260246000fd5b906000526020600020015481526020019081526020016000209050806040518060e001604052908160008201548152602001600182015481526020016002820160009054906101000a900473ffffffffffffffffffffffffffffffffffffffff1673ffffffffffffffffffffffffffffffffffffffff1673ffffffffffffffffffffffffffffffffffffffff1681526020016003820160009054906101000a900473ffffffffffffffffffffffffffffffffffffffff1673ffffffffffffffffffffffffffffffffffffffff1673ffffffffffffffffffffffffffffffffffffffff16815260200160048201548152602001600582015481526020016006820154815250508385815181106119d8577f4e487b7100000000000000000000000000000000000000000000000000000000600052603260045260246000fd5b60200260200101819052506001846119f0919061583a565b9350505b80806119ff90615a96565b9150506116e0565b5080935050505090565b60608151835114611a57576040517f08c379a0000000000000000000000000000000000000000000000000000000008152600401611a4e906154e0565b60405180910390fd5b6000835167ffffffffffffffff811115611a9a577f4e487b7100000000000000000000000000000000000000000000000000000000600052604160045260246000fd5b604051908082528060200260200182016040528015611ac85781602001602082028036833780820191505090505b50905060005b8451811015611bb757611b61858281518110611b13577f4e487b7100000000000000000000000000000000000000000000000000000000600052603260045260246000fd5b6020026020010151858381518110611b54577f4e487b7100000000000000000000000000000000000000000000000000000000600052603260045260246000fd5b602002602001015161060e565b828281518110611b9a577f4e487b7100000000000000000000000000000000000000000000000000000000600052603260045260246000fd5b60200260200101818152505080611bb090615a96565b9050611ace565b508091505092915050565b611bca612ee7565b611bd46000612f65565b565b60026003541415611c1c576040517f08c379a0000000000000000000000000000000000000000000000000000000008152600401611c1390615560565b60405180910390fd5b600260038190555060008111611c67576040517f08c379a0000000000000000000000000000000000000000000000000000000008152600401611c5e906152a0565b60405180910390fd5b6000600c600084815260200190815260200160002060010154905060008111611cc5576040517f08c379a0000000000000000000000000000000000000000000000000000000008152600401611cbc90615320565b60405180910390fd5b6000600c600085815260200190815260200160002060060154600c600086815260200190815260200160002060050154611cff919061591b565b905080831115611d44576040517f08c379a0000000000000000000000000000000000000000000000000000000008152600401611d3b90615480565b60405180910390fd5b6000600c60008681526020019081526020016000206004015490508381611d6b91906158c1565b3414611dac576040517f08c379a0000000000000000000000000000000000000000000000000000000008152600401611da3906153c0565b60405180910390fd5b6000600a6fffffffffffffffffffffffffffffffff1660036fffffffffffffffffffffffffffffffff1634611de191906158c1565b611deb9190615890565b9050611df5612175565b73ffffffffffffffffffffffffffffffffffffffff166108fc600a549081150290604051600060405180830381858888f19350505050158015611e3c573d6000803e3d6000fd5b50734f1401d78d87b1025423f4f7a478f3164cf3b2f873ffffffffffffffffffffffffffffffffffffffff166108fc829081150290604051600060405180830381858888f19350505050158015611e97573d6000803e3d6000fd5b50600c600087815260200190815260200160002060020160009054906101000a900473ffffffffffffffffffffffffffffffffffffffff1673ffffffffffffffffffffffffffffffffffffffff168134611ef1919061591b565b611388905050506000611f143386604051806020016040528060008152506111f7565b90506000600c60008381526020019081526020016000206001015411156120245785600c60008381526020019081526020016000206005016000828254611f5b919061583a565b9250508190555033600c600083815260200190815260200160002060030160006101000a81548173ffffffffffffffffffffffffffffffffffffffff021916908373ffffffffffffffffffffffffffffffffffffffff1602179055506000600c600083815260200190815260200160002060020160006101000a81548173ffffffffffffffffffffffffffffffffffffffff021916908373ffffffffffffffffffffffffffffffffffffffff16021790555061201f8161201a8961243e565b6127e2565b612031565b6120308782858961302b565b5b85600c60008981526020019081526020016000206006016000828254612057919061583a565b925050819055503073ffffffffffffffffffffffffffffffffffffffff1663f242432a3033888a6040518563ffffffff1660e01b815260040161209d94939291906150da565b600060405180830381600087803b1580156120b757600080fd5b505af11580156120cb573d6000803e3d6000fd5b50505050600c600088815260200190815260200160002060060154600c6000898152602001908152602001600020600501541415612164576000600c600089815260200190815260200160002060030160006101000a81548173ffffffffffffffffffffffffffffffffffffffff021916908373ffffffffffffffffffffffffffffffffffffffff16021790555061216360096132e1565b5b505050505060016003819055505050565b6000600460009054906101000a900473ffffffffffffffffffffffffffffffffffffffff16905090565b606060008060005b600b805490508110156121d6576001826121c1919061583a565b915080806121ce90615a96565b9150506121a7565b5060008167ffffffffffffffff811115612219577f4e487b7100000000000000000000000000000000000000000000000000000000600052604160045260246000fd5b60405190808252806020026020018201604052801561225257816020015b61223f613f01565b8152602001906001900390816122375790505b50905060005b8281101561240c576000600c6000600b84815481106122a0577f4e487b7100000000000000000000000000000000000000000000000000000000600052603260045260246000fd5b906000526020600020015481526020019081526020016000209050806040518060e001604052908160008201548152602001600182015481526020016002820160009054906101000a900473ffffffffffffffffffffffffffffffffffffffff1673ffffffffffffffffffffffffffffffffffffffff1673ffffffffffffffffffffffffffffffffffffffff1681526020016003820160009054906101000a900473ffffffffffffffffffffffffffffffffffffffff1673ffffffffffffffffffffffffffffffffffffffff1673ffffffffffffffffffffffffffffffffffffffff16815260200160048201548152602001600582015481526020016006820154815250508386815181106123de577f4e487b7100000000000000000000000000000000000000000000000000000000600052603260045260246000fd5b60200260200101819052506001856123f6919061583a565b945050808061240490615a96565b915050612258565b5080935050505090565b612428612421612b71565b83836132f7565b5050565b612434612ee7565b80600a8190555050565b606060076000838152602001908152602001600020805461245e90615a33565b80601f016020809104026020016040519081016040528092919081815260200182805461248a90615a33565b80156124d75780601f106124ac576101008083540402835291602001916124d7565b820191906000526020600020905b8154815290600101906020018083116124ba57829003601f168201915b50505050509050919050565b600063bc197c8160e01b905098975050505050505050565b600061250760086132e1565b60006125136008613464565b905060006125313383604051806020016040528060008152506111f7565b905061254e30838660405180602001604052806000815250613472565b600b81908060018154018082558091505060019003906000526020600020016000909190919091505561258181876127e2565b61258d81838787613623565b80925050509392505050565b6000600160008473ffffffffffffffffffffffffffffffffffffffff1673ffffffffffffffffffffffffffffffffffffffff16815260200190815260200160002060008373ffffffffffffffffffffffffffffffffffffffff1673ffffffffffffffffffffffffffffffffffffffff16815260200190815260200160002060009054906101000a900460ff16905092915050565b600063f23a6e6160e01b90509695505050505050565b61264b612b71565b73ffffffffffffffffffffffffffffffffffffffff168573ffffffffffffffffffffffffffffffffffffffff16148061269157506126908561268b612b71565b612599565b5b6126d0576040517f08c379a00000000000000000000000000000000000000000000000000000000081526004016126c7906152c0565b60405180910390fd5b6126dd85858585856128cb565b5050505050565b6126ec612ee7565b600073ffffffffffffffffffffffffffffffffffffffff168173ffffffffffffffffffffffffffffffffffffffff16141561275c576040517f08c379a000000000000000000000000000000000000000000000000000000000815260040161275390615300565b60405180910390fd5b61276581612f65565b50565b60007f2a55205a000000000000000000000000000000000000000000000000000000007bffffffffffffffffffffffffffffffffffffffffffffffffffffffff1916827bffffffffffffffffffffffffffffffffffffffffffffffffffffffff191614806127db57506127da82613829565b5b9050919050565b61289f6040518060600160405280602181526020016163aa6021913960076000858152602001908152602001600020805461281c90615a33565b80601f016020809104026020016040519081016040528092919081815260200182805461284890615a33565b80156128955780601f1061286a57610100808354040283529160200191612895565b820191906000526020600020905b81548152906001019060200180831161287857829003601f168201915b505050505061390b565b806007600084815260200190815260200160002090805190602001906128c6929190613f6d565b505050565b600073ffffffffffffffffffffffffffffffffffffffff168473ffffffffffffffffffffffffffffffffffffffff16141561293b576040517f08c379a0000000000000000000000000000000000000000000000000000000008152600401612932906153a0565b60405180910390fd5b6000612945612b71565b90506000612952856139a7565b9050600061295f856139a7565b905061296f838989858589613a6d565b600080600088815260200190815260200160002060008a73ffffffffffffffffffffffffffffffffffffffff1673ffffffffffffffffffffffffffffffffffffffff16815260200190815260200160002054905085811015612a06576040517f08c379a00000000000000000000000000000000000000000000000000000000081526004016129fd906153e0565b60405180910390fd5b85810360008089815260200190815260200160002060008b73ffffffffffffffffffffffffffffffffffffffff1673ffffffffffffffffffffffffffffffffffffffff168152602001908152602001600020819055508560008089815260200190815260200160002060008a73ffffffffffffffffffffffffffffffffffffffff1673ffffffffffffffffffffffffffffffffffffffff1681526020019081526020016000206000828254612abb919061583a565b925050819055508773ffffffffffffffffffffffffffffffffffffffff168973ffffffffffffffffffffffffffffffffffffffff168573ffffffffffffffffffffffffffffffffffffffff167fc3d58168c5ae7397731d063d5bbf3d657854427343f4c083240f7aacaa2d0f628a8a604051612b3892919061567d565b60405180910390a4612b4e848a8a86868a613a75565b612b5c848a8a8a8a8a613a7d565b505050505050505050565b6000612710905090565b600033905090565b8151835114612bbd576040517f08c379a0000000000000000000000000000000000000000000000000000000008152600401612bb490615500565b60405180910390fd5b600073ffffffffffffffffffffffffffffffffffffffff168473ffffffffffffffffffffffffffffffffffffffff161415612c2d576040517f08c379a0000000000000000000000000000000000000000000000000000000008152600401612c24906153a0565b60405180910390fd5b6000612c37612b71565b9050612c47818787878787613a6d565b60005b8451811015612e44576000858281518110612c8e577f4e487b7100000000000000000000000000000000000000000000000000000000600052603260045260246000fd5b602002602001015190506000858381518110612cd3577f4e487b7100000000000000000000000000000000000000000000000000000000600052603260045260246000fd5b60200260200101519050600080600084815260200190815260200160002060008b73ffffffffffffffffffffffffffffffffffffffff1673ffffffffffffffffffffffffffffffffffffffff16815260200190815260200160002054905081811015612d74576040517f08c379a0000000000000000000000000000000000000000000000000000000008152600401612d6b906153e0565b60405180910390fd5b81810360008085815260200190815260200160002060008c73ffffffffffffffffffffffffffffffffffffffff1673ffffffffffffffffffffffffffffffffffffffff168152602001908152602001600020819055508160008085815260200190815260200160002060008b73ffffffffffffffffffffffffffffffffffffffff1673ffffffffffffffffffffffffffffffffffffffff1681526020019081526020016000206000828254612e29919061583a565b9250508190555050505080612e3d90615a96565b9050612c4a565b508473ffffffffffffffffffffffffffffffffffffffff168673ffffffffffffffffffffffffffffffffffffffff168273ffffffffffffffffffffffffffffffffffffffff167f4a39dc06d4c0dbc64b70af90fd698a233a518aa5d07e595d983b8c0526c8f7fb8787604051612ebb92919061519f565b60405180910390a4612ed1818787878787613a75565b612edf818787878787613c64565b505050505050565b612eef612b71565b73ffffffffffffffffffffffffffffffffffffffff16612f0d612175565b73ffffffffffffffffffffffffffffffffffffffff1614612f63576040517f08c379a0000000000000000000000000000000000000000000000000000000008152600401612f5a90615420565b60405180910390fd5b565b6000600460009054906101000a900473ffffffffffffffffffffffffffffffffffffffff16905081600460006101000a81548173ffffffffffffffffffffffffffffffffffffffff021916908373ffffffffffffffffffffffffffffffffffffffff1602179055508173ffffffffffffffffffffffffffffffffffffffff168173ffffffffffffffffffffffffffffffffffffffff167f8be0079c531659141344cd1fd0a4f28419497f9722a3daafe3b4186f6b6457e060405160405180910390a35050565b6000821161306e576040517f08c379a000000000000000000000000000000000000000000000000000000000815260040161306590615580565b60405180910390fd5b600081116130b1576040517f08c379a00000000000000000000000000000000000000000000000000000000081526004016130a890615340565b60405180910390fd5b6000600c60008681526020019081526020016000206001015490506000811161310f576040517f08c379a000000000000000000000000000000000000000000000000000000000815260040161310690615380565b60405180910390fd5b6000600c60008681526020019081526020016000206001015414613168576040517f08c379a000000000000000000000000000000000000000000000000000000000815260040161315f90615440565b60405180910390fd5b600b8490806001815401808255809150506001900390600052602060002001600090919091909150556131a38461319e8761243e565b6127e2565b6040518060e00160405280858152602001828152602001600073ffffffffffffffffffffffffffffffffffffffff1681526020013373ffffffffffffffffffffffffffffffffffffffff1681526020018481526020018381526020016000815250600c6000868152602001908152602001600020600082015181600001556020820151816001015560408201518160020160006101000a81548173ffffffffffffffffffffffffffffffffffffffff021916908373ffffffffffffffffffffffffffffffffffffffff16021790555060608201518160030160006101000a81548173ffffffffffffffffffffffffffffffffffffffff021916908373ffffffffffffffffffffffffffffffffffffffff1602179055506080820151816004015560a0820151816005015560c082015181600601559050505050505050565b6001816000016000828254019250508190555050565b8173ffffffffffffffffffffffffffffffffffffffff168373ffffffffffffffffffffffffffffffffffffffff161415613366576040517f08c379a000000000000000000000000000000000000000000000000000000000815260040161335d906154c0565b60405180910390fd5b80600160008573ffffffffffffffffffffffffffffffffffffffff1673ffffffffffffffffffffffffffffffffffffffff16815260200190815260200160002060008473ffffffffffffffffffffffffffffffffffffffff1673ffffffffffffffffffffffffffffffffffffffff16815260200190815260200160002060006101000a81548160ff0219169083151502179055508173ffffffffffffffffffffffffffffffffffffffff168373ffffffffffffffffffffffffffffffffffffffff167f17307eab39ab6107e8899845ad3d59bd9653f200f220920489ca2b5937696c318360405161345791906151d6565b60405180910390a3505050565b600081600001549050919050565b600073ffffffffffffffffffffffffffffffffffffffff168473ffffffffffffffffffffffffffffffffffffffff1614156134e2576040517f08c379a00000000000000000000000000000000000000000000000000000000081526004016134d990615540565b60405180910390fd5b60006134ec612b71565b905060006134f9856139a7565b90506000613506856139a7565b905061351783600089858589613a6d565b8460008088815260200190815260200160002060008973ffffffffffffffffffffffffffffffffffffffff1673ffffffffffffffffffffffffffffffffffffffff1681526020019081526020016000206000828254613576919061583a565b925050819055508673ffffffffffffffffffffffffffffffffffffffff16600073ffffffffffffffffffffffffffffffffffffffff168473ffffffffffffffffffffffffffffffffffffffff167fc3d58168c5ae7397731d063d5bbf3d657854427343f4c083240f7aacaa2d0f6289896040516135f492919061567d565b60405180910390a461360b83600089858589613a75565b61361a83600089898989613a7d565b50505050505050565b60008211613666576040517f08c379a000000000000000000000000000000000000000000000000000000000815260040161365d90615580565b60405180910390fd5b600a5434146136aa576040517f08c379a00000000000000000000000000000000000000000000000000000000081526004016136a190615460565b60405180910390fd5b6040518060e001604052808581526020018481526020013373ffffffffffffffffffffffffffffffffffffffff1681526020013073ffffffffffffffffffffffffffffffffffffffff1681526020018381526020018281526020016000815250600c6000868152602001908152602001600020600082015181600001556020820151816001015560408201518160020160006101000a81548173ffffffffffffffffffffffffffffffffffffffff021916908373ffffffffffffffffffffffffffffffffffffffff16021790555060608201518160030160006101000a81548173ffffffffffffffffffffffffffffffffffffffff021916908373ffffffffffffffffffffffffffffffffffffffff1602179055506080820151816004015560a0820151816005015560c08201518160060155905050837f23988277d8656ff8d71dfb986b4a661fae428032d9e367523d4475d2cd4ab3bc8433308686600060405161381b969594939291906155bb565b60405180910390a250505050565b60007fd9b67a26000000000000000000000000000000000000000000000000000000007bffffffffffffffffffffffffffffffffffffffffffffffffffffffff1916827bffffffffffffffffffffffffffffffffffffffffffffffffffffffff191614806138f457507f0e89341c000000000000000000000000000000000000000000000000000000007bffffffffffffffffffffffffffffffffffffffffffffffffffffffff1916827bffffffffffffffffffffffffffffffffffffffffffffffffffffffff1916145b80613904575061390382613e4b565b5b9050919050565b6139a38282604051602401613921929190615249565b6040516020818303038152906040527f4b5c4277000000000000000000000000000000000000000000000000000000007bffffffffffffffffffffffffffffffffffffffffffffffffffffffff19166020820180517bffffffffffffffffffffffffffffffffffffffffffffffffffffffff8381831617835250505050613eb5565b5050565b60606000600167ffffffffffffffff8111156139ec577f4e487b7100000000000000000000000000000000000000000000000000000000600052604160045260246000fd5b604051908082528060200260200182016040528015613a1a5781602001602082028036833780820191505090505b5090508281600081518110613a58577f4e487b7100000000000000000000000000000000000000000000000000000000600052603260045260246000fd5b60200260200101818152505080915050919050565b505050505050565b505050505050565b613a9c8473ffffffffffffffffffffffffffffffffffffffff16613ede565b15613c5c578373ffffffffffffffffffffffffffffffffffffffff1663f23a6e6187878686866040518663ffffffff1660e01b8152600401613ae2959493929190615080565b602060405180830381600087803b158015613afc57600080fd5b505af1925050508015613b2d57506040513d601f19601f82011682018060405250810190613b2a919061486f565b60015b613bd357613b39615bc9565b806308c379a01415613b965750613b4e6162a0565b80613b595750613b98565b806040517f08c379a0000000000000000000000000000000000000000000000000000000008152600401613b8d9190615227565b60405180910390fd5b505b6040517f08c379a0000000000000000000000000000000000000000000000000000000008152600401613bca90615280565b60405180910390fd5b63f23a6e6160e01b7bffffffffffffffffffffffffffffffffffffffffffffffffffffffff1916817bffffffffffffffffffffffffffffffffffffffffffffffffffffffff191614613c5a576040517f08c379a0000000000000000000000000000000000000000000000000000000008152600401613c51906152e0565b60405180910390fd5b505b505050505050565b613c838473ffffffffffffffffffffffffffffffffffffffff16613ede565b15613e43578373ffffffffffffffffffffffffffffffffffffffff1663bc197c8187878686866040518663ffffffff1660e01b8152600401613cc9959493929190615018565b602060405180830381600087803b158015613ce357600080fd5b505af1925050508015613d1457506040513d601f19601f82011682018060405250810190613d11919061486f565b60015b613dba57613d20615bc9565b806308c379a01415613d7d5750613d356162a0565b80613d405750613d7f565b806040517f08c379a0000000000000000000000000000000000000000000000000000000008152600401613d749190615227565b60405180910390fd5b505b6040517f08c379a0000000000000000000000000000000000000000000000000000000008152600401613db190615280565b60405180910390fd5b63bc197c8160e01b7bffffffffffffffffffffffffffffffffffffffffffffffffffffffff1916817bffffffffffffffffffffffffffffffffffffffffffffffffffffffff191614613e41576040517f08c379a0000000000000000000000000000000000000000000000000000000008152600401613e38906152e0565b60405180910390fd5b505b505050505050565b60007f01ffc9a7000000000000000000000000000000000000000000000000000000007bffffffffffffffffffffffffffffffffffffffffffffffffffffffff1916827bffffffffffffffffffffffffffffffffffffffffffffffffffffffff1916149050919050565b60008151905060006a636f6e736f6c652e6c6f679050602083016000808483855afa5050505050565b6000808273ffffffffffffffffffffffffffffffffffffffff163b119050919050565b6040518060e001604052806000801916815260200160008152602001600073ffffffffffffffffffffffffffffffffffffffff168152602001600073ffffffffffffffffffffffffffffffffffffffff1681526020016000815260200160008152602001600081525090565b828054613f7990615a33565b90600052602060002090601f016020900481019282613f9b5760008555613fe2565b82601f10613fb457805160ff1916838001178555613fe2565b82800160010185558215613fe2579182015b82811115613fe1578251825591602001919060010190613fc6565b5b509050613fef9190613ff3565b5090565b5b8082111561400c576000816000905550600101613ff4565b5090565b600061402361401e846156cb565b6156a6565b9050808382526020820190508285602086028201111561404257600080fd5b60005b8581101561407257816140588882614164565b845260208401935060208301925050600181019050614045565b5050509392505050565b600061408f61408a846156f7565b6156a6565b905080838252602082019050828560208602820111156140ae57600080fd5b60005b858110156140de57816140c48882614309565b8452602084019350602083019250506001810190506140b1565b5050509392505050565b60006140fb6140f684615723565b6156a6565b90508281526020810184848401111561411357600080fd5b61411e8482856159f1565b509392505050565b600061413961413484615754565b6156a6565b90508281526020810184848401111561415157600080fd5b61415c8482856159f1565b509392505050565b60008135905061417381616336565b92915050565b600082601f83011261418a57600080fd5b813561419a848260208601614010565b91505092915050565b60008083601f8401126141b557600080fd5b8235905067ffffffffffffffff8111156141ce57600080fd5b6020830191508360208202830111156141e657600080fd5b9250929050565b600082601f8301126141fe57600080fd5b813561420e84826020860161407c565b91505092915050565b6000813590506142268161634d565b92915050565b60008135905061423b81616364565b92915050565b6000813590506142508161637b565b92915050565b6000815190506142658161637b565b92915050565b60008083601f84011261427d57600080fd5b8235905067ffffffffffffffff81111561429657600080fd5b6020830191508360018202830111156142ae57600080fd5b9250929050565b600082601f8301126142c657600080fd5b81356142d68482602086016140e8565b91505092915050565b600082601f8301126142f057600080fd5b8135614300848260208601614126565b91505092915050565b60008135905061431881616392565b92915050565b60006020828403121561433057600080fd5b600061433e84828501614164565b91505092915050565b6000806040838503121561435a57600080fd5b600061436885828601614164565b925050602061437985828601614164565b9150509250929050565b60008060008060008060008060a0898b03121561439f57600080fd5b60006143ad8b828c01614164565b98505060206143be8b828c01614164565b975050604089013567ffffffffffffffff8111156143db57600080fd5b6143e78b828c016141a3565b9650965050606089013567ffffffffffffffff81111561440657600080fd5b6144128b828c016141a3565b9450945050608089013567ffffffffffffffff81111561443157600080fd5b61443d8b828c0161426b565b92509250509295985092959890939650565b600080600080600060a0868803121561446757600080fd5b600061447588828901614164565b955050602061448688828901614164565b945050604086013567ffffffffffffffff8111156144a357600080fd5b6144af888289016141ed565b935050606086013567ffffffffffffffff8111156144cc57600080fd5b6144d8888289016141ed565b925050608086013567ffffffffffffffff8111156144f557600080fd5b614501888289016142b5565b9150509295509295909350565b60008060008060008060a0878903121561452757600080fd5b600061453589828a01614164565b965050602061454689828a01614164565b955050604061455789828a01614309565b945050606061456889828a01614309565b935050608087013567ffffffffffffffff81111561458557600080fd5b61459189828a0161426b565b92509250509295509295509295565b600080600080600060a086880312156145b857600080fd5b60006145c688828901614164565b95505060206145d788828901614164565b94505060406145e888828901614309565b93505060606145f988828901614309565b925050608086013567ffffffffffffffff81111561461657600080fd5b614622888289016142b5565b9150509295509295909350565b6000806040838503121561464257600080fd5b600061465085828601614164565b925050602061466185828601614217565b9150509250929050565b6000806040838503121561467e57600080fd5b600061468c85828601614164565b925050602061469d85828601614309565b9150509250929050565b6000806000606084860312156146bc57600080fd5b60006146ca86828701614164565b93505060206146db86828701614309565b925050604084013567ffffffffffffffff8111156146f857600080fd5b614704868287016142df565b9150509250925092565b6000806040838503121561472157600080fd5b600083013567ffffffffffffffff81111561473b57600080fd5b61474785828601614179565b925050602083013567ffffffffffffffff81111561476457600080fd5b614770858286016141ed565b9150509250929050565b60006020828403121561478c57600080fd5b600061479a8482850161422c565b91505092915050565b6000806000606084860312156147b857600080fd5b60006147c68682870161422c565b935050602084013567ffffffffffffffff8111156147e357600080fd5b6147ef868287016142df565b925050604061480086828701614309565b9150509250925092565b6000806040838503121561481d57600080fd5b600061482b8582860161422c565b925050602061483c85828601614309565b9150509250929050565b60006020828403121561485857600080fd5b600061486684828501614241565b91505092915050565b60006020828403121561488157600080fd5b600061488f84828501614256565b91505092915050565b6000806000606084860312156148ad57600080fd5b600084013567ffffffffffffffff8111156148c757600080fd5b6148d3868287016142df565b93505060206148e486828701614309565b92505060406148f586828701614309565b9150509250925092565b60006020828403121561491157600080fd5b600061491f84828501614309565b91505092915050565b6000806040838503121561493b57600080fd5b600061494985828601614309565b925050602061495a85828601614309565b9150509250929050565b60006149708383614f01565b60e08301905092915050565b60006149888383614f8f565b60208301905092915050565b61499d81615961565b82525050565b6149ac8161594f565b82525050565b6149c36149be8261594f565b615adf565b82525050565b60006149d4826157a5565b6149de81856157eb565b93506149e983615785565b8060005b83811015614a1a578151614a018882614964565b9750614a0c836157d1565b9250506001810190506149ed565b5085935050505092915050565b6000614a32826157b0565b614a3c81856157fc565b9350614a4783615795565b8060005b83811015614a78578151614a5f888261497c565b9750614a6a836157de565b925050600181019050614a4b565b5085935050505092915050565b614a8e81615973565b82525050565b614a9d8161597f565b82525050565b614aac8161597f565b82525050565b614abb81615989565b82525050565b6000614acc826157bb565b614ad6818561580d565b9350614ae6818560208601615a00565b614aef81615beb565b840191505092915050565b614b03816159df565b82525050565b6000614b14826157c6565b614b1e818561581e565b9350614b2e818560208601615a00565b614b3781615beb565b840191505092915050565b6000614b4d826157c6565b614b57818561582f565b9350614b67818560208601615a00565b80840191505092915050565b6000614b8060348361581e565b9150614b8b82615c16565b604082019050919050565b6000614ba3600f8361581e565b9150614bae82615c65565b602082019050919050565b6000614bc6602f8361581e565b9150614bd182615c8e565b604082019050919050565b6000614be960288361581e565b9150614bf482615cdd565b604082019050919050565b6000614c0c60268361581e565b9150614c1782615d2c565b604082019050919050565b6000614c2f60108361581e565b9150614c3a82615d7b565b602082019050919050565b6000614c52601d8361581e565b9150614c5d82615da4565b602082019050919050565b6000614c75602a8361581e565b9150614c8082615dcd565b604082019050919050565b6000614c98600e8361581e565b9150614ca382615e1c565b602082019050919050565b6000614cbb60258361581e565b9150614cc682615e45565b604082019050919050565b6000614cde60408361581e565b9150614ce982615e94565b604082019050919050565b6000614d01602a8361581e565b9150614d0c82615ee3565b604082019050919050565b6000614d24602a8361581e565b9150614d2f82615f32565b604082019050919050565b6000614d4760208361581e565b9150614d5282615f81565b602082019050919050565b6000614d6a601b8361581e565b9150614d7582615faa565b602082019050919050565b6000614d8d60248361581e565b9150614d9882615fd3565b604082019050919050565b6000614db060008361580d565b9150614dbb82616022565b600082019050919050565b6000614dd3602a8361581e565b9150614dde82616025565b604082019050919050565b6000614df660228361581e565b9150614e0182616074565b604082019050919050565b6000614e1960298361581e565b9150614e24826160c3565b604082019050919050565b6000614e3c60298361581e565b9150614e4782616112565b604082019050919050565b6000614e5f60288361581e565b9150614e6a82616161565b604082019050919050565b6000614e82602f8361581e565b9150614e8d826161b0565b604082019050919050565b6000614ea560218361581e565b9150614eb0826161ff565b604082019050919050565b6000614ec8601f8361581e565b9150614ed38261624e565b602082019050919050565b6000614eeb601c8361581e565b9150614ef682616277565b602082019050919050565b60e082016000820151614f176000850182614a94565b506020820151614f2a6020850182614f8f565b506040820151614f3d6040850182614994565b506060820151614f506060850182614994565b506080820151614f636080850182614f8f565b5060a0820151614f7660a0850182614f8f565b5060c0820151614f8960c0850182614f8f565b50505050565b614f98816159d5565b82525050565b614fa7816159d5565b82525050565b614fbe614fb9826159d5565b615b03565b82525050565b6000614fd082866149b2565b601482019150614fe08285614fad565b602082019150614ff08284614b42565b9150819050949350505050565b600060208201905061501260008301846149a3565b92915050565b600060a08201905061502d60008301886149a3565b61503a60208301876149a3565b818103604083015261504c8186614a27565b905081810360608301526150608185614a27565b905081810360808301526150748184614ac1565b90509695505050505050565b600060a08201905061509560008301886149a3565b6150a260208301876149a3565b6150af6040830186614f9e565b6150bc6060830185614f9e565b81810360808301526150ce8184614ac1565b90509695505050505050565b600060a0820190506150ef60008301876149a3565b6150fc60208301866149a3565b6151096040830185614f9e565b6151166060830184614f9e565b818103608083015261512781614da3565b905095945050505050565b600060408201905061514760008301856149a3565b6151546020830184614f9e565b9392505050565b6000602082019050818103600083015261517581846149c9565b905092915050565b600060208201905081810360008301526151978184614a27565b905092915050565b600060408201905081810360008301526151b98185614a27565b905081810360208301526151cd8184614a27565b90509392505050565b60006020820190506151eb6000830184614a85565b92915050565b60006020820190506152066000830184614aa3565b92915050565b60006020820190506152216000830184614ab2565b92915050565b600060208201905081810360008301526152418184614b09565b905092915050565b600060408201905081810360008301526152638185614b09565b905081810360208301526152778184614b09565b90509392505050565b6000602082019050818103600083015261529981614b73565b9050919050565b600060208201905081810360008301526152b981614b96565b9050919050565b600060208201905081810360008301526152d981614bb9565b9050919050565b600060208201905081810360008301526152f981614bdc565b9050919050565b6000602082019050818103600083015261531981614bff565b9050919050565b6000602082019050818103600083015261533981614c22565b9050919050565b6000602082019050818103600083015261535981614c45565b9050919050565b6000602082019050818103600083015261537981614c68565b9050919050565b6000602082019050818103600083015261539981614c8b565b9050919050565b600060208201905081810360008301526153b981614cae565b9050919050565b600060208201905081810360008301526153d981614cd1565b9050919050565b600060208201905081810360008301526153f981614cf4565b9050919050565b6000602082019050818103600083015261541981614d17565b9050919050565b6000602082019050818103600083015261543981614d3a565b9050919050565b6000602082019050818103600083015261545981614d5d565b9050919050565b6000602082019050818103600083015261547981614d80565b9050919050565b6000602082019050818103600083015261549981614dc6565b9050919050565b600060208201905081810360008301526154b981614de9565b9050919050565b600060208201905081810360008301526154d981614e0c565b9050919050565b600060208201905081810360008301526154f981614e2f565b9050919050565b6000602082019050818103600083015261551981614e52565b9050919050565b6000602082019050818103600083015261553981614e75565b9050919050565b6000602082019050818103600083015261555981614e98565b9050919050565b6000602082019050818103600083015261557981614ebb565b9050919050565b6000602082019050818103600083015261559981614ede565b9050919050565b60006020820190506155b56000830184614f9e565b92915050565b600060c0820190506155d06000830189614f9e565b6155dd60208301886149a3565b6155ea60408301876149a3565b6155f76060830186614f9e565b6156046080830185614f9e565b61561160a0830184614afa565b979650505050505050565b600060c0820190506156316000830189614f9e565b61563e60208301886149a3565b61564b60408301876149a3565b6156586060830186614f9e565b6156656080830185614f9e565b61567260a0830184614f9e565b979650505050505050565b60006040820190506156926000830185614f9e565b61569f6020830184614f9e565b9392505050565b60006156b06156c1565b90506156bc8282615a65565b919050565b6000604051905090565b600067ffffffffffffffff8211156156e6576156e5615b9a565b5b602082029050602081019050919050565b600067ffffffffffffffff82111561571257615711615b9a565b5b602082029050602081019050919050565b600067ffffffffffffffff82111561573e5761573d615b9a565b5b61574782615beb565b9050602081019050919050565b600067ffffffffffffffff82111561576f5761576e615b9a565b5b61577882615beb565b9050602081019050919050565b6000819050602082019050919050565b6000819050602082019050919050565b600081519050919050565b600081519050919050565b600081519050919050565b600081519050919050565b6000602082019050919050565b6000602082019050919050565b600082825260208201905092915050565b600082825260208201905092915050565b600082825260208201905092915050565b600082825260208201905092915050565b600081905092915050565b6000615845826159d5565b9150615850836159d5565b9250827fffffffffffffffffffffffffffffffffffffffffffffffffffffffffffffffff0382111561588557615884615b0d565b5b828201905092915050565b600061589b826159d5565b91506158a6836159d5565b9250826158b6576158b5615b3c565b5b828204905092915050565b60006158cc826159d5565b91506158d7836159d5565b9250817fffffffffffffffffffffffffffffffffffffffffffffffffffffffffffffffff04831182151516156159105761590f615b0d565b5b828202905092915050565b6000615926826159d5565b9150615931836159d5565b92508282101561594457615943615b0d565b5b828203905092915050565b600061595a826159b5565b9050919050565b600061596c826159b5565b9050919050565b60008115159050919050565b6000819050919050565b60007fffffffff0000000000000000000000000000000000000000000000000000000082169050919050565b600073ffffffffffffffffffffffffffffffffffffffff82169050919050565b6000819050919050565b60006159ea826159d5565b9050919050565b82818337600083830152505050565b60005b83811015615a1e578082015181840152602081019050615a03565b83811115615a2d576000848401525b50505050565b60006002820490506001821680615a4b57607f821691505b60208210811415615a5f57615a5e615b6b565b5b50919050565b615a6e82615beb565b810181811067ffffffffffffffff82111715615a8d57615a8c615b9a565b5b80604052505050565b6000615aa1826159d5565b91507fffffffffffffffffffffffffffffffffffffffffffffffffffffffffffffffff821415615ad457615ad3615b0d565b5b600182019050919050565b6000615aea82615af1565b9050919050565b6000615afc82615bfc565b9050919050565b6000819050919050565b7f4e487b7100000000000000000000000000000000000000000000000000000000600052601160045260246000fd5b7f4e487b7100000000000000000000000000000000000000000000000000000000600052601260045260246000fd5b7f4e487b7100000000000000000000000000000000000000000000000000000000600052602260045260246000fd5b7f4e487b7100000000000000000000000000000000000000000000000000000000600052604160045260246000fd5b600060033d1115615be85760046000803e615be5600051615c09565b90505b90565b6000601f19601f8301169050919050565b60008160601b9050919050565b60008160e01c9050919050565b7f455243313135353a207472616e7366657220746f206e6f6e204552433131353560008201527f526563656976657220696d706c656d656e746572000000000000000000000000602082015250565b7f496e76616c696420616d6f756e742e0000000000000000000000000000000000600082015250565b7f455243313135353a2063616c6c6572206973206e6f7420746f6b656e206f776e60008201527f6572206e6f7220617070726f7665640000000000000000000000000000000000602082015250565b7f455243313135353a204552433131353552656365697665722072656a6563746560008201527f6420746f6b656e73000000000000000000000000000000000000000000000000602082015250565b7f4f776e61626c653a206e6577206f776e657220697320746865207a65726f206160008201527f6464726573730000000000000000000000000000000000000000000000000000602082015250565b7f496e76616c696420746f6b656e49642e00000000000000000000000000000000600082015250565b7f416d6f756e74206d7573742062652067726561746572207468616e2030000000600082015250565b7f455243313135353a2061646472657373207a65726f206973206e6f742061207660008201527f616c6964206f776e657200000000000000000000000000000000000000000000602082015250565b7f496e76616c696420746f6b656e2e000000000000000000000000000000000000600082015250565b7f455243313135353a207472616e7366657220746f20746865207a65726f20616460008201527f6472657373000000000000000000000000000000000000000000000000000000602082015250565b7f506c65617365207375626d6974207468652061736b696e67207072696365206960008201527f6e206f7264657220746f20636f6d706c65746520746865207075726368617365602082015250565b7f455243313135353a20696e73756666696369656e742062616c616e636520666f60008201527f72207472616e7366657200000000000000000000000000000000000000000000602082015250565b7f4f6e6c79206974656d206f776e65722063616e20706572666f726d207468697360008201527f206f7065726174696f6e00000000000000000000000000000000000000000000602082015250565b7f4f776e61626c653a2063616c6c6572206973206e6f7420746865206f776e6572600082015250565b7f526573656c6c657220616c726561647920726567697374657265640000000000600082015250565b7f5072696365206d75737420626520657175616c20746f206c697374696e67207060008201527f7269636500000000000000000000000000000000000000000000000000000000602082015250565b50565b7f43616e6e6f7420627579206d6f7265207468616e2074686520617661696c616260008201527f6c6520616d6f756e742e00000000000000000000000000000000000000000000602082015250565b7f43616e6e6f742073656c6c20746f6b656e7320796f7520646f206e6f74206f7760008201527f6e2e000000000000000000000000000000000000000000000000000000000000602082015250565b7f455243313135353a2073657474696e6720617070726f76616c2073746174757360008201527f20666f722073656c660000000000000000000000000000000000000000000000602082015250565b7f455243313135353a206163636f756e747320616e6420696473206c656e67746860008201527f206d69736d617463680000000000000000000000000000000000000000000000602082015250565b7f455243313135353a2069647320616e6420616d6f756e7473206c656e6774682060008201527f6d69736d61746368000000000000000000000000000000000000000000000000602082015250565b7f5072696365206d75737420626520657175616c206f722067726561746572207460008201527f6f206c697374696e672070726963650000000000000000000000000000000000602082015250565b7f455243313135353a206d696e7420746f20746865207a65726f2061646472657360008201527f7300000000000000000000000000000000000000000000000000000000000000602082015250565b7f5265656e7472616e637947756172643a207265656e7472616e742063616c6c00600082015250565b7f5072696365206d757374206265206174206c6561737420312077656900000000600082015250565b600060443d10156162b057616333565b6162b86156c1565b60043d036004823e80513d602482011167ffffffffffffffff821117156162e0575050616333565b808201805167ffffffffffffffff8111156162fe5750505050616333565b80602083010160043d03850181111561631b575050505050616333565b61632a82602001850186615a65565b82955050505050505b90565b61633f8161594f565b811461634a57600080fd5b50565b61635681615973565b811461636157600080fd5b50565b61636d8161597f565b811461637857600080fd5b50565b61638481615989565b811461638f57600080fd5b50565b61639b816159d5565b81146163a657600080fd5b5056fe696e20736574546f6b656e55726920636865636b696e6720746f6b656e55524973a2646970667358221220ca012f28d7a1786e5d426ebed596a968bfc3b84660514bd9531cf90c10f89fc564736f6c63430008040033",
  "linkReferences": {},
  "deployedLinkReferences": {}
}