{
  "_format": "hh-sol-artifact-1",
  "contractName": "OttoStorage",
  "sourceName": "contracts/OttoStorage.sol",
  "abi": [
    {
      "inputs": [],
      "stateMutability": "nonpayable",
      "type": "constructor"
    },
    {
      "anonymous": false,
      "inputs": [
        {
          "indexed": true,
          "internalType": "address",
          "name": "previousOwner",
          "type": "address"
        },
        {
          "indexed": true,
          "internalType": "address",
          "name": "newOwner",
          "type": "address"
        }
      ],
      "name": "OwnershipTransferred",
      "type": "event"
    },
    {
      "inputs": [
        {
          "internalType": "bytes32",
          "name": "_seller",
          "type": "bytes32"
        },
        {
          "components": [
            {
              "internalType": "bytes32",
              "name": "tokenSeller",
              "type": "bytes32"
            },
            {
              "internalType": "uint256",
              "name": "tokenId",
              "type": "uint256"
            },
            {
              "internalType": "address payable",
              "name": "seller",
              "type": "address"
            },
            {
              "internalType": "address payable",
              "name": "owner",
              "type": "address"
            },
            {
              "internalType": "uint256",
              "name": "price",
              "type": "uint256"
            },
            {
              "internalType": "uint256",
              "name": "amount",
              "type": "uint256"
            },
            {
              "internalType": "uint256",
              "name": "sold",
              "type": "uint256"
            }
          ],
          "internalType": "struct OttoStorage.MarketItem",
          "name": "_item",
          "type": "tuple"
        }
      ],
      "name": "SetMarketItem",
      "outputs": [],
      "stateMutability": "nonpayable",
      "type": "function"
    },
    {
      "inputs": [
        {
          "internalType": "bytes32",
          "name": "_seller",
          "type": "bytes32"
        }
      ],
      "name": "addTokenSeller",
      "outputs": [],
      "stateMutability": "nonpayable",
      "type": "function"
    },
    {
      "inputs": [
        {
          "internalType": "address",
          "name": "_address",
          "type": "address"
        }
      ],
      "name": "allowAccess",
      "outputs": [],
      "stateMutability": "nonpayable",
      "type": "function"
    },
    {
      "inputs": [],
      "name": "anotherSold",
      "outputs": [],
      "stateMutability": "nonpayable",
      "type": "function"
    },
    {
      "inputs": [],
      "name": "currentTokenId",
      "outputs": [
        {
          "internalType": "uint256",
          "name": "_amount",
          "type": "uint256"
        }
      ],
      "stateMutability": "view",
      "type": "function"
    },
    {
      "inputs": [
        {
          "internalType": "address",
          "name": "_address",
          "type": "address"
        }
      ],
      "name": "denyAccess",
      "outputs": [],
      "stateMutability": "nonpayable",
      "type": "function"
    },
    {
      "inputs": [],
      "name": "fetchAllItems",
      "outputs": [
        {
          "internalType": "bytes32[]",
          "name": "_tokenSeller",
          "type": "bytes32[]"
        },
        {
          "internalType": "uint256[]",
          "name": "_tokenId",
          "type": "uint256[]"
        },
        {
          "internalType": "address[]",
          "name": "_seller",
          "type": "address[]"
        },
        {
          "internalType": "address[]",
          "name": "_owner",
          "type": "address[]"
        },
        {
          "internalType": "uint256[]",
          "name": "_price",
          "type": "uint256[]"
        },
        {
          "internalType": "uint256[]",
          "name": "_amount",
          "type": "uint256[]"
        },
        {
          "internalType": "uint256[]",
          "name": "_sold",
          "type": "uint256[]"
        }
      ],
      "stateMutability": "view",
      "type": "function"
    },
    {
      "inputs": [
        {
          "internalType": "address",
          "name": "sender",
          "type": "address"
        }
      ],
      "name": "fetchItemsListed",
      "outputs": [
        {
          "internalType": "bytes32[]",
          "name": "_tokenSeller",
          "type": "bytes32[]"
        },
        {
          "internalType": "uint256[]",
          "name": "_tokenId",
          "type": "uint256[]"
        },
        {
          "internalType": "address[]",
          "name": "_seller",
          "type": "address[]"
        },
        {
          "internalType": "address[]",
          "name": "_owner",
          "type": "address[]"
        },
        {
          "internalType": "uint256[]",
          "name": "_price",
          "type": "uint256[]"
        },
        {
          "internalType": "uint256[]",
          "name": "_amount",
          "type": "uint256[]"
        },
        {
          "internalType": "uint256[]",
          "name": "_sold",
          "type": "uint256[]"
        }
      ],
      "stateMutability": "view",
      "type": "function"
    },
    {
      "inputs": [
        {
          "internalType": "address",
          "name": "market",
          "type": "address"
        }
      ],
      "name": "fetchMarketItems",
      "outputs": [
        {
          "internalType": "bytes32[]",
          "name": "_tokenSeller",
          "type": "bytes32[]"
        },
        {
          "internalType": "uint256[]",
          "name": "_tokenId",
          "type": "uint256[]"
        },
        {
          "internalType": "address[]",
          "name": "_seller",
          "type": "address[]"
        },
        {
          "internalType": "address[]",
          "name": "_owner",
          "type": "address[]"
        },
        {
          "internalType": "uint256[]",
          "name": "_price",
          "type": "uint256[]"
        },
        {
          "internalType": "uint256[]",
          "name": "_amount",
          "type": "uint256[]"
        },
        {
          "internalType": "uint256[]",
          "name": "_sold",
          "type": "uint256[]"
        }
      ],
      "stateMutability": "view",
      "type": "function"
    },
    {
      "inputs": [
        {
          "internalType": "address",
          "name": "sender",
          "type": "address"
        }
      ],
      "name": "fetchMyNFTs",
      "outputs": [
        {
          "internalType": "bytes32[]",
          "name": "_tokenSeller",
          "type": "bytes32[]"
        },
        {
          "internalType": "uint256[]",
          "name": "_tokenId",
          "type": "uint256[]"
        },
        {
          "internalType": "address[]",
          "name": "_seller",
          "type": "address[]"
        },
        {
          "internalType": "address[]",
          "name": "_owner",
          "type": "address[]"
        },
        {
          "internalType": "uint256[]",
          "name": "_price",
          "type": "uint256[]"
        },
        {
          "internalType": "uint256[]",
          "name": "_amount",
          "type": "uint256[]"
        },
        {
          "internalType": "uint256[]",
          "name": "_sold",
          "type": "uint256[]"
        }
      ],
      "stateMutability": "view",
      "type": "function"
    },
    {
      "inputs": [],
      "name": "getListingPrice",
      "outputs": [
        {
          "internalType": "uint256",
          "name": "_listingPrice",
          "type": "uint256"
        }
      ],
      "stateMutability": "view",
      "type": "function"
    },
    {
      "inputs": [
        {
          "internalType": "bytes32",
          "name": "_sellerId",
          "type": "bytes32"
        }
      ],
      "name": "getMarketItem",
      "outputs": [
        {
          "internalType": "uint256",
          "name": "_tokenId",
          "type": "uint256"
        },
        {
          "internalType": "address payable",
          "name": "_seller",
          "type": "address"
        },
        {
          "internalType": "address payable",
          "name": "_owner",
          "type": "address"
        },
        {
          "internalType": "uint256",
          "name": "_price",
          "type": "uint256"
        },
        {
          "internalType": "uint256",
          "name": "_amount",
          "type": "uint256"
        },
        {
          "internalType": "uint256",
          "name": "_sold",
          "type": "uint256"
        }
      ],
      "stateMutability": "view",
      "type": "function"
    },
    {
      "inputs": [],
      "name": "getOttoShare",
      "outputs": [
        {
          "internalType": "uint128",
          "name": "_ottoShare",
          "type": "uint128"
        }
      ],
      "stateMutability": "view",
      "type": "function"
    },
    {
      "inputs": [],
      "name": "getOttoWallet",
      "outputs": [
        {
          "internalType": "address",
          "name": "_otto",
          "type": "address"
        }
      ],
      "stateMutability": "view",
      "type": "function"
    },
    {
      "inputs": [],
      "name": "getScale",
      "outputs": [
        {
          "internalType": "uint128",
          "name": "_scale",
          "type": "uint128"
        }
      ],
      "stateMutability": "view",
      "type": "function"
    },
    {
      "inputs": [],
      "name": "getTokenSellers",
      "outputs": [
        {
          "internalType": "bytes32[]",
          "name": "_addresses",
          "type": "bytes32[]"
        }
      ],
      "stateMutability": "view",
      "type": "function"
    },
    {
      "inputs": [
        {
          "internalType": "bytes32",
          "name": "_tokenSeller",
          "type": "bytes32"
        }
      ],
      "name": "getTokenUri",
      "outputs": [
        {
          "internalType": "string",
          "name": "",
          "type": "string"
        }
      ],
      "stateMutability": "view",
      "type": "function"
    },
    {
      "inputs": [],
      "name": "itemsSold",
      "outputs": [
        {
          "internalType": "uint256",
          "name": "_amount",
          "type": "uint256"
        }
      ],
      "stateMutability": "view",
      "type": "function"
    },
    {
      "inputs": [
        {
          "internalType": "bytes32",
          "name": "_tokenSeller",
          "type": "bytes32"
        },
        {
          "internalType": "uint256",
          "name": "_tokenId",
          "type": "uint256"
        },
        {
          "internalType": "address payable",
          "name": "_seller",
          "type": "address"
        },
        {
          "internalType": "address payable",
          "name": "_owner",
          "type": "address"
        },
        {
          "internalType": "uint256",
          "name": "_price",
          "type": "uint256"
        },
        {
          "internalType": "uint256",
          "name": "_amount",
          "type": "uint256"
        },
        {
          "internalType": "uint256",
          "name": "_sold",
          "type": "uint256"
        }
      ],
      "name": "newMarketItem",
      "outputs": [
        {
          "components": [
            {
              "internalType": "bytes32",
              "name": "tokenSeller",
              "type": "bytes32"
            },
            {
              "internalType": "uint256",
              "name": "tokenId",
              "type": "uint256"
            },
            {
              "internalType": "address payable",
              "name": "seller",
              "type": "address"
            },
            {
              "internalType": "address payable",
              "name": "owner",
              "type": "address"
            },
            {
              "internalType": "uint256",
              "name": "price",
              "type": "uint256"
            },
            {
              "internalType": "uint256",
              "name": "amount",
              "type": "uint256"
            },
            {
              "internalType": "uint256",
              "name": "sold",
              "type": "uint256"
            }
          ],
          "internalType": "struct OttoStorage.MarketItem",
          "name": "_item",
          "type": "tuple"
        }
      ],
      "stateMutability": "view",
      "type": "function"
    },
    {
      "inputs": [],
      "name": "nextTokenId",
      "outputs": [
        {
          "internalType": "uint256",
          "name": "_amount",
          "type": "uint256"
        }
      ],
      "stateMutability": "nonpayable",
      "type": "function"
    },
    {
      "inputs": [],
      "name": "owner",
      "outputs": [
        {
          "internalType": "address",
          "name": "",
          "type": "address"
        }
      ],
      "stateMutability": "view",
      "type": "function"
    },
    {
      "inputs": [],
      "name": "renounceOwnership",
      "outputs": [],
      "stateMutability": "nonpayable",
      "type": "function"
    },
    {
      "inputs": [
        {
          "internalType": "bytes32",
          "name": "_tokenSeller",
          "type": "bytes32"
        },
        {
          "internalType": "string",
          "name": "_tokenURI",
          "type": "string"
        }
      ],
      "name": "setTokenUri",
      "outputs": [],
      "stateMutability": "nonpayable",
      "type": "function"
    },
    {
      "inputs": [
        {
          "internalType": "address",
          "name": "newOwner",
          "type": "address"
        }
      ],
      "name": "transferOwnership",
      "outputs": [],
      "stateMutability": "nonpayable",
      "type": "function"
    },
    {
      "inputs": [
        {
          "internalType": "uint256",
          "name": "_listingPrice",
          "type": "uint256"
        }
      ],
      "name": "updateListingPrice",
      "outputs": [],
      "stateMutability": "payable",
      "type": "function"
    }
  ],
  "bytecode": "0x60806040526658d15e176280006005553480156200001c57600080fd5b506200003d620000316200009a60201b60201c565b620000a260201b60201c565b60018060003373ffffffffffffffffffffffffffffffffffffffff1673ffffffffffffffffffffffffffffffffffffffff16815260200190815260200160002060006101000a81548160ff02191690831515021790555062000166565b600033905090565b60008060009054906101000a900473ffffffffffffffffffffffffffffffffffffffff169050816000806101000a81548173ffffffffffffffffffffffffffffffffffffffff021916908373ffffffffffffffffffffffffffffffffffffffff1602179055508173ffffffffffffffffffffffffffffffffffffffff168173ffffffffffffffffffffffffffffffffffffffff167f8be0079c531659141344cd1fd0a4f28419497f9722a3daafe3b4186f6b6457e060405160405180910390a35050565b6146eb80620001766000396000f3fe6080604052600436106101655760003560e01c80638aebfecd116100d1578063c4a85bc11161008a578063daf8d64c11610064578063daf8d64c14610529578063efd7c6b614610566578063f2fde38b1461058f578063f37dca78146105b857610165565b8063c4a85bc1146104ac578063d2c00fa0146104d5578063d8c7c9df1461050057610165565b80638aebfecd146103a15780638da5cb5b146103de578063913e0a481461040957806397598cc314610434578063ae677aa314610465578063b5cddab81461048157610165565b806361afd5ac1161012357806361afd5ac1461029a5780636b6ddcee146102c3578063715018a6146102da57806375794a3c146102f15780638184a48c1461031c5780638a410b1a1461035e57610165565b80629a9b7b1461016a57806310afee1e1461019557806312e85585146101d85780631f10e57a1461020357806349b345c11461024657806357bc9b471461026f575b600080fd5b34801561017657600080fd5b5061017f6105e3565b60405161018c91906141f2565b60405180910390f35b3480156101a157600080fd5b506101bc60048036038101906101b79190613bec565b61068e565b6040516101cf97969594939291906140ba565b60405180910390f35b3480156101e457600080fd5b506101ed610f1c565b6040516101fa91906141f2565b60405180910390f35b34801561020f57600080fd5b5061022a60048036038101906102259190613bec565b610fc0565b60405161023d97969594939291906140ba565b60405180910390f35b34801561025257600080fd5b5061026d60048036038101906102689190613c3e565b61184e565b005b34801561027b57600080fd5b50610284611914565b6040516102919190614098565b60405180910390f35b3480156102a657600080fd5b506102c160048036038101906102bc9190613bec565b611a06565b005b3480156102cf57600080fd5b506102d8611afb565b005b3480156102e657600080fd5b506102ef611ba1565b005b3480156102fd57600080fd5b50610306611bb5565b60405161031391906141f2565b60405180910390f35b34801561032857600080fd5b50610343600480360381019061033e9190613c15565b611c6a565b6040516103559695949392919061420d565b60405180910390f35b34801561036a57600080fd5b5061038560048036038101906103809190613bec565b611dec565b60405161039897969594939291906140ba565b60405180910390f35b3480156103ad57600080fd5b506103c860048036038101906103c39190613ccf565b6127f8565b6040516103d591906141bc565b60405180910390f35b3480156103ea57600080fd5b506103f3612906565b604051610400919061407d565b60405180910390f35b34801561041557600080fd5b5061041e61292f565b60405161042b91906141f2565b60405180910390f35b34801561044057600080fd5b506104496129da565b60405161045c97969594939291906140ba565b60405180910390f35b61047f600480360381019061047a9190613d6d565b613103565b005b34801561048d57600080fd5b50610496613115565b6040516104a391906141d7565b60405180910390f35b3480156104b857600080fd5b506104d360048036038101906104ce9190613bec565b6131b8565b005b3480156104e157600080fd5b506104ea6132ac565b6040516104f791906141d7565b60405180910390f35b34801561050c57600080fd5b5061052760048036038101906105229190613c92565b61334f565b005b34801561053557600080fd5b50610550600480360381019061054b9190613c15565b6134c4565b60405161055d919061415a565b60405180910390f35b34801561057257600080fd5b5061058d60048036038101906105889190613c15565b613603565b005b34801561059b57600080fd5b506105b660048036038101906105b19190613bec565b6136c9565b005b3480156105c457600080fd5b506105cd61374d565b6040516105da919061407d565b60405180910390f35b600060011515600160003373ffffffffffffffffffffffffffffffffffffffff1673ffffffffffffffffffffffffffffffffffffffff16815260200190815260200160002060009054906101000a900460ff161515148061067657503373ffffffffffffffffffffffffffffffffffffffff1661065e612906565b73ffffffffffffffffffffffffffffffffffffffff16145b61067f57600080fd5b6106896003613803565b905090565b606080606080606080606060011515600160003373ffffffffffffffffffffffffffffffffffffffff1673ffffffffffffffffffffffffffffffffffffffff16815260200190815260200160002060009054906101000a900460ff161515148061072a57503373ffffffffffffffffffffffffffffffffffffffff16610712612906565b73ffffffffffffffffffffffffffffffffffffffff16145b61073357600080fd5b60008060005b600680549050811015610817578a73ffffffffffffffffffffffffffffffffffffffff16600760006006848154811061079b577f4e487b7100000000000000000000000000000000000000000000000000000000600052603260045260246000fd5b9060005260206000200154815260200190815260200160002060030160009054906101000a900473ffffffffffffffffffffffffffffffffffffffff1673ffffffffffffffffffffffffffffffffffffffff16141561080457600183610801919061438b565b92505b808061080f906144fa565b915050610739565b508167ffffffffffffffff811115610858577f4e487b7100000000000000000000000000000000000000000000000000000000600052604160045260246000fd5b6040519080825280602002602001820160405280156108865781602001602082028036833780820191505090505b5098508167ffffffffffffffff8111156108c9577f4e487b7100000000000000000000000000000000000000000000000000000000600052604160045260246000fd5b6040519080825280602002602001820160405280156108f75781602001602082028036833780820191505090505b5097508167ffffffffffffffff81111561093a577f4e487b7100000000000000000000000000000000000000000000000000000000600052604160045260246000fd5b6040519080825280602002602001820160405280156109685781602001602082028036833780820191505090505b5096508167ffffffffffffffff8111156109ab577f4e487b7100000000000000000000000000000000000000000000000000000000600052604160045260246000fd5b6040519080825280602002602001820160405280156109d95781602001602082028036833780820191505090505b5095508167ffffffffffffffff811115610a1c577f4e487b7100000000000000000000000000000000000000000000000000000000600052604160045260246000fd5b604051908082528060200260200182016040528015610a4a5781602001602082028036833780820191505090505b5094508167ffffffffffffffff811115610a8d577f4e487b7100000000000000000000000000000000000000000000000000000000600052604160045260246000fd5b604051908082528060200260200182016040528015610abb5781602001602082028036833780820191505090505b5093508167ffffffffffffffff811115610afe577f4e487b7100000000000000000000000000000000000000000000000000000000600052604160045260246000fd5b604051908082528060200260200182016040528015610b2c5781602001602082028036833780820191505090505b50925060005b600680549050811015610f0e578a73ffffffffffffffffffffffffffffffffffffffff166007600060068481548110610b94577f4e487b7100000000000000000000000000000000000000000000000000000000600052603260045260246000fd5b9060005260206000200154815260200190815260200160002060030160009054906101000a900473ffffffffffffffffffffffffffffffffffffffff1673ffffffffffffffffffffffffffffffffffffffff161415610efb5760006007600060068481548110610c2d577f4e487b7100000000000000000000000000000000000000000000000000000000600052603260045260246000fd5b90600052602060002001548152602001908152602001600020905080600001548b8481518110610c86577f4e487b7100000000000000000000000000000000000000000000000000000000600052603260045260246000fd5b60200260200101818152505080600101548a8481518110610cd0577f4e487b7100000000000000000000000000000000000000000000000000000000600052603260045260246000fd5b6020026020010181815250508060020160009054906101000a900473ffffffffffffffffffffffffffffffffffffffff16898481518110610d3a577f4e487b7100000000000000000000000000000000000000000000000000000000600052603260045260246000fd5b602002602001019073ffffffffffffffffffffffffffffffffffffffff16908173ffffffffffffffffffffffffffffffffffffffff16815250508060030160009054906101000a900473ffffffffffffffffffffffffffffffffffffffff16888481518110610dd2577f4e487b7100000000000000000000000000000000000000000000000000000000600052603260045260246000fd5b602002602001019073ffffffffffffffffffffffffffffffffffffffff16908173ffffffffffffffffffffffffffffffffffffffff16815250508060040154878481518110610e4a577f4e487b7100000000000000000000000000000000000000000000000000000000600052603260045260246000fd5b6020026020010181815250508060050154868481518110610e94577f4e487b7100000000000000000000000000000000000000000000000000000000600052603260045260246000fd5b6020026020010181815250508060060154858481518110610ede577f4e487b7100000000000000000000000000000000000000000000000000000000600052603260045260246000fd5b602002602001018181525050600183610ef7919061438b565b9250505b8080610f06906144fa565b915050610b32565b505050919395979092949650565b600060011515600160003373ffffffffffffffffffffffffffffffffffffffff1673ffffffffffffffffffffffffffffffffffffffff16815260200190815260200160002060009054906101000a900460ff1615151480610faf57503373ffffffffffffffffffffffffffffffffffffffff16610f97612906565b73ffffffffffffffffffffffffffffffffffffffff16145b610fb857600080fd5b600554905090565b606080606080606080606060011515600160003373ffffffffffffffffffffffffffffffffffffffff1673ffffffffffffffffffffffffffffffffffffffff16815260200190815260200160002060009054906101000a900460ff161515148061105c57503373ffffffffffffffffffffffffffffffffffffffff16611044612906565b73ffffffffffffffffffffffffffffffffffffffff16145b61106557600080fd5b60008060005b600680549050811015611149578a73ffffffffffffffffffffffffffffffffffffffff1660076000600684815481106110cd577f4e487b7100000000000000000000000000000000000000000000000000000000600052603260045260246000fd5b9060005260206000200154815260200190815260200160002060030160009054906101000a900473ffffffffffffffffffffffffffffffffffffffff1673ffffffffffffffffffffffffffffffffffffffff16141561113657600182611133919061438b565b91505b8080611141906144fa565b91505061106b565b508067ffffffffffffffff81111561118a577f4e487b7100000000000000000000000000000000000000000000000000000000600052604160045260246000fd5b6040519080825280602002602001820160405280156111b85781602001602082028036833780820191505090505b5098508067ffffffffffffffff8111156111fb577f4e487b7100000000000000000000000000000000000000000000000000000000600052604160045260246000fd5b6040519080825280602002602001820160405280156112295781602001602082028036833780820191505090505b5097508067ffffffffffffffff81111561126c577f4e487b7100000000000000000000000000000000000000000000000000000000600052604160045260246000fd5b60405190808252806020026020018201604052801561129a5781602001602082028036833780820191505090505b5096508067ffffffffffffffff8111156112dd577f4e487b7100000000000000000000000000000000000000000000000000000000600052604160045260246000fd5b60405190808252806020026020018201604052801561130b5781602001602082028036833780820191505090505b5095508067ffffffffffffffff81111561134e577f4e487b7100000000000000000000000000000000000000000000000000000000600052604160045260246000fd5b60405190808252806020026020018201604052801561137c5781602001602082028036833780820191505090505b5094508067ffffffffffffffff8111156113bf577f4e487b7100000000000000000000000000000000000000000000000000000000600052604160045260246000fd5b6040519080825280602002602001820160405280156113ed5781602001602082028036833780820191505090505b5093508067ffffffffffffffff811115611430577f4e487b7100000000000000000000000000000000000000000000000000000000600052604160045260246000fd5b60405190808252806020026020018201604052801561145e5781602001602082028036833780820191505090505b50925060005b600680549050811015611840578a73ffffffffffffffffffffffffffffffffffffffff1660076000600684815481106114c6577f4e487b7100000000000000000000000000000000000000000000000000000000600052603260045260246000fd5b9060005260206000200154815260200190815260200160002060030160009054906101000a900473ffffffffffffffffffffffffffffffffffffffff1673ffffffffffffffffffffffffffffffffffffffff16141561182d576000600760006006848154811061155f577f4e487b7100000000000000000000000000000000000000000000000000000000600052603260045260246000fd5b90600052602060002001548152602001908152602001600020905080600001548b85815181106115b8577f4e487b7100000000000000000000000000000000000000000000000000000000600052603260045260246000fd5b60200260200101818152505080600101548a8581518110611602577f4e487b7100000000000000000000000000000000000000000000000000000000600052603260045260246000fd5b6020026020010181815250508060020160009054906101000a900473ffffffffffffffffffffffffffffffffffffffff1689858151811061166c577f4e487b7100000000000000000000000000000000000000000000000000000000600052603260045260246000fd5b602002602001019073ffffffffffffffffffffffffffffffffffffffff16908173ffffffffffffffffffffffffffffffffffffffff16815250508060030160009054906101000a900473ffffffffffffffffffffffffffffffffffffffff16888581518110611704577f4e487b7100000000000000000000000000000000000000000000000000000000600052603260045260246000fd5b602002602001019073ffffffffffffffffffffffffffffffffffffffff16908173ffffffffffffffffffffffffffffffffffffffff1681525050806004015487858151811061177c577f4e487b7100000000000000000000000000000000000000000000000000000000600052603260045260246000fd5b60200260200101818152505080600501548685815181106117c6577f4e487b7100000000000000000000000000000000000000000000000000000000600052603260045260246000fd5b6020026020010181815250508060060154858581518110611810577f4e487b7100000000000000000000000000000000000000000000000000000000600052603260045260246000fd5b602002602001018181525050600184611829919061438b565b9350505b8080611838906144fa565b915050611464565b505050919395979092949650565b60011515600160003373ffffffffffffffffffffffffffffffffffffffff1673ffffffffffffffffffffffffffffffffffffffff16815260200190815260200160002060009054906101000a900460ff16151514806118df57503373ffffffffffffffffffffffffffffffffffffffff166118c7612906565b73ffffffffffffffffffffffffffffffffffffffff16145b6118e857600080fd5b8060026000848152602001908152602001600020908051906020019061190f929190613971565b505050565b606060011515600160003373ffffffffffffffffffffffffffffffffffffffff1673ffffffffffffffffffffffffffffffffffffffff16815260200190815260200160002060009054906101000a900460ff16151514806119a757503373ffffffffffffffffffffffffffffffffffffffff1661198f612906565b73ffffffffffffffffffffffffffffffffffffffff16145b6119b057600080fd5b60068054806020026020016040519081016040528092919081815260200182805480156119fc57602002820191906000526020600020905b8154815260200190600101908083116119e8575b5050505050905090565b60011515600160003373ffffffffffffffffffffffffffffffffffffffff1673ffffffffffffffffffffffffffffffffffffffff16815260200190815260200160002060009054906101000a900460ff1615151480611a9757503373ffffffffffffffffffffffffffffffffffffffff16611a7f612906565b73ffffffffffffffffffffffffffffffffffffffff16145b611aa057600080fd5b6000600160008373ffffffffffffffffffffffffffffffffffffffff1673ffffffffffffffffffffffffffffffffffffffff16815260200190815260200160002060006101000a81548160ff02191690831515021790555050565b60011515600160003373ffffffffffffffffffffffffffffffffffffffff1673ffffffffffffffffffffffffffffffffffffffff16815260200190815260200160002060009054906101000a900460ff1615151480611b8c57503373ffffffffffffffffffffffffffffffffffffffff16611b74612906565b73ffffffffffffffffffffffffffffffffffffffff16145b611b9557600080fd5b611b9f6004613811565b565b611ba9613827565b611bb360006138a5565b565b600060011515600160003373ffffffffffffffffffffffffffffffffffffffff1673ffffffffffffffffffffffffffffffffffffffff16815260200190815260200160002060009054906101000a900460ff1615151480611c4857503373ffffffffffffffffffffffffffffffffffffffff16611c30612906565b73ffffffffffffffffffffffffffffffffffffffff16145b611c5157600080fd5b611c5b6003613811565b611c656003613803565b905090565b60008060008060008060011515600160003373ffffffffffffffffffffffffffffffffffffffff1673ffffffffffffffffffffffffffffffffffffffff16815260200190815260200160002060009054906101000a900460ff1615151480611d0457503373ffffffffffffffffffffffffffffffffffffffff16611cec612906565b73ffffffffffffffffffffffffffffffffffffffff16145b611d0d57600080fd5b60076000888152602001908152602001600020600101546007600089815260200190815260200160002060020160009054906101000a900473ffffffffffffffffffffffffffffffffffffffff16600760008a815260200190815260200160002060030160009054906101000a900473ffffffffffffffffffffffffffffffffffffffff16600760008b815260200190815260200160002060040154600760008c815260200190815260200160002060050154600760008d81526020019081526020016000206006015495509550955095509550955091939550919395565b606080606080606080606060011515600160003373ffffffffffffffffffffffffffffffffffffffff1673ffffffffffffffffffffffffffffffffffffffff16815260200190815260200160002060009054906101000a900460ff1615151480611e8857503373ffffffffffffffffffffffffffffffffffffffff16611e70612906565b73ffffffffffffffffffffffffffffffffffffffff16145b611e9157600080fd5b60008060005b600680549050811015612034578a73ffffffffffffffffffffffffffffffffffffffff166007600060068481548110611ef9577f4e487b7100000000000000000000000000000000000000000000000000000000600052603260045260246000fd5b9060005260206000200154815260200190815260200160002060020160009054906101000a900473ffffffffffffffffffffffffffffffffffffffff1673ffffffffffffffffffffffffffffffffffffffff1614801561200c57506007600060068381548110611f92577f4e487b7100000000000000000000000000000000000000000000000000000000600052603260045260246000fd5b90600052602060002001548152602001908152602001600020600501546007600060068481548110611fed577f4e487b7100000000000000000000000000000000000000000000000000000000600052603260045260246000fd5b9060005260206000200154815260200190815260200160002060060154105b156120215760018361201e919061438b565b92505b808061202c906144fa565b915050611e97565b508167ffffffffffffffff811115612075577f4e487b7100000000000000000000000000000000000000000000000000000000600052604160045260246000fd5b6040519080825280602002602001820160405280156120a35781602001602082028036833780820191505090505b5098508167ffffffffffffffff8111156120e6577f4e487b7100000000000000000000000000000000000000000000000000000000600052604160045260246000fd5b6040519080825280602002602001820160405280156121145781602001602082028036833780820191505090505b5097508167ffffffffffffffff811115612157577f4e487b7100000000000000000000000000000000000000000000000000000000600052604160045260246000fd5b6040519080825280602002602001820160405280156121855781602001602082028036833780820191505090505b5096508167ffffffffffffffff8111156121c8577f4e487b7100000000000000000000000000000000000000000000000000000000600052604160045260246000fd5b6040519080825280602002602001820160405280156121f65781602001602082028036833780820191505090505b5095508167ffffffffffffffff811115612239577f4e487b7100000000000000000000000000000000000000000000000000000000600052604160045260246000fd5b6040519080825280602002602001820160405280156122675781602001602082028036833780820191505090505b5094508167ffffffffffffffff8111156122aa577f4e487b7100000000000000000000000000000000000000000000000000000000600052604160045260246000fd5b6040519080825280602002602001820160405280156122d85781602001602082028036833780820191505090505b5093508167ffffffffffffffff81111561231b577f4e487b7100000000000000000000000000000000000000000000000000000000600052604160045260246000fd5b6040519080825280602002602001820160405280156123495781602001602082028036833780820191505090505b50925060005b6006805490508110156127ea578a73ffffffffffffffffffffffffffffffffffffffff1660076000600684815481106123b1577f4e487b7100000000000000000000000000000000000000000000000000000000600052603260045260246000fd5b9060005260206000200154815260200190815260200160002060020160009054906101000a900473ffffffffffffffffffffffffffffffffffffffff1673ffffffffffffffffffffffffffffffffffffffff161480156124c45750600760006006838154811061244a577f4e487b7100000000000000000000000000000000000000000000000000000000600052603260045260246000fd5b906000526020600020015481526020019081526020016000206005015460076000600684815481106124a5577f4e487b7100000000000000000000000000000000000000000000000000000000600052603260045260246000fd5b9060005260206000200154815260200190815260200160002060060154105b156127d75760006007600060068481548110612509577f4e487b7100000000000000000000000000000000000000000000000000000000600052603260045260246000fd5b90600052602060002001548152602001908152602001600020905080600001548b8481518110612562577f4e487b7100000000000000000000000000000000000000000000000000000000600052603260045260246000fd5b60200260200101818152505080600101548a84815181106125ac577f4e487b7100000000000000000000000000000000000000000000000000000000600052603260045260246000fd5b6020026020010181815250508060020160009054906101000a900473ffffffffffffffffffffffffffffffffffffffff16898481518110612616577f4e487b7100000000000000000000000000000000000000000000000000000000600052603260045260246000fd5b602002602001019073ffffffffffffffffffffffffffffffffffffffff16908173ffffffffffffffffffffffffffffffffffffffff16815250508060030160009054906101000a900473ffffffffffffffffffffffffffffffffffffffff168884815181106126ae577f4e487b7100000000000000000000000000000000000000000000000000000000600052603260045260246000fd5b602002602001019073ffffffffffffffffffffffffffffffffffffffff16908173ffffffffffffffffffffffffffffffffffffffff16815250508060040154878481518110612726577f4e487b7100000000000000000000000000000000000000000000000000000000600052603260045260246000fd5b6020026020010181815250508060050154868481518110612770577f4e487b7100000000000000000000000000000000000000000000000000000000600052603260045260246000fd5b60200260200101818152505080600601548584815181106127ba577f4e487b7100000000000000000000000000000000000000000000000000000000600052603260045260246000fd5b6020026020010181815250506001836127d3919061438b565b9250505b80806127e2906144fa565b91505061234f565b505050919395979092949650565b6128006139f7565b60011515600160003373ffffffffffffffffffffffffffffffffffffffff1673ffffffffffffffffffffffffffffffffffffffff16815260200190815260200160002060009054906101000a900460ff161515148061289157503373ffffffffffffffffffffffffffffffffffffffff16612879612906565b73ffffffffffffffffffffffffffffffffffffffff16145b61289a57600080fd5b6040518060e001604052808981526020018881526020018773ffffffffffffffffffffffffffffffffffffffff1681526020018673ffffffffffffffffffffffffffffffffffffffff168152602001858152602001848152602001838152509050979650505050505050565b60008060009054906101000a900473ffffffffffffffffffffffffffffffffffffffff16905090565b600060011515600160003373ffffffffffffffffffffffffffffffffffffffff1673ffffffffffffffffffffffffffffffffffffffff16815260200190815260200160002060009054906101000a900460ff16151514806129c257503373ffffffffffffffffffffffffffffffffffffffff166129aa612906565b73ffffffffffffffffffffffffffffffffffffffff16145b6129cb57600080fd5b6129d56004613803565b905090565b606080606080606080606060011515600160003373ffffffffffffffffffffffffffffffffffffffff1673ffffffffffffffffffffffffffffffffffffffff16815260200190815260200160002060009054906101000a900460ff1615151480612a7657503373ffffffffffffffffffffffffffffffffffffffff16612a5e612906565b73ffffffffffffffffffffffffffffffffffffffff16145b612a7f57600080fd5b60008060005b600680549050811015612ab457600182612a9f919061438b565b91508080612aac906144fa565b915050612a85565b508067ffffffffffffffff811115612af5577f4e487b7100000000000000000000000000000000000000000000000000000000600052604160045260246000fd5b604051908082528060200260200182016040528015612b235781602001602082028036833780820191505090505b5098508067ffffffffffffffff811115612b66577f4e487b7100000000000000000000000000000000000000000000000000000000600052604160045260246000fd5b604051908082528060200260200182016040528015612b945781602001602082028036833780820191505090505b5097508067ffffffffffffffff811115612bd7577f4e487b7100000000000000000000000000000000000000000000000000000000600052604160045260246000fd5b604051908082528060200260200182016040528015612c055781602001602082028036833780820191505090505b5096508067ffffffffffffffff811115612c48577f4e487b7100000000000000000000000000000000000000000000000000000000600052604160045260246000fd5b604051908082528060200260200182016040528015612c765781602001602082028036833780820191505090505b5095508067ffffffffffffffff811115612cb9577f4e487b7100000000000000000000000000000000000000000000000000000000600052604160045260246000fd5b604051908082528060200260200182016040528015612ce75781602001602082028036833780820191505090505b5094508067ffffffffffffffff811115612d2a577f4e487b7100000000000000000000000000000000000000000000000000000000600052604160045260246000fd5b604051908082528060200260200182016040528015612d585781602001602082028036833780820191505090505b5093508067ffffffffffffffff811115612d9b577f4e487b7100000000000000000000000000000000000000000000000000000000600052604160045260246000fd5b604051908082528060200260200182016040528015612dc95781602001602082028036833780820191505090505b50925060005b818110156130f75760006007600060068481548110612e17577f4e487b7100000000000000000000000000000000000000000000000000000000600052603260045260246000fd5b90600052602060002001548152602001908152602001600020905080600001548b8581518110612e70577f4e487b7100000000000000000000000000000000000000000000000000000000600052603260045260246000fd5b60200260200101818152505080600101548a8581518110612eba577f4e487b7100000000000000000000000000000000000000000000000000000000600052603260045260246000fd5b6020026020010181815250508060020160009054906101000a900473ffffffffffffffffffffffffffffffffffffffff16898581518110612f24577f4e487b7100000000000000000000000000000000000000000000000000000000600052603260045260246000fd5b602002602001019073ffffffffffffffffffffffffffffffffffffffff16908173ffffffffffffffffffffffffffffffffffffffff16815250508060030160009054906101000a900473ffffffffffffffffffffffffffffffffffffffff16888581518110612fbc577f4e487b7100000000000000000000000000000000000000000000000000000000600052603260045260246000fd5b602002602001019073ffffffffffffffffffffffffffffffffffffffff16908173ffffffffffffffffffffffffffffffffffffffff16815250508060040154878581518110613034577f4e487b7100000000000000000000000000000000000000000000000000000000600052603260045260246000fd5b602002602001018181525050806005015486858151811061307e577f4e487b7100000000000000000000000000000000000000000000000000000000600052603260045260246000fd5b60200260200101818152505080600601548585815181106130c8577f4e487b7100000000000000000000000000000000000000000000000000000000600052603260045260246000fd5b6020026020010181815250506001846130e1919061438b565b93505080806130ef906144fa565b915050612dcf565b50505090919293949596565b61310b613827565b8060058190555050565b600060011515600160003373ffffffffffffffffffffffffffffffffffffffff1673ffffffffffffffffffffffffffffffffffffffff16815260200190815260200160002060009054906101000a900460ff16151514806131a857503373ffffffffffffffffffffffffffffffffffffffff16613190612906565b73ffffffffffffffffffffffffffffffffffffffff16145b6131b157600080fd5b600a905090565b60011515600160003373ffffffffffffffffffffffffffffffffffffffff1673ffffffffffffffffffffffffffffffffffffffff16815260200190815260200160002060009054906101000a900460ff161515148061324957503373ffffffffffffffffffffffffffffffffffffffff16613231612906565b73ffffffffffffffffffffffffffffffffffffffff16145b61325257600080fd5b60018060008373ffffffffffffffffffffffffffffffffffffffff1673ffffffffffffffffffffffffffffffffffffffff16815260200190815260200160002060006101000a81548160ff02191690831515021790555050565b600060011515600160003373ffffffffffffffffffffffffffffffffffffffff1673ffffffffffffffffffffffffffffffffffffffff16815260200190815260200160002060009054906101000a900460ff161515148061333f57503373ffffffffffffffffffffffffffffffffffffffff16613327612906565b73ffffffffffffffffffffffffffffffffffffffff16145b61334857600080fd5b6003905090565b60011515600160003373ffffffffffffffffffffffffffffffffffffffff1673ffffffffffffffffffffffffffffffffffffffff16815260200190815260200160002060009054906101000a900460ff16151514806133e057503373ffffffffffffffffffffffffffffffffffffffff166133c8612906565b73ffffffffffffffffffffffffffffffffffffffff16145b6133e957600080fd5b8060076000848152602001908152602001600020600082015181600001556020820151816001015560408201518160020160006101000a81548173ffffffffffffffffffffffffffffffffffffffff021916908373ffffffffffffffffffffffffffffffffffffffff16021790555060608201518160030160006101000a81548173ffffffffffffffffffffffffffffffffffffffff021916908373ffffffffffffffffffffffffffffffffffffffff1602179055506080820151816004015560a0820151816005015560c082015181600601559050505050565b606060011515600160003373ffffffffffffffffffffffffffffffffffffffff1673ffffffffffffffffffffffffffffffffffffffff16815260200190815260200160002060009054906101000a900460ff161515148061355757503373ffffffffffffffffffffffffffffffffffffffff1661353f612906565b73ffffffffffffffffffffffffffffffffffffffff16145b61356057600080fd5b60026000838152602001908152602001600020805461357e90614497565b80601f01602080910402602001604051908101604052809291908181526020018280546135aa90614497565b80156135f75780601f106135cc576101008083540402835291602001916135f7565b820191906000526020600020905b8154815290600101906020018083116135da57829003601f168201915b50505050509050919050565b60011515600160003373ffffffffffffffffffffffffffffffffffffffff1673ffffffffffffffffffffffffffffffffffffffff16815260200190815260200160002060009054906101000a900460ff161515148061369457503373ffffffffffffffffffffffffffffffffffffffff1661367c612906565b73ffffffffffffffffffffffffffffffffffffffff16145b61369d57600080fd5b600681908060018154018082558091505060019003906000526020600020016000909190919091505550565b6136d1613827565b600073ffffffffffffffffffffffffffffffffffffffff168173ffffffffffffffffffffffffffffffffffffffff161415613741576040517f08c379a00000000000000000000000000000000000000000000000000000000081526004016137389061417c565b60405180910390fd5b61374a816138a5565b50565b600060011515600160003373ffffffffffffffffffffffffffffffffffffffff1673ffffffffffffffffffffffffffffffffffffffff16815260200190815260200160002060009054906101000a900460ff16151514806137e057503373ffffffffffffffffffffffffffffffffffffffff166137c8612906565b73ffffffffffffffffffffffffffffffffffffffff16145b6137e957600080fd5b734f1401d78d87b1025423f4f7a478f3164cf3b2f8905090565b600081600001549050919050565b6001816000016000828254019250508190555050565b61382f613969565b73ffffffffffffffffffffffffffffffffffffffff1661384d612906565b73ffffffffffffffffffffffffffffffffffffffff16146138a3576040517f08c379a000000000000000000000000000000000000000000000000000000000815260040161389a9061419c565b60405180910390fd5b565b60008060009054906101000a900473ffffffffffffffffffffffffffffffffffffffff169050816000806101000a81548173ffffffffffffffffffffffffffffffffffffffff021916908373ffffffffffffffffffffffffffffffffffffffff1602179055508173ffffffffffffffffffffffffffffffffffffffff168173ffffffffffffffffffffffffffffffffffffffff167f8be0079c531659141344cd1fd0a4f28419497f9722a3daafe3b4186f6b6457e060405160405180910390a35050565b600033905090565b82805461397d90614497565b90600052602060002090601f01602090048101928261399f57600085556139e6565b82601f106139b857805160ff19168380011785556139e6565b828001600101855582156139e6579182015b828111156139e55782518255916020019190600101906139ca565b5b5090506139f39190613a63565b5090565b6040518060e001604052806000801916815260200160008152602001600073ffffffffffffffffffffffffffffffffffffffff168152602001600073ffffffffffffffffffffffffffffffffffffffff1681526020016000815260200160008152602001600081525090565b5b80821115613a7c576000816000905550600101613a64565b5090565b6000613a93613a8e84614293565b61426e565b905082815260208101848484011115613aab57600080fd5b613ab6848285614455565b509392505050565b600081359050613acd81614659565b92915050565b600081359050613ae281614670565b92915050565b600081359050613af781614687565b92915050565b600082601f830112613b0e57600080fd5b8135613b1e848260208601613a80565b91505092915050565b600060e08284031215613b3957600080fd5b613b4360e061426e565b90506000613b5384828501613ae8565b6000830152506020613b6784828501613bd7565b6020830152506040613b7b84828501613ad3565b6040830152506060613b8f84828501613ad3565b6060830152506080613ba384828501613bd7565b60808301525060a0613bb784828501613bd7565b60a08301525060c0613bcb84828501613bd7565b60c08301525092915050565b600081359050613be68161469e565b92915050565b600060208284031215613bfe57600080fd5b6000613c0c84828501613abe565b91505092915050565b600060208284031215613c2757600080fd5b6000613c3584828501613ae8565b91505092915050565b60008060408385031215613c5157600080fd5b6000613c5f85828601613ae8565b925050602083013567ffffffffffffffff811115613c7c57600080fd5b613c8885828601613afd565b9150509250929050565b6000806101008385031215613ca657600080fd5b6000613cb485828601613ae8565b9250506020613cc585828601613b27565b9150509250929050565b600080600080600080600060e0888a031215613cea57600080fd5b6000613cf88a828b01613ae8565b9750506020613d098a828b01613bd7565b9650506040613d1a8a828b01613ad3565b9550506060613d2b8a828b01613ad3565b9450506080613d3c8a828b01613bd7565b93505060a0613d4d8a828b01613bd7565b92505060c0613d5e8a828b01613bd7565b91505092959891949750929550565b600060208284031215613d7f57600080fd5b6000613d8d84828501613bd7565b91505092915050565b6000613da28383613dfc565b60208301905092915050565b6000613dba8383613f34565b60208301905092915050565b6000613dd2838361405f565b60208301905092915050565b613de7816143f3565b82525050565b613df6816143f3565b82525050565b613e05816143e1565b82525050565b613e14816143e1565b82525050565b6000613e25826142f4565b613e2f8185614347565b9350613e3a836142c4565b8060005b83811015613e6b578151613e528882613d96565b9750613e5d83614320565b925050600181019050613e3e565b5085935050505092915050565b6000613e83826142ff565b613e8d8185614358565b9350613e98836142d4565b8060005b83811015613ec9578151613eb08882613dae565b9750613ebb8361432d565b925050600181019050613e9c565b5085935050505092915050565b6000613ee18261430a565b613eeb8185614369565b9350613ef6836142e4565b8060005b83811015613f27578151613f0e8882613dc6565b9750613f198361433a565b925050600181019050613efa565b5085935050505092915050565b613f3d81614405565b82525050565b6000613f4e82614315565b613f58818561437a565b9350613f68818560208601614464565b613f71816145d0565b840191505092915050565b6000613f8960268361437a565b9150613f94826145e1565b604082019050919050565b6000613fac60208361437a565b9150613fb782614630565b602082019050919050565b60e082016000820151613fd86000850182613f34565b506020820151613feb602085018261405f565b506040820151613ffe6040850182613dde565b5060608201516140116060850182613dde565b506080820151614024608085018261405f565b5060a082015161403760a085018261405f565b5060c082015161404a60c085018261405f565b50505050565b6140598161440f565b82525050565b6140688161444b565b82525050565b6140778161444b565b82525050565b60006020820190506140926000830184613e0b565b92915050565b600060208201905081810360008301526140b28184613e78565b905092915050565b600060e08201905081810360008301526140d4818a613e78565b905081810360208301526140e88189613ed6565b905081810360408301526140fc8188613e1a565b905081810360608301526141108187613e1a565b905081810360808301526141248186613ed6565b905081810360a08301526141388185613ed6565b905081810360c083015261414c8184613ed6565b905098975050505050505050565b600060208201905081810360008301526141748184613f43565b905092915050565b6000602082019050818103600083015261419581613f7c565b9050919050565b600060208201905081810360008301526141b581613f9f565b9050919050565b600060e0820190506141d16000830184613fc2565b92915050565b60006020820190506141ec6000830184614050565b92915050565b6000602082019050614207600083018461406e565b92915050565b600060c082019050614222600083018961406e565b61422f6020830188613ded565b61423c6040830187613ded565b614249606083018661406e565b614256608083018561406e565b61426360a083018461406e565b979650505050505050565b6000614278614289565b905061428482826144c9565b919050565b6000604051905090565b600067ffffffffffffffff8211156142ae576142ad6145a1565b5b6142b7826145d0565b9050602081019050919050565b6000819050602082019050919050565b6000819050602082019050919050565b6000819050602082019050919050565b600081519050919050565b600081519050919050565b600081519050919050565b600081519050919050565b6000602082019050919050565b6000602082019050919050565b6000602082019050919050565b600082825260208201905092915050565b600082825260208201905092915050565b600082825260208201905092915050565b600082825260208201905092915050565b60006143968261444b565b91506143a18361444b565b9250827fffffffffffffffffffffffffffffffffffffffffffffffffffffffffffffffff038211156143d6576143d5614543565b5b828201905092915050565b60006143ec8261442b565b9050919050565b60006143fe8261442b565b9050919050565b6000819050919050565b60006fffffffffffffffffffffffffffffffff82169050919050565b600073ffffffffffffffffffffffffffffffffffffffff82169050919050565b6000819050919050565b82818337600083830152505050565b60005b83811015614482578082015181840152602081019050614467565b83811115614491576000848401525b50505050565b600060028204905060018216806144af57607f821691505b602082108114156144c3576144c2614572565b5b50919050565b6144d2826145d0565b810181811067ffffffffffffffff821117156144f1576144f06145a1565b5b80604052505050565b60006145058261444b565b91507fffffffffffffffffffffffffffffffffffffffffffffffffffffffffffffffff82141561453857614537614543565b5b600182019050919050565b7f4e487b7100000000000000000000000000000000000000000000000000000000600052601160045260246000fd5b7f4e487b7100000000000000000000000000000000000000000000000000000000600052602260045260246000fd5b7f4e487b7100000000000000000000000000000000000000000000000000000000600052604160045260246000fd5b6000601f19601f8301169050919050565b7f4f776e61626c653a206e6577206f776e657220697320746865207a65726f206160008201527f6464726573730000000000000000000000000000000000000000000000000000602082015250565b7f4f776e61626c653a2063616c6c6572206973206e6f7420746865206f776e6572600082015250565b614662816143e1565b811461466d57600080fd5b50565b614679816143f3565b811461468457600080fd5b50565b61469081614405565b811461469b57600080fd5b50565b6146a78161444b565b81146146b257600080fd5b5056fea2646970667358221220ed371153522c4df8687b4fb667c8a80e529f9cc2224868eee9995ee026e8a48c64736f6c63430008040033",
  "linkReferences": {},
  "deployedLinkReferences": {}
}